{
  "_format": "hh-sol-artifact-1",
  "contractName": "CryptoIndexBinance",
  "sourceName": "contracts/CryptoIndexBinance.sol",
  "abi": [
    {
      "inputs": [],
      "stateMutability": "nonpayable",
      "type": "constructor"
    },
    {
      "inputs": [],
      "name": "ADA_ADDRESS",
      "outputs": [
        {
          "internalType": "address",
          "name": "",
          "type": "address"
        }
      ],
      "stateMutability": "view",
      "type": "function"
    },
    {
      "inputs": [],
      "name": "ADA_USD_ORACLE",
      "outputs": [
        {
          "internalType": "address",
          "name": "",
          "type": "address"
        }
      ],
      "stateMutability": "view",
      "type": "function"
    },
    {
      "inputs": [],
      "name": "APESWAP_ROUTER",
      "outputs": [
        {
          "internalType": "address",
          "name": "",
          "type": "address"
        }
      ],
      "stateMutability": "view",
      "type": "function"
    },
    {
      "inputs": [],
      "name": "BNB_ADDRESS",
      "outputs": [
        {
          "internalType": "address",
          "name": "",
          "type": "address"
        }
      ],
      "stateMutability": "view",
      "type": "function"
    },
    {
      "inputs": [],
      "name": "BNB_USD_ORACLE",
      "outputs": [
        {
          "internalType": "address",
          "name": "",
          "type": "address"
        }
      ],
      "stateMutability": "view",
      "type": "function"
    },
    {
      "inputs": [],
      "name": "BTCB_ADDRESS",
      "outputs": [
        {
          "internalType": "address",
          "name": "",
          "type": "address"
        }
      ],
      "stateMutability": "view",
      "type": "function"
    },
    {
      "inputs": [],
      "name": "BTC_USD_ORACLE",
      "outputs": [
        {
          "internalType": "address",
          "name": "",
          "type": "address"
        }
      ],
      "stateMutability": "view",
      "type": "function"
    },
    {
      "inputs": [],
      "name": "DOGE_ADDRESS",
      "outputs": [
        {
          "internalType": "address",
          "name": "",
          "type": "address"
        }
      ],
      "stateMutability": "view",
      "type": "function"
    },
    {
      "inputs": [],
      "name": "DOGE_USD_ORACLE",
      "outputs": [
        {
          "internalType": "address",
          "name": "",
          "type": "address"
        }
      ],
      "stateMutability": "view",
      "type": "function"
    },
    {
      "inputs": [],
      "name": "DOT_ADDRESS",
      "outputs": [
        {
          "internalType": "address",
          "name": "",
          "type": "address"
        }
      ],
      "stateMutability": "view",
      "type": "function"
    },
    {
      "inputs": [],
      "name": "DOT_USD_ORACLE",
      "outputs": [
        {
          "internalType": "address",
          "name": "",
          "type": "address"
        }
      ],
      "stateMutability": "view",
      "type": "function"
    },
    {
      "inputs": [],
      "name": "ETH_USD_ORACLE",
      "outputs": [
        {
          "internalType": "address",
          "name": "",
          "type": "address"
        }
      ],
      "stateMutability": "view",
      "type": "function"
    },
    {
      "inputs": [],
      "name": "LINK_ADDRESS",
      "outputs": [
        {
          "internalType": "address",
          "name": "",
          "type": "address"
        }
      ],
      "stateMutability": "view",
      "type": "function"
    },
    {
      "inputs": [],
      "name": "LINK_USD_ORACLE",
      "outputs": [
        {
          "internalType": "address",
          "name": "",
          "type": "address"
        }
      ],
      "stateMutability": "view",
      "type": "function"
    },
    {
      "inputs": [],
      "name": "LTC_ADDRESS",
      "outputs": [
        {
          "internalType": "address",
          "name": "",
          "type": "address"
        }
      ],
      "stateMutability": "view",
      "type": "function"
    },
    {
      "inputs": [],
      "name": "LTC_USD_ORACLE",
      "outputs": [
        {
          "internalType": "address",
          "name": "",
          "type": "address"
        }
      ],
      "stateMutability": "view",
      "type": "function"
    },
    {
      "inputs": [],
      "name": "SOL_ADDRESS",
      "outputs": [
        {
          "internalType": "address",
          "name": "",
          "type": "address"
        }
      ],
      "stateMutability": "view",
      "type": "function"
    },
    {
      "inputs": [],
      "name": "SOL_USD_ORACLE",
      "outputs": [
        {
          "internalType": "address",
          "name": "",
          "type": "address"
        }
      ],
      "stateMutability": "view",
      "type": "function"
    },
    {
      "inputs": [],
      "name": "SUSHISWAP_ROUTER",
      "outputs": [
        {
          "internalType": "address",
          "name": "",
          "type": "address"
        }
      ],
      "stateMutability": "view",
      "type": "function"
    },
    {
      "inputs": [],
      "name": "UNI_ADDRESS",
      "outputs": [
        {
          "internalType": "address",
          "name": "",
          "type": "address"
        }
      ],
      "stateMutability": "view",
      "type": "function"
    },
    {
      "inputs": [],
      "name": "UNI_USD_ORACLE",
      "outputs": [
        {
          "internalType": "address",
          "name": "",
          "type": "address"
        }
      ],
      "stateMutability": "view",
      "type": "function"
    },
    {
      "inputs": [],
      "name": "USDC_ADDRESS",
      "outputs": [
        {
          "internalType": "address",
          "name": "",
          "type": "address"
        }
      ],
      "stateMutability": "view",
      "type": "function"
    },
    {
      "inputs": [],
      "name": "WETH_ADDRESS",
      "outputs": [
        {
          "internalType": "address",
          "name": "",
          "type": "address"
        }
      ],
      "stateMutability": "view",
      "type": "function"
    },
    {
      "inputs": [],
      "name": "XRP_ADDRESS",
      "outputs": [
        {
          "internalType": "address",
          "name": "",
          "type": "address"
        }
      ],
      "stateMutability": "view",
      "type": "function"
    },
    {
      "inputs": [],
      "name": "XRP_USD_ORACLE",
      "outputs": [
        {
          "internalType": "address",
          "name": "",
          "type": "address"
        }
      ],
      "stateMutability": "view",
      "type": "function"
    },
    {
      "inputs": [
        {
          "internalType": "address",
          "name": "_token",
          "type": "address"
        },
        {
          "internalType": "address",
          "name": "_spender",
          "type": "address"
        }
      ],
      "name": "approveSpendingWholeBalance",
      "outputs": [],
      "stateMutability": "nonpayable",
      "type": "function"
    },
    {
      "inputs": [
        {
          "internalType": "address",
          "name": "token_address",
          "type": "address"
        },
        {
          "internalType": "address",
          "name": "spender_address",
          "type": "address"
        },
        {
          "internalType": "uint256",
          "name": "amount_to_approve",
          "type": "uint256"
        }
      ],
      "name": "approve_spending",
      "outputs": [],
      "stateMutability": "nonpayable",
      "type": "function"
    },
    {
      "inputs": [
        {
          "internalType": "address",
          "name": "token_address",
          "type": "address"
        },
        {
          "internalType": "address",
          "name": "user_address",
          "type": "address"
        }
      ],
      "name": "balanceOf",
      "outputs": [
        {
          "internalType": "uint256",
          "name": "token_balance",
          "type": "uint256"
        }
      ],
      "stateMutability": "view",
      "type": "function"
    },
    {
      "inputs": [
        {
          "internalType": "uint256",
          "name": "_amount",
          "type": "uint256"
        },
        {
          "internalType": "address",
          "name": "token_address",
          "type": "address"
        },
        {
          "internalType": "address",
          "name": "address_from",
          "type": "address"
        }
      ],
      "name": "deposit",
      "outputs": [],
      "stateMutability": "nonpayable",
      "type": "function"
    },
    {
      "inputs": [
        {
          "internalType": "uint256",
          "name": "_amount",
          "type": "uint256"
        },
        {
          "internalType": "address",
          "name": "deposit_token_address",
          "type": "address"
        },
        {
          "internalType": "address",
          "name": "address_from",
          "type": "address"
        },
        {
          "internalType": "address[]",
          "name": "token_addresses",
          "type": "address[]"
        }
      ],
      "name": "depositFirstTime",
      "outputs": [],
      "stateMutability": "nonpayable",
      "type": "function"
    },
    {
      "inputs": [
        {
          "internalType": "uint256",
          "name": "amount_",
          "type": "uint256"
        },
        {
          "internalType": "address",
          "name": "token_address",
          "type": "address"
        },
        {
          "internalType": "address",
          "name": "address_from",
          "type": "address"
        },
        {
          "internalType": "address[]",
          "name": "token_addresses",
          "type": "address[]"
        }
      ],
      "name": "depositUserFunds",
      "outputs": [],
      "stateMutability": "nonpayable",
      "type": "function"
    },
    {
      "inputs": [
        {
          "internalType": "address[]",
          "name": "_from",
          "type": "address[]"
        },
        {
          "internalType": "address[]",
          "name": "_to",
          "type": "address[]"
        },
        {
          "internalType": "uint256[]",
          "name": "_amount",
          "type": "uint256[]"
        }
      ],
      "name": "executeNSwaps",
      "outputs": [],
      "stateMutability": "nonpayable",
      "type": "function"
    },
    {
      "inputs": [
        {
          "internalType": "address",
          "name": "_tokenToSwap",
          "type": "address"
        },
        {
          "internalType": "address",
          "name": "_tokenSwappingTo",
          "type": "address"
        },
        {
          "internalType": "uint256",
          "name": "_amountToBeSwapped",
          "type": "uint256"
        }
      ],
      "name": "executeRebalancingSwap",
      "outputs": [],
      "stateMutability": "nonpayable",
      "type": "function"
    },
    {
      "inputs": [
        {
          "internalType": "address",
          "name": "_oracle_address",
          "type": "address"
        }
      ],
      "name": "getLatestPrice",
      "outputs": [
        {
          "internalType": "int256",
          "name": "",
          "type": "int256"
        }
      ],
      "stateMutability": "view",
      "type": "function"
    },
    {
      "inputs": [
        {
          "internalType": "address",
          "name": "token_address",
          "type": "address"
        }
      ],
      "name": "getUSDBalanceOf",
      "outputs": [
        {
          "internalType": "uint256",
          "name": "",
          "type": "uint256"
        }
      ],
      "stateMutability": "view",
      "type": "function"
    },
    {
      "inputs": [
        {
          "internalType": "address",
          "name": "user",
          "type": "address"
        }
      ],
      "name": "getUserShares",
      "outputs": [
        {
          "internalType": "uint256",
          "name": "userShares",
          "type": "uint256"
        }
      ],
      "stateMutability": "view",
      "type": "function"
    },
    {
      "inputs": [
        {
          "internalType": "address",
          "name": "",
          "type": "address"
        }
      ],
      "name": "oracle_addresses",
      "outputs": [
        {
          "internalType": "address",
          "name": "",
          "type": "address"
        }
      ],
      "stateMutability": "view",
      "type": "function"
    },
    {
      "inputs": [],
      "name": "router",
      "outputs": [
        {
          "internalType": "contract IUniswapV2Router02",
          "name": "",
          "type": "address"
        }
      ],
      "stateMutability": "view",
      "type": "function"
    },
    {
      "inputs": [
        {
          "internalType": "address",
          "name": "user",
          "type": "address"
        }
      ],
      "name": "setSharesFirstTime",
      "outputs": [],
      "stateMutability": "nonpayable",
      "type": "function"
    },
    {
      "inputs": [
        {
          "internalType": "uint256",
          "name": "_amountIn",
          "type": "uint256"
        },
        {
          "internalType": "uint256",
          "name": "_amountOutMin",
          "type": "uint256"
        },
        {
          "internalType": "address[]",
          "name": "_path",
          "type": "address[]"
        },
        {
          "internalType": "address",
          "name": "_acct",
          "type": "address"
        },
        {
          "internalType": "uint256",
          "name": "_deadline",
          "type": "uint256"
        }
      ],
      "name": "swap",
      "outputs": [],
      "stateMutability": "nonpayable",
      "type": "function"
    },
    {
      "inputs": [
        {
          "internalType": "uint256",
          "name": "amount",
          "type": "uint256"
        },
        {
          "internalType": "address[]",
          "name": "token_addresses",
          "type": "address[]"
        }
      ],
      "name": "swapIntoNEqualParts",
      "outputs": [],
      "stateMutability": "nonpayable",
      "type": "function"
    },
    {
      "inputs": [
        {
          "internalType": "address[]",
          "name": "token_addresses",
          "type": "address[]"
        },
        {
          "internalType": "uint256[]",
          "name": "token_USD_balances",
          "type": "uint256[]"
        },
        {
          "internalType": "uint256",
          "name": "totalUSDAmount",
          "type": "uint256"
        },
        {
          "internalType": "uint256",
          "name": "depositAmount",
          "type": "uint256"
        }
      ],
      "name": "swapProportionately",
      "outputs": [],
      "stateMutability": "nonpayable",
      "type": "function"
    },
    {
      "inputs": [],
      "name": "totalNumberOfShares",
      "outputs": [
        {
          "internalType": "uint256",
          "name": "",
          "type": "uint256"
        }
      ],
      "stateMutability": "view",
      "type": "function"
    },
    {
      "inputs": [
        {
          "internalType": "address",
          "name": "user",
          "type": "address"
        },
        {
          "internalType": "uint256",
          "name": "total_in_USD",
          "type": "uint256"
        },
        {
          "internalType": "uint256",
          "name": "deposit_amount",
          "type": "uint256"
        }
      ],
      "name": "updateSharesOnDeposit",
      "outputs": [],
      "stateMutability": "nonpayable",
      "type": "function"
    },
    {
      "inputs": [
        {
          "internalType": "address",
          "name": "user",
          "type": "address"
        }
      ],
      "name": "updateSharesOnWithdrawal",
      "outputs": [],
      "stateMutability": "nonpayable",
      "type": "function"
    },
    {
      "inputs": [
        {
          "internalType": "address",
          "name": "",
          "type": "address"
        }
      ],
      "name": "userNumberOfShares",
      "outputs": [
        {
          "internalType": "uint256",
          "name": "",
          "type": "uint256"
        }
      ],
      "stateMutability": "view",
      "type": "function"
    },
    {
      "inputs": [
        {
          "internalType": "address",
          "name": "_user",
          "type": "address"
        },
        {
          "internalType": "address",
          "name": "_token_address",
          "type": "address"
        }
      ],
      "name": "withdrawAll",
      "outputs": [],
      "stateMutability": "nonpayable",
      "type": "function"
    },
    {
      "inputs": [
        {
          "internalType": "address",
          "name": "_user",
          "type": "address"
        }
      ],
      "name": "withdrawAllUSDC",
      "outputs": [],
      "stateMutability": "nonpayable",
      "type": "function"
    },
    {
      "inputs": [
        {
          "internalType": "address",
          "name": "user",
          "type": "address"
        },
        {
          "internalType": "address[]",
          "name": "token_addresses",
          "type": "address[]"
        }
      ],
      "name": "withdrawUserFunds",
      "outputs": [],
      "stateMutability": "nonpayable",
      "type": "function"
    },
    {
      "inputs": [
        {
          "internalType": "uint256",
          "name": "amount_",
          "type": "uint256"
        }
      ],
      "name": "withdraw_matic",
      "outputs": [],
      "stateMutability": "nonpayable",
      "type": "function"
    },
    {
      "stateMutability": "payable",
      "type": "receive"
    }
  ],
  "bytecode": "0x608060405273cf0febd3f17cef5b47b0cd257acf6025c5bff3b7600360006101000a81548173ffffffffffffffffffffffffffffffffffffffff021916908373ffffffffffffffffffffffffffffffffffffffff16021790555034801561006557600080fd5b5073264990fbd0a4796a3e3d8e37c4d5f87a3aca5ebf600080737130d2a12b9bcbfae4f2634d864a1ee1ce3ead9c73ffffffffffffffffffffffffffffffffffffffff1673ffffffffffffffffffffffffffffffffffffffff16815260200190815260200160002060006101000a81548173ffffffffffffffffffffffffffffffffffffffff021916908373ffffffffffffffffffffffffffffffffffffffff160217905550739ef1b8c0e4f7dc8bf5719ea496883dc6401d5b2e600080732170ed0880ac9a755fd29b2688956bd959f933f873ffffffffffffffffffffffffffffffffffffffff1673ffffffffffffffffffffffffffffffffffffffff16815260200190815260200160002060006101000a81548173ffffffffffffffffffffffffffffffffffffffff021916908373ffffffffffffffffffffffffffffffffffffffff160217905550730567f2323251f0aab15c8dfb1967e4e8a7d42aee60008073bb4cdb9cbd36b01bd1cbaebf2de08d9173bc095c73ffffffffffffffffffffffffffffffffffffffff1673ffffffffffffffffffffffffffffffffffffffff16815260200190815260200160002060006101000a81548173ffffffffffffffffffffffffffffffffffffffff021916908373ffffffffffffffffffffffffffffffffffffffff16021790555073a767f745331d267c7751297d982b050c93985627600080733ee2200efb3400fabb9aacf31297cbdd1d435d4773ffffffffffffffffffffffffffffffffffffffff1673ffffffffffffffffffffffffffffffffffffffff16815260200190815260200160002060006101000a81548173ffffffffffffffffffffffffffffffffffffffff021916908373ffffffffffffffffffffffffffffffffffffffff1602179055507393a67d414896a280bf8ffb3b389fe3686e014fda600080731d2f0da169ceb9fc7b3144628db156f3f6c60dbe73ffffffffffffffffffffffffffffffffffffffff1673ffffffffffffffffffffffffffffffffffffffff16815260200190815260200160002060006101000a81548173ffffffffffffffffffffffffffffffffffffffff021916908373ffffffffffffffffffffffffffffffffffffffff160217905550730e8a53dd9c13589df6382f13da6b3ec8f919b32360008073570a5d26f7765ecb712c0924e4de545b89fd43df73ffffffffffffffffffffffffffffffffffffffff1673ffffffffffffffffffffffffffffffffffffffff16815260200190815260200160002060006101000a81548173ffffffffffffffffffffffffffffffffffffffff021916908373ffffffffffffffffffffffffffffffffffffffff16021790555073c333eb0086309a16aa7c8308dfd32c8bba0a2592600080737083609fce4d1d8dc0c979aab8c869ea2c87340273ffffffffffffffffffffffffffffffffffffffff1673ffffffffffffffffffffffffffffffffffffffff16815260200190815260200160002060006101000a81548173ffffffffffffffffffffffffffffffffffffffff021916908373ffffffffffffffffffffffffffffffffffffffff160217905550733ab0a0d137d4f946fbb19eecc6e92e64660231c860008073ba2ae424d960c26247dd6c32edc70b295c744c4373ffffffffffffffffffffffffffffffffffffffff1673ffffffffffffffffffffffffffffffffffffffff16815260200190815260200160002060006101000a81548173ffffffffffffffffffffffffffffffffffffffff021916908373ffffffffffffffffffffffffffffffffffffffff16021790555073b57f259e7c24e56a1da00f66b55a5640d9f9e7e460008073bf5140a22578168fd562dccf235e5d43a02ce9b173ffffffffffffffffffffffffffffffffffffffff1673ffffffffffffffffffffffffffffffffffffffff16815260200190815260200160002060006101000a81548173ffffffffffffffffffffffffffffffffffffffff021916908373ffffffffffffffffffffffffffffffffffffffff1602179055507374e72f37a8c415c8f1a98ed42e78ff997435791d600080734338665cbb7b2485a8855a139b75d5e34ab0db9473ffffffffffffffffffffffffffffffffffffffff1673ffffffffffffffffffffffffffffffffffffffff16815260200190815260200160002060006101000a81548173ffffffffffffffffffffffffffffffffffffffff021916908373ffffffffffffffffffffffffffffffffffffffff16021790555073ca236e327f629f9fc2c30a4e95775ebf0b89fac860008073f8a0bf9cf54bb92f17374d9e9a321e6a111a51bd73ffffffffffffffffffffffffffffffffffffffff1673ffffffffffffffffffffffffffffffffffffffff16815260200190815260200160002060006101000a81548173ffffffffffffffffffffffffffffffffffffffff021916908373ffffffffffffffffffffffffffffffffffffffff160217905550613c6d8061078c6000396000f3fe6080604052600436106102cd5760003560e01c8063778fec0711610175578063bd6d4d7a116100dc578063d9155b1111610095578063ed08d8eb1161006f578063ed08d8eb146116db578063ef455bad1461171c578063f7888aec14611781578063f887ea4014611806576102d4565b8063d9155b111461161e578063e0c7af9e14611659578063e2a9f6251461169a576102d4565b8063bd6d4d7a146113e0578063c3f5a30514611421578063c458d13d1461144c578063ca68970f1461148d578063d50fe873146114ce578063d5942daf1461150f576102d4565b8063a16644b11161012e578063a16644b1146110da578063a56575851461111b578063aa5a7aa314611288578063b6e20a6a146112f9578063ba0cb22b1461133a578063bb09d9b71461139f576102d4565b8063778fec0714610c58578063808c551f14610e45578063894d945314610e8657806390427de114610f5557806390f11e8414610f965780639f7c607b14611099576102d4565b8063456409291161023457806358d1b302116101ed5780636a9c069b116101c75780636a9c069b14610b4457806370de629f14610b85578063718176e514610bc6578063747b5bf914610c07576102d4565b806358d1b30214610a715780635b53a3af14610ab25780636583530f14610af3576102d4565b806345640929146108db5780634690738c1461091c57806346cd7d191461096d5780634895e543146109ae5780634c5c1807146109ef5780634e11280e14610a30576102d4565b80632e2d2984116102865780632e2d29841461051157806330516cd51461058c57806335dd8a44146106715780633c64bb521461078057806342f1cbca146107fb5780634425095514610876576102d4565b8063034cf3bf146102d9578063040141e51461033e57806309cae2c81461037f57806316345f18146103f0578063277754ed1461045557806329a97ec214610496576102d4565b366102d457005b600080fd5b3480156102e557600080fd5b50610328600480360360208110156102fc57600080fd5b81019080803573ffffffffffffffffffffffffffffffffffffffff169060200190929190505050611847565b6040518082815260200191505060405180910390f35b34801561034a57600080fd5b50610353611972565b604051808273ffffffffffffffffffffffffffffffffffffffff16815260200191505060405180910390f35b34801561038b57600080fd5b506103ee600480360360408110156103a257600080fd5b81019080803573ffffffffffffffffffffffffffffffffffffffff169060200190929190803573ffffffffffffffffffffffffffffffffffffffff16906020019092919050505061198a565b005b3480156103fc57600080fd5b5061043f6004803603602081101561041357600080fd5b81019080803573ffffffffffffffffffffffffffffffffffffffff169060200190929190505050611a54565b6040518082815260200191505060405180910390f35b34801561046157600080fd5b5061046a611b1d565b604051808273ffffffffffffffffffffffffffffffffffffffff16815260200191505060405180910390f35b3480156104a257600080fd5b5061050f600480360360608110156104b957600080fd5b81019080803573ffffffffffffffffffffffffffffffffffffffff169060200190929190803573ffffffffffffffffffffffffffffffffffffffff16906020019092919080359060200190929190505050611b35565b005b34801561051d57600080fd5b5061058a6004803603606081101561053457600080fd5b8101908080359060200190929190803573ffffffffffffffffffffffffffffffffffffffff169060200190929190803573ffffffffffffffffffffffffffffffffffffffff169060200190929190505050611be7565b005b34801561059857600080fd5b5061066f600480360360408110156105af57600080fd5b81019080803573ffffffffffffffffffffffffffffffffffffffff169060200190929190803590602001906401000000008111156105ec57600080fd5b8201836020820111156105fe57600080fd5b8035906020019184602083028401116401000000008311171561062057600080fd5b919080806020026020016040519081016040528093929190818152602001838360200280828437600081840152601f19601f820116905080830192505050505050509192919290505050611cbd565b005b34801561067d57600080fd5b5061077e6004803603608081101561069457600080fd5b8101908080359060200190929190803573ffffffffffffffffffffffffffffffffffffffff169060200190929190803573ffffffffffffffffffffffffffffffffffffffff169060200190929190803590602001906401000000008111156106fb57600080fd5b82018360208201111561070d57600080fd5b8035906020019184602083028401116401000000008311171561072f57600080fd5b919080806020026020016040519081016040528093929190818152602001838360200280828437600081840152601f19601f820116905080830192505050505050509192919290505050612188565b005b34801561078c57600080fd5b506107f9600480360360608110156107a357600080fd5b81019080803573ffffffffffffffffffffffffffffffffffffffff169060200190929190803573ffffffffffffffffffffffffffffffffffffffff16906020019092919080359060200190929190505050612391565b005b34801561080757600080fd5b5061084a6004803603602081101561081e57600080fd5b81019080803573ffffffffffffffffffffffffffffffffffffffff1690602001909291905050506126bf565b604051808273ffffffffffffffffffffffffffffffffffffffff16815260200191505060405180910390f35b34801561088257600080fd5b506108d96004803603606081101561089957600080fd5b81019080803573ffffffffffffffffffffffffffffffffffffffff16906020019092919080359060200190929190803590602001909291905050506126f2565b005b3480156108e757600080fd5b506108f0612865565b604051808273ffffffffffffffffffffffffffffffffffffffff16815260200191505060405180910390f35b34801561092857600080fd5b5061096b6004803603602081101561093f57600080fd5b81019080803573ffffffffffffffffffffffffffffffffffffffff16906020019092919050505061287d565b005b34801561097957600080fd5b506109826129c9565b604051808273ffffffffffffffffffffffffffffffffffffffff16815260200191505060405180910390f35b3480156109ba57600080fd5b506109c36129e1565b604051808273ffffffffffffffffffffffffffffffffffffffff16815260200191505060405180910390f35b3480156109fb57600080fd5b50610a046129f9565b604051808273ffffffffffffffffffffffffffffffffffffffff16815260200191505060405180910390f35b348015610a3c57600080fd5b50610a45612a11565b604051808273ffffffffffffffffffffffffffffffffffffffff16815260200191505060405180910390f35b348015610a7d57600080fd5b50610a86612a29565b604051808273ffffffffffffffffffffffffffffffffffffffff16815260200191505060405180910390f35b348015610abe57600080fd5b50610ac7612a41565b604051808273ffffffffffffffffffffffffffffffffffffffff16815260200191505060405180910390f35b348015610aff57600080fd5b50610b4260048036036020811015610b1657600080fd5b81019080803573ffffffffffffffffffffffffffffffffffffffff169060200190929190505050612a59565b005b348015610b5057600080fd5b50610b59612aaf565b604051808273ffffffffffffffffffffffffffffffffffffffff16815260200191505060405180910390f35b348015610b9157600080fd5b50610b9a612ac7565b604051808273ffffffffffffffffffffffffffffffffffffffff16815260200191505060405180910390f35b348015610bd257600080fd5b50610bdb612adf565b604051808273ffffffffffffffffffffffffffffffffffffffff16815260200191505060405180910390f35b348015610c1357600080fd5b50610c5660048036036020811015610c2a57600080fd5b81019080803573ffffffffffffffffffffffffffffffffffffffff169060200190929190505050612af7565b005b348015610c6457600080fd5b50610e4360048036036060811015610c7b57600080fd5b8101908080359060200190640100000000811115610c9857600080fd5b820183602082011115610caa57600080fd5b80359060200191846020830284011164010000000083111715610ccc57600080fd5b919080806020026020016040519081016040528093929190818152602001838360200280828437600081840152601f19601f82011690508083019250505050505050919291929080359060200190640100000000811115610d2c57600080fd5b820183602082011115610d3e57600080fd5b80359060200191846020830284011164010000000083111715610d6057600080fd5b919080806020026020016040519081016040528093929190818152602001838360200280828437600081840152601f19601f82011690508083019250505050505050919291929080359060200190640100000000811115610dc057600080fd5b820183602082011115610dd257600080fd5b80359060200191846020830284011164010000000083111715610df457600080fd5b919080806020026020016040519081016040528093929190818152602001838360200280828437600081840152601f19601f820116905080830192505050505050509192919290505050612bfc565b005b348015610e5157600080fd5b50610e5a612c5f565b604051808273ffffffffffffffffffffffffffffffffffffffff16815260200191505060405180910390f35b348015610e9257600080fd5b50610f5360048036036040811015610ea957600080fd5b810190808035906020019092919080359060200190640100000000811115610ed057600080fd5b820183602082011115610ee257600080fd5b80359060200191846020830284011164010000000083111715610f0457600080fd5b919080806020026020016040519081016040528093929190818152602001838360200280828437600081840152601f19601f820116905080830192505050505050509192919290505050612c77565b005b348015610f6157600080fd5b50610f6a612fdd565b604051808273ffffffffffffffffffffffffffffffffffffffff16815260200191505060405180910390f35b348015610fa257600080fd5b50611097600480360360a0811015610fb957600080fd5b81019080803590602001909291908035906020019092919080359060200190640100000000811115610fea57600080fd5b820183602082011115610ffc57600080fd5b8035906020019184602083028401116401000000008311171561101e57600080fd5b919080806020026020016040519081016040528093929190818152602001838360200280828437600081840152601f19601f820116905080830192505050505050509192919290803573ffffffffffffffffffffffffffffffffffffffff16906020019092919080359060200190929190505050612ff5565b005b3480156110a557600080fd5b506110ae6131ff565b604051808273ffffffffffffffffffffffffffffffffffffffff16815260200191505060405180910390f35b3480156110e657600080fd5b506110ef613217565b604051808273ffffffffffffffffffffffffffffffffffffffff16815260200191505060405180910390f35b34801561112757600080fd5b506112866004803603608081101561113e57600080fd5b810190808035906020019064010000000081111561115b57600080fd5b82018360208201111561116d57600080fd5b8035906020019184602083028401116401000000008311171561118f57600080fd5b919080806020026020016040519081016040528093929190818152602001838360200280828437600081840152601f19601f820116905080830192505050505050509192919290803590602001906401000000008111156111ef57600080fd5b82018360208201111561120157600080fd5b8035906020019184602083028401116401000000008311171561122357600080fd5b919080806020026020016040519081016040528093929190818152602001838360200280828437600081840152601f19601f820116905080830192505050505050509192919290803590602001909291908035906020019092919050505061322f565b005b34801561129457600080fd5b506112f7600480360360408110156112ab57600080fd5b81019080803573ffffffffffffffffffffffffffffffffffffffff169060200190929190803573ffffffffffffffffffffffffffffffffffffffff1690602001909291905050506135eb565b005b34801561130557600080fd5b5061130e6136a1565b604051808273ffffffffffffffffffffffffffffffffffffffff16815260200191505060405180910390f35b34801561134657600080fd5b506113896004803603602081101561135d57600080fd5b81019080803573ffffffffffffffffffffffffffffffffffffffff1690602001909291905050506136b9565b6040518082815260200191505060405180910390f35b3480156113ab57600080fd5b506113b4613702565b604051808273ffffffffffffffffffffffffffffffffffffffff16815260200191505060405180910390f35b3480156113ec57600080fd5b506113f561371a565b604051808273ffffffffffffffffffffffffffffffffffffffff16815260200191505060405180910390f35b34801561142d57600080fd5b50611436613732565b6040518082815260200191505060405180910390f35b34801561145857600080fd5b50611461613738565b604051808273ffffffffffffffffffffffffffffffffffffffff16815260200191505060405180910390f35b34801561149957600080fd5b506114a2613750565b604051808273ffffffffffffffffffffffffffffffffffffffff16815260200191505060405180910390f35b3480156114da57600080fd5b506114e3613768565b604051808273ffffffffffffffffffffffffffffffffffffffff16815260200191505060405180910390f35b34801561151b57600080fd5b5061161c6004803603608081101561153257600080fd5b8101908080359060200190929190803573ffffffffffffffffffffffffffffffffffffffff169060200190929190803573ffffffffffffffffffffffffffffffffffffffff1690602001909291908035906020019064010000000081111561159957600080fd5b8201836020820111156115ab57600080fd5b803590602001918460208302840111640100000000831117156115cd57600080fd5b919080806020026020016040519081016040528093929190818152602001838360200280828437600081840152601f19601f820116905080830192505050505050509192919290505050613780565b005b34801561162a57600080fd5b506116576004803603602081101561164157600080fd5b81019080803590602001909291905050506137d7565b005b34801561166557600080fd5b5061166e613821565b604051808273ffffffffffffffffffffffffffffffffffffffff16815260200191505060405180910390f35b3480156116a657600080fd5b506116af613839565b604051808273ffffffffffffffffffffffffffffffffffffffff16815260200191505060405180910390f35b3480156116e757600080fd5b506116f0613851565b604051808273ffffffffffffffffffffffffffffffffffffffff16815260200191505060405180910390f35b34801561172857600080fd5b5061176b6004803603602081101561173f57600080fd5b81019080803573ffffffffffffffffffffffffffffffffffffffff169060200190929190505050613869565b6040518082815260200191505060405180910390f35b34801561178d57600080fd5b506117f0600480360360408110156117a457600080fd5b81019080803573ffffffffffffffffffffffffffffffffffffffff169060200190929190803573ffffffffffffffffffffffffffffffffffffffff169060200190929190505050613881565b6040518082815260200191505060405180910390f35b34801561181257600080fd5b5061181b613932565b604051808273ffffffffffffffffffffffffffffffffffffffff16815260200191505060405180910390f35b6000808273ffffffffffffffffffffffffffffffffffffffff1663313ce5676040518163ffffffff1660e01b815260040160206040518083038186803b15801561189057600080fd5b505afa1580156118a4573d6000803e3d6000fd5b505050506040513d60208110156118ba57600080fd5b810190808051906020019092919050505060ff16905061196a60028201600a0a61195c6119446000808873ffffffffffffffffffffffffffffffffffffffff1673ffffffffffffffffffffffffffffffffffffffff16815260200190815260200160002060009054906101000a900473ffffffffffffffffffffffffffffffffffffffff16611a54565b61194e8730613881565b61395890919063ffffffff16565b6139de90919063ffffffff16565b915050919050565b732170ed0880ac9a755fd29b2688956bd959f933f881565b61199481836135eb565b60006119a08230613881565b90508173ffffffffffffffffffffffffffffffffffffffff1663a9059cbb84836040518363ffffffff1660e01b8152600401808373ffffffffffffffffffffffffffffffffffffffff16815260200182815260200192505050602060405180830381600087803b158015611a1357600080fd5b505af1158015611a27573d6000803e3d6000fd5b505050506040513d6020811015611a3d57600080fd5b810190808051906020019092919050505050505050565b6000806000806000808673ffffffffffffffffffffffffffffffffffffffff1663feaf968c6040518163ffffffff1660e01b815260040160a06040518083038186803b158015611aa357600080fd5b505afa158015611ab7573d6000803e3d6000fd5b505050506040513d60a0811015611acd57600080fd5b810190808051906020019092919080519060200190929190805190602001909291908051906020019092919080519060200190929190505050945094509450945094508395505050505050919050565b731b02da8cb0d097eb8d57a175b88c7d8b4799750681565b8273ffffffffffffffffffffffffffffffffffffffff1663095ea7b383836040518363ffffffff1660e01b8152600401808373ffffffffffffffffffffffffffffffffffffffff16815260200182815260200192505050602060405180830381600087803b158015611ba657600080fd5b505af1158015611bba573d6000803e3d6000fd5b505050506040513d6020811015611bd057600080fd5b810190808051906020019092919050505050505050565b60008290508073ffffffffffffffffffffffffffffffffffffffff166323b872dd8330876040518463ffffffff1660e01b8152600401808473ffffffffffffffffffffffffffffffffffffffff1681526020018373ffffffffffffffffffffffffffffffffffffffff1681526020018281526020019350505050602060405180830381600087803b158015611c7b57600080fd5b505af1158015611c8f573d6000803e3d6000fd5b505050506040513d6020811015611ca557600080fd5b81019080805190602001909291905050505050505050565b60005b8151811015612078576000611d16600154611d08611cf1868681518110611ce357fe5b602002602001015130613881565b611cfa886136b9565b61395890919063ffffffff16565b6139de90919063ffffffff16565b9050611d49838381518110611d2757fe5b602002602001015173cf0febd3f17cef5b47b0cd257acf6025c5bff3b76135eb565b73bb4cdb9cbd36b01bd1cbaebf2de08d9173bc095c73ffffffffffffffffffffffffffffffffffffffff16838381518110611d8057fe5b602002602001015173ffffffffffffffffffffffffffffffffffffffff161415611edb576060600267ffffffffffffffff81118015611dbe57600080fd5b50604051908082528060200260200182016040528015611ded5781602001602082028036833780820191505090505b509050838381518110611dfc57fe5b602002602001015181600081518110611e1157fe5b602002602001019073ffffffffffffffffffffffffffffffffffffffff16908173ffffffffffffffffffffffffffffffffffffffff1681525050738ac76a51cc950d9822d68b83fe1ad97b32cd580d81600181518110611e6d57fe5b602002602001019073ffffffffffffffffffffffffffffffffffffffff16908173ffffffffffffffffffffffffffffffffffffffff1681525050611ed582600083307fffffffffffffffffffffffffffffffffffffffffffffffffffffffffffffffff612ff5565b5061206a565b6060600367ffffffffffffffff81118015611ef557600080fd5b50604051908082528060200260200182016040528015611f245781602001602082028036833780820191505090505b509050838381518110611f3357fe5b602002602001015181600081518110611f4857fe5b602002602001019073ffffffffffffffffffffffffffffffffffffffff16908173ffffffffffffffffffffffffffffffffffffffff168152505073bb4cdb9cbd36b01bd1cbaebf2de08d9173bc095c81600181518110611fa457fe5b602002602001019073ffffffffffffffffffffffffffffffffffffffff16908173ffffffffffffffffffffffffffffffffffffffff1681525050738ac76a51cc950d9822d68b83fe1ad97b32cd580d8160028151811061200057fe5b602002602001019073ffffffffffffffffffffffffffffffffffffffff16908173ffffffffffffffffffffffffffffffffffffffff168152505061206882600083307fffffffffffffffffffffffffffffffffffffffffffffffffffffffffffffffff612ff5565b505b508080600101915050611cc0565b50612097738ac76a51cc950d9822d68b83fe1ad97b32cd580d836135eb565b60006120b7738ac76a51cc950d9822d68b83fe1ad97b32cd580d30613881565b9050738ac76a51cc950d9822d68b83fe1ad97b32cd580d73ffffffffffffffffffffffffffffffffffffffff1663a9059cbb84836040518363ffffffff1660e01b8152600401808373ffffffffffffffffffffffffffffffffffffffff16815260200182815260200192505050602060405180830381600087803b15801561213e57600080fd5b505af1158015612152573d6000803e3d6000fd5b505050506040513d602081101561216857600080fd5b8101908080519060200190929190505050506121838361287d565b505050565b60008390508073ffffffffffffffffffffffffffffffffffffffff166323b872dd8430886040518463ffffffff1660e01b8152600401808473ffffffffffffffffffffffffffffffffffffffff1681526020018373ffffffffffffffffffffffffffffffffffffffff1681526020018281526020019350505050602060405180830381600087803b15801561221c57600080fd5b505af1158015612230573d6000803e3d6000fd5b505050506040513d602081101561224657600080fd5b81019080805190602001909291905050505061228b738ac76a51cc950d9822d68b83fe1ad97b32cd580d73cf0febd3f17cef5b47b0cd257acf6025c5bff3b787611b35565b60006060835167ffffffffffffffff811180156122a757600080fd5b506040519080825280602002602001820160405280156122d65781602001602082028036833780820191505090505b50905060005b845181101561234e576123018582815181106122f457fe5b6020026020010151611847565b82828151811061230d57fe5b60200260200101818152505061233f82828151811061232857fe5b602002602001015184613a6790919063ffffffff16565b925080806001019150506122dc565b506000821115612374576123648482848a61322f565b61236f8583896126f2565b612388565b61237e8785612c77565b61238785612a59565b5b50505050505050565b6123b08373cf0febd3f17cef5b47b0cd257acf6025c5bff3b783611b35565b73bb4cdb9cbd36b01bd1cbaebf2de08d9173bc095c73ffffffffffffffffffffffffffffffffffffffff168373ffffffffffffffffffffffffffffffffffffffff16148061243d575073bb4cdb9cbd36b01bd1cbaebf2de08d9173bc095c73ffffffffffffffffffffffffffffffffffffffff168273ffffffffffffffffffffffffffffffffffffffff16145b15612552576060600267ffffffffffffffff8111801561245c57600080fd5b5060405190808252806020026020018201604052801561248b5781602001602082028036833780820191505090505b509050838160008151811061249c57fe5b602002602001019073ffffffffffffffffffffffffffffffffffffffff16908173ffffffffffffffffffffffffffffffffffffffff168152505082816001815181106124e457fe5b602002602001019073ffffffffffffffffffffffffffffffffffffffff16908173ffffffffffffffffffffffffffffffffffffffff168152505061254c82600083307fffffffffffffffffffffffffffffffffffffffffffffffffffffffffffffffff612ff5565b506126ba565b6060600367ffffffffffffffff8111801561256c57600080fd5b5060405190808252806020026020018201604052801561259b5781602001602082028036833780820191505090505b50905083816000815181106125ac57fe5b602002602001019073ffffffffffffffffffffffffffffffffffffffff16908173ffffffffffffffffffffffffffffffffffffffff168152505073bb4cdb9cbd36b01bd1cbaebf2de08d9173bc095c8160018151811061260857fe5b602002602001019073ffffffffffffffffffffffffffffffffffffffff16908173ffffffffffffffffffffffffffffffffffffffff1681525050828160028151811061265057fe5b602002602001019073ffffffffffffffffffffffffffffffffffffffff16908173ffffffffffffffffffffffffffffffffffffffff16815250506126b882600083307fffffffffffffffffffffffffffffffffffffffffffffffffffffffffffffffff612ff5565b505b505050565b60006020528060005260406000206000915054906101000a900473ffffffffffffffffffffffffffffffffffffffff1681565b600061271b8361270d6001548561395890919063ffffffff16565b6139de90919063ffffffff16565b905061273281600154613a6790919063ffffffff16565b6001819055506000600260008673ffffffffffffffffffffffffffffffffffffffff1673ffffffffffffffffffffffffffffffffffffffff16815260200190815260200160002054111561281a576127d281600260008773ffffffffffffffffffffffffffffffffffffffff1673ffffffffffffffffffffffffffffffffffffffff16815260200190815260200160002054613a6790919063ffffffff16565b600260008673ffffffffffffffffffffffffffffffffffffffff1673ffffffffffffffffffffffffffffffffffffffff1681526020019081526020016000208190555061285f565b80600260008673ffffffffffffffffffffffffffffffffffffffff1673ffffffffffffffffffffffffffffffffffffffff168152602001908152602001600020819055505b50505050565b73ca236e327f629f9fc2c30a4e95775ebf0b89fac881565b6000600260008373ffffffffffffffffffffffffffffffffffffffff1673ffffffffffffffffffffffffffffffffffffffff1681526020019081526020016000205411612932576040517f08c379a000000000000000000000000000000000000000000000000000000000815260040180806020018281038252601f8152602001807f4572726f72202d2054686973207573657220686173206e6f207368617265730081525060200191505060405180910390fd5b600260008273ffffffffffffffffffffffffffffffffffffffff1673ffffffffffffffffffffffffffffffffffffffff168152602001908152602001600020546001600082825403925050819055506000600260008373ffffffffffffffffffffffffffffffffffffffff1673ffffffffffffffffffffffffffffffffffffffff1681526020019081526020016000208190555050565b733ee2200efb3400fabb9aacf31297cbdd1d435d4781565b731d2f0da169ceb9fc7b3144628db156f3f6c60dbe81565b733ab0a0d137d4f946fbb19eecc6e92e64660231c881565b7393a67d414896a280bf8ffb3b389fe3686e014fda81565b73ba2ae424d960c26247dd6c32edc70b295c744c4381565b737083609fce4d1d8dc0c979aab8c869ea2c87340281565b6305f5e100600260008373ffffffffffffffffffffffffffffffffffffffff1673ffffffffffffffffffffffffffffffffffffffff168152602001908152602001600020819055506305f5e10060018190555050565b73a767f745331d267c7751297d982b050c9398562781565b73bb4cdb9cbd36b01bd1cbaebf2de08d9173bc095c81565b739ef1b8c0e4f7dc8bf5719ea496883dc6401d5b2e81565b612b15738ac76a51cc950d9822d68b83fe1ad97b32cd580d826135eb565b6000612b35738ac76a51cc950d9822d68b83fe1ad97b32cd580d30613881565b9050738ac76a51cc950d9822d68b83fe1ad97b32cd580d73ffffffffffffffffffffffffffffffffffffffff1663a9059cbb83836040518363ffffffff1660e01b8152600401808373ffffffffffffffffffffffffffffffffffffffff16815260200182815260200192505050602060405180830381600087803b158015612bbc57600080fd5b505af1158015612bd0573d6000803e3d6000fd5b505050506040513d6020811015612be657600080fd5b8101908080519060200190929190505050505050565b60005b8351811015612c5957612c4c848281518110612c1757fe5b6020026020010151848381518110612c2b57fe5b6020026020010151848481518110612c3f57fe5b6020026020010151612391565b8080600101915050612bff565b50505050565b737130d2a12b9bcbfae4f2634d864a1ee1ce3ead9c81565b60005b8151811015612fd85773bb4cdb9cbd36b01bd1cbaebf2de08d9173bc095c73ffffffffffffffffffffffffffffffffffffffff16828281518110612cba57fe5b602002602001015173ffffffffffffffffffffffffffffffffffffffff161415612e29576060600267ffffffffffffffff81118015612cf857600080fd5b50604051908082528060200260200182016040528015612d275781602001602082028036833780820191505090505b509050738ac76a51cc950d9822d68b83fe1ad97b32cd580d81600081518110612d4c57fe5b602002602001019073ffffffffffffffffffffffffffffffffffffffff16908173ffffffffffffffffffffffffffffffffffffffff168152505073bb4cdb9cbd36b01bd1cbaebf2de08d9173bc095c81600181518110612da857fe5b602002602001019073ffffffffffffffffffffffffffffffffffffffff16908173ffffffffffffffffffffffffffffffffffffffff1681525050612e23612df98451866139de90919063ffffffff16565b600083307fffffffffffffffffffffffffffffffffffffffffffffffffffffffffffffffff612ff5565b50612fcb565b6060600367ffffffffffffffff81118015612e4357600080fd5b50604051908082528060200260200182016040528015612e725781602001602082028036833780820191505090505b509050738ac76a51cc950d9822d68b83fe1ad97b32cd580d81600081518110612e9757fe5b602002602001019073ffffffffffffffffffffffffffffffffffffffff16908173ffffffffffffffffffffffffffffffffffffffff168152505073bb4cdb9cbd36b01bd1cbaebf2de08d9173bc095c81600181518110612ef357fe5b602002602001019073ffffffffffffffffffffffffffffffffffffffff16908173ffffffffffffffffffffffffffffffffffffffff1681525050828281518110612f3957fe5b602002602001015181600281518110612f4e57fe5b602002602001019073ffffffffffffffffffffffffffffffffffffffff16908173ffffffffffffffffffffffffffffffffffffffff1681525050612fc9612f9f8451866139de90919063ffffffff16565b600083307fffffffffffffffffffffffffffffffffffffffffffffffffffffffffffffffff612ff5565b505b8080600101915050612c7a565b505050565b73cf0febd3f17cef5b47b0cd257acf6025c5bff3b781565b600360009054906101000a900473ffffffffffffffffffffffffffffffffffffffff1673ffffffffffffffffffffffffffffffffffffffff166338ed173986868686866040518663ffffffff1660e01b815260040180868152602001858152602001806020018473ffffffffffffffffffffffffffffffffffffffff168152602001838152602001828103825285818151815260200191508051906020019060200280838360005b838110156130b857808201518184015260208101905061309d565b505050509050019650505050505050600060405180830381600087803b1580156130e157600080fd5b505af19250505080156131af57506040513d6000823e3d601f19601f82011682018060405250602081101561311557600080fd5b810190808051604051939291908464010000000082111561313557600080fd5b8382019150602082018581111561314b57600080fd5b825186602082028301116401000000008211171561316857600080fd5b8083526020830192505050908051906020019060200280838360005b8381101561319f578082015181840152602081019050613184565b5050505090500160405250505060015b6131f6576131f16040518060400160405280600b81526020017f73776170206661696c6564000000000000000000000000000000000000000000815250613aef565b6131f8565b505b5050505050565b7374e72f37a8c415c8f1a98ed42e78ff997435791d81565b730567f2323251f0aab15c8dfb1967e4e8a7d42aee81565b60005b84518110156135e45773bb4cdb9cbd36b01bd1cbaebf2de08d9173bc095c73ffffffffffffffffffffffffffffffffffffffff1685828151811061327257fe5b602002602001015173ffffffffffffffffffffffffffffffffffffffff16141561340b576060600267ffffffffffffffff811180156132b057600080fd5b506040519080825280602002602001820160405280156132df5781602001602082028036833780820191505090505b509050738ac76a51cc950d9822d68b83fe1ad97b32cd580d8160008151811061330457fe5b602002602001019073ffffffffffffffffffffffffffffffffffffffff16908173ffffffffffffffffffffffffffffffffffffffff168152505073bb4cdb9cbd36b01bd1cbaebf2de08d9173bc095c8160018151811061336057fe5b602002602001019073ffffffffffffffffffffffffffffffffffffffff16908173ffffffffffffffffffffffffffffffffffffffff168152505060006133d4856133c6868987815181106133b057fe5b602002602001015161395890919063ffffffff16565b6139de90919063ffffffff16565b905061340481600084307fffffffffffffffffffffffffffffffffffffffffffffffffffffffffffffffff612ff5565b50506135d7565b6060600367ffffffffffffffff8111801561342557600080fd5b506040519080825280602002602001820160405280156134545781602001602082028036833780820191505090505b509050738ac76a51cc950d9822d68b83fe1ad97b32cd580d8160008151811061347957fe5b602002602001019073ffffffffffffffffffffffffffffffffffffffff16908173ffffffffffffffffffffffffffffffffffffffff168152505073bb4cdb9cbd36b01bd1cbaebf2de08d9173bc095c816001815181106134d557fe5b602002602001019073ffffffffffffffffffffffffffffffffffffffff16908173ffffffffffffffffffffffffffffffffffffffff168152505085828151811061351b57fe5b60200260200101518160028151811061353057fe5b602002602001019073ffffffffffffffffffffffffffffffffffffffff16908173ffffffffffffffffffffffffffffffffffffffff168152505060006135a4856135968689878151811061358057fe5b602002602001015161395890919063ffffffff16565b6139de90919063ffffffff16565b90506135d481600084307fffffffffffffffffffffffffffffffffffffffffffffffffffffffffffffffff612ff5565b50505b8080600101915050613232565b5050505050565b60008273ffffffffffffffffffffffffffffffffffffffff166370a08231306040518263ffffffff1660e01b8152600401808273ffffffffffffffffffffffffffffffffffffffff16815260200191505060206040518083038186803b15801561365457600080fd5b505afa158015613668573d6000803e3d6000fd5b505050506040513d602081101561367e57600080fd5b8101908080519060200190929190505050905061369c838383611b35565b505050565b73264990fbd0a4796a3e3d8e37c4d5f87a3aca5ebf81565b6000600260008373ffffffffffffffffffffffffffffffffffffffff1673ffffffffffffffffffffffffffffffffffffffff168152602001908152602001600020549050919050565b738ac76a51cc950d9822d68b83fe1ad97b32cd580d81565b734338665cbb7b2485a8855a139b75d5e34ab0db9481565b60015481565b73b57f259e7c24e56a1da00f66b55a5640d9f9e7e481565b73bf5140a22578168fd562dccf235e5d43a02ce9b181565b73570a5d26f7765ecb712c0924e4de545b89fd43df81565b61378b848484611be7565b6137be738ac76a51cc950d9822d68b83fe1ad97b32cd580d73cf0febd3f17cef5b47b0cd257acf6025c5bff3b786611b35565b6137c88482612c77565b6137d182612a59565b50505050565b3373ffffffffffffffffffffffffffffffffffffffff166108fc829081150290604051600060405180830381858888f1935050505015801561381d573d6000803e3d6000fd5b5050565b73c333eb0086309a16aa7c8308dfd32c8bba0a259281565b730e8a53dd9c13589df6382f13da6b3ec8f919b32381565b73f8a0bf9cf54bb92f17374d9e9a321e6a111a51bd81565b60026020528060005260406000206000915090505481565b6000808390508073ffffffffffffffffffffffffffffffffffffffff166370a08231846040518263ffffffff1660e01b8152600401808273ffffffffffffffffffffffffffffffffffffffff16815260200191505060206040518083038186803b1580156138ee57600080fd5b505afa158015613902573d6000803e3d6000fd5b505050506040513d602081101561391857600080fd5b810190808051906020019092919050505091505092915050565b600360009054906101000a900473ffffffffffffffffffffffffffffffffffffffff1681565b60008083141561396b57600090506139d8565b600082840290508284828161397c57fe5b04146139d3576040517f08c379a0000000000000000000000000000000000000000000000000000000008152600401808060200182810382526021815260200180613c176021913960400191505060405180910390fd5b809150505b92915050565b6000808211613a55576040517f08c379a000000000000000000000000000000000000000000000000000000000815260040180806020018281038252601a8152602001807f536166654d6174683a206469766973696f6e206279207a65726f00000000000081525060200191505060405180910390fd5b818381613a5e57fe5b04905092915050565b600080828401905083811015613ae5576040517f08c379a000000000000000000000000000000000000000000000000000000000815260040180806020018281038252601b8152602001807f536166654d6174683a206164646974696f6e206f766572666c6f77000000000081525060200191505060405180910390fd5b8091505092915050565b613bea816040516024018080602001828103825283818151815260200191508051906020019080838360005b83811015613b36578082015181840152602081019050613b1b565b50505050905090810190601f168015613b635780820380516001836020036101000a031916815260200191505b50925050506040516020818303038152906040527f41304fac000000000000000000000000000000000000000000000000000000007bffffffffffffffffffffffffffffffffffffffffffffffffffffffff19166020820180517bffffffffffffffffffffffffffffffffffffffffffffffffffffffff8381831617835250505050613bed565b50565b60008151905060006a636f6e736f6c652e6c6f679050602083016000808483855afa505050505056fe536166654d6174683a206d756c7469706c69636174696f6e206f766572666c6f77a2646970667358221220e53732250cfacd2e21c937af565b6d644c892d1311f019ba15b7d74a1c4b8ea164736f6c634300060c0033",
  "linkReferences": {},
  "deployedLinkReferences": {}
}