{
  "contractName": "bentoboxDapp",
  "abi": [
    {
      "inputs": [],
      "name": "BENTOBOX_MASTER_CONTRACT_ADDRESS",
      "outputs": [
        {
          "internalType": "address",
          "name": "",
          "type": "address"
        }
      ],
      "stateMutability": "view",
      "type": "function"
    },
    {
      "inputs": [],
      "name": "BTC_USD_ORACLE",
      "outputs": [
        {
          "internalType": "address",
          "name": "",
          "type": "address"
        }
      ],
      "stateMutability": "view",
      "type": "function"
    },
    {
      "inputs": [],
      "name": "BentoMasterContract",
      "outputs": [
        {
          "internalType": "contract IBentoBoxV1",
          "name": "",
          "type": "address"
        }
      ],
      "stateMutability": "view",
      "type": "function"
    },
    {
      "inputs": [],
      "name": "ETH_USD_ORACLE",
      "outputs": [
        {
          "internalType": "address",
          "name": "",
          "type": "address"
        }
      ],
      "stateMutability": "view",
      "type": "function"
    },
    {
      "inputs": [],
      "name": "MATIC_USD_ORACLE",
      "outputs": [
        {
          "internalType": "address",
          "name": "",
          "type": "address"
        }
      ],
      "stateMutability": "view",
      "type": "function"
    },
    {
      "inputs": [],
      "name": "SUSHISWAP_ROUTER",
      "outputs": [
        {
          "internalType": "address",
          "name": "",
          "type": "address"
        }
      ],
      "stateMutability": "view",
      "type": "function"
    },
    {
      "inputs": [
        {
          "internalType": "uint256",
          "name": "",
          "type": "uint256"
        }
      ],
      "name": "SUSHIToUSDCPath",
      "outputs": [
        {
          "internalType": "address",
          "name": "",
          "type": "address"
        }
      ],
      "stateMutability": "view",
      "type": "function"
    },
    {
      "inputs": [],
      "name": "SUSHI_ADDRESS",
      "outputs": [
        {
          "internalType": "address",
          "name": "",
          "type": "address"
        }
      ],
      "stateMutability": "view",
      "type": "function"
    },
    {
      "inputs": [],
      "name": "SUSHI_USD_ORACLE",
      "outputs": [
        {
          "internalType": "address",
          "name": "",
          "type": "address"
        }
      ],
      "stateMutability": "view",
      "type": "function"
    },
    {
      "inputs": [
        {
          "internalType": "uint256",
          "name": "",
          "type": "uint256"
        }
      ],
      "name": "USDCToSUSHIPath",
      "outputs": [
        {
          "internalType": "address",
          "name": "",
          "type": "address"
        }
      ],
      "stateMutability": "view",
      "type": "function"
    },
    {
      "inputs": [
        {
          "internalType": "uint256",
          "name": "",
          "type": "uint256"
        }
      ],
      "name": "USDCToWBTCPath",
      "outputs": [
        {
          "internalType": "address",
          "name": "",
          "type": "address"
        }
      ],
      "stateMutability": "view",
      "type": "function"
    },
    {
      "inputs": [
        {
          "internalType": "uint256",
          "name": "",
          "type": "uint256"
        }
      ],
      "name": "USDCToWETHPath",
      "outputs": [
        {
          "internalType": "address",
          "name": "",
          "type": "address"
        }
      ],
      "stateMutability": "view",
      "type": "function"
    },
    {
      "inputs": [
        {
          "internalType": "uint256",
          "name": "",
          "type": "uint256"
        }
      ],
      "name": "USDCToWMATICPath",
      "outputs": [
        {
          "internalType": "address",
          "name": "",
          "type": "address"
        }
      ],
      "stateMutability": "view",
      "type": "function"
    },
    {
      "inputs": [],
      "name": "USDC_ADDRESS",
      "outputs": [
        {
          "internalType": "address",
          "name": "",
          "type": "address"
        }
      ],
      "stateMutability": "view",
      "type": "function"
    },
    {
      "inputs": [
        {
          "internalType": "uint256",
          "name": "",
          "type": "uint256"
        }
      ],
      "name": "WBTCToUSDCPath",
      "outputs": [
        {
          "internalType": "address",
          "name": "",
          "type": "address"
        }
      ],
      "stateMutability": "view",
      "type": "function"
    },
    {
      "inputs": [],
      "name": "WBTC_ADDRESS",
      "outputs": [
        {
          "internalType": "address",
          "name": "",
          "type": "address"
        }
      ],
      "stateMutability": "view",
      "type": "function"
    },
    {
      "inputs": [
        {
          "internalType": "uint256",
          "name": "",
          "type": "uint256"
        }
      ],
      "name": "WETHToUSDCPath",
      "outputs": [
        {
          "internalType": "address",
          "name": "",
          "type": "address"
        }
      ],
      "stateMutability": "view",
      "type": "function"
    },
    {
      "inputs": [],
      "name": "WETH_ADDRESS",
      "outputs": [
        {
          "internalType": "address",
          "name": "",
          "type": "address"
        }
      ],
      "stateMutability": "view",
      "type": "function"
    },
    {
      "inputs": [
        {
          "internalType": "uint256",
          "name": "",
          "type": "uint256"
        }
      ],
      "name": "WMATICToUSDCPath",
      "outputs": [
        {
          "internalType": "address",
          "name": "",
          "type": "address"
        }
      ],
      "stateMutability": "view",
      "type": "function"
    },
    {
      "inputs": [],
      "name": "WMATIC_ADDRESS",
      "outputs": [
        {
          "internalType": "address",
          "name": "",
          "type": "address"
        }
      ],
      "stateMutability": "view",
      "type": "function"
    },
    {
      "inputs": [],
      "name": "sushiSwapRouter",
      "outputs": [
        {
          "internalType": "contract IUniswapV2Router02",
          "name": "",
          "type": "address"
        }
      ],
      "stateMutability": "view",
      "type": "function"
    },
    {
      "inputs": [],
      "name": "totalNumberOfShares",
      "outputs": [
        {
          "internalType": "uint256",
          "name": "",
          "type": "uint256"
        }
      ],
      "stateMutability": "view",
      "type": "function"
    },
    {
      "inputs": [
        {
          "internalType": "address",
          "name": "",
          "type": "address"
        }
      ],
      "name": "userNumberOfShares",
      "outputs": [
        {
          "internalType": "uint256",
          "name": "",
          "type": "uint256"
        }
      ],
      "stateMutability": "view",
      "type": "function"
    },
    {
      "stateMutability": "payable",
      "type": "receive"
    },
    {
      "inputs": [],
      "name": "registerProtocol",
      "outputs": [],
      "stateMutability": "nonpayable",
      "type": "function"
    },
    {
      "inputs": [
        {
          "internalType": "address",
          "name": "_oracle_address",
          "type": "address"
        }
      ],
      "name": "getLatestPrice",
      "outputs": [
        {
          "internalType": "int256",
          "name": "",
          "type": "int256"
        }
      ],
      "stateMutability": "view",
      "type": "function"
    },
    {
      "inputs": [
        {
          "internalType": "address",
          "name": "user",
          "type": "address"
        }
      ],
      "name": "updateSharesOnWithdrawal",
      "outputs": [],
      "stateMutability": "nonpayable",
      "type": "function"
    },
    {
      "inputs": [
        {
          "internalType": "address",
          "name": "user",
          "type": "address"
        }
      ],
      "name": "getUserShares",
      "outputs": [
        {
          "internalType": "uint256",
          "name": "userShares",
          "type": "uint256"
        }
      ],
      "stateMutability": "view",
      "type": "function"
    },
    {
      "inputs": [
        {
          "internalType": "address",
          "name": "token_address",
          "type": "address"
        },
        {
          "internalType": "address",
          "name": "spender_address",
          "type": "address"
        },
        {
          "internalType": "uint256",
          "name": "amount_to_approve",
          "type": "uint256"
        }
      ],
      "name": "approve_spending",
      "outputs": [],
      "stateMutability": "nonpayable",
      "type": "function"
    },
    {
      "inputs": [
        {
          "internalType": "uint256",
          "name": "amount_",
          "type": "uint256"
        },
        {
          "internalType": "address",
          "name": "token_address",
          "type": "address"
        },
        {
          "internalType": "address",
          "name": "address_from",
          "type": "address"
        },
        {
          "internalType": "address",
          "name": "address_to",
          "type": "address"
        }
      ],
      "name": "depositToBento",
      "outputs": [],
      "stateMutability": "nonpayable",
      "type": "function"
    },
    {
      "inputs": [
        {
          "internalType": "uint256",
          "name": "amount_",
          "type": "uint256"
        },
        {
          "internalType": "address",
          "name": "token_address",
          "type": "address"
        },
        {
          "internalType": "address",
          "name": "address_from",
          "type": "address"
        },
        {
          "internalType": "address",
          "name": "address_to",
          "type": "address"
        }
      ],
      "name": "depositUserFunds",
      "outputs": [],
      "stateMutability": "nonpayable",
      "type": "function"
    },
    {
      "inputs": [
        {
          "internalType": "address",
          "name": "token_address",
          "type": "address"
        },
        {
          "internalType": "address",
          "name": "oracle_address",
          "type": "address"
        },
        {
          "internalType": "uint256",
          "name": "token_decimals",
          "type": "uint256"
        }
      ],
      "name": "getUSDBentoTokenBalanceOf",
      "outputs": [
        {
          "internalType": "uint256",
          "name": "",
          "type": "uint256"
        }
      ],
      "stateMutability": "view",
      "type": "function"
    },
    {
      "inputs": [
        {
          "internalType": "uint256",
          "name": "WMATIC_amount",
          "type": "uint256"
        },
        {
          "internalType": "uint256",
          "name": "SUSHI_amount",
          "type": "uint256"
        },
        {
          "internalType": "uint256",
          "name": "WETH_amount",
          "type": "uint256"
        },
        {
          "internalType": "uint256",
          "name": "WBTC_amount",
          "type": "uint256"
        },
        {
          "internalType": "uint256",
          "name": "totalUSDAmount",
          "type": "uint256"
        },
        {
          "internalType": "uint256",
          "name": "depositAmount",
          "type": "uint256"
        }
      ],
      "name": "swapProportionately",
      "outputs": [],
      "stateMutability": "nonpayable",
      "type": "function"
    },
    {
      "inputs": [
        {
          "internalType": "uint256",
          "name": "amount",
          "type": "uint256"
        }
      ],
      "name": "swapIntoFourEqualParts",
      "outputs": [],
      "stateMutability": "nonpayable",
      "type": "function"
    },
    {
      "inputs": [],
      "name": "depositAllFourTokensBackToBento",
      "outputs": [],
      "stateMutability": "nonpayable",
      "type": "function"
    },
    {
      "inputs": [
        {
          "internalType": "address",
          "name": "user",
          "type": "address"
        }
      ],
      "name": "setSharesFirstTime",
      "outputs": [],
      "stateMutability": "nonpayable",
      "type": "function"
    },
    {
      "inputs": [
        {
          "internalType": "address",
          "name": "user",
          "type": "address"
        },
        {
          "internalType": "uint256",
          "name": "total_in_USD",
          "type": "uint256"
        },
        {
          "internalType": "uint256",
          "name": "deposit_amount",
          "type": "uint256"
        }
      ],
      "name": "updateSharesOnDeposit",
      "outputs": [],
      "stateMutability": "nonpayable",
      "type": "function"
    },
    {
      "inputs": [
        {
          "internalType": "address",
          "name": "token_address",
          "type": "address"
        },
        {
          "internalType": "address",
          "name": "address_from",
          "type": "address"
        },
        {
          "internalType": "address",
          "name": "address_to",
          "type": "address"
        }
      ],
      "name": "depositTokenBalanceToBento",
      "outputs": [],
      "stateMutability": "nonpayable",
      "type": "function"
    },
    {
      "inputs": [
        {
          "internalType": "address",
          "name": "user",
          "type": "address"
        }
      ],
      "name": "withdrawUserFunds",
      "outputs": [],
      "stateMutability": "nonpayable",
      "type": "function"
    },
    {
      "inputs": [
        {
          "internalType": "uint256",
          "name": "_WMATIC_amount",
          "type": "uint256"
        },
        {
          "internalType": "uint256",
          "name": "_SUSHI_amount",
          "type": "uint256"
        },
        {
          "internalType": "uint256",
          "name": "_WETH_amount",
          "type": "uint256"
        },
        {
          "internalType": "uint256",
          "name": "_WBTC_amount",
          "type": "uint256"
        }
      ],
      "name": "withdrawAllFourTokensFromBento",
      "outputs": [],
      "stateMutability": "nonpayable",
      "type": "function"
    },
    {
      "inputs": [
        {
          "internalType": "uint256",
          "name": "amount_",
          "type": "uint256"
        },
        {
          "internalType": "address",
          "name": "token_address",
          "type": "address"
        },
        {
          "internalType": "address",
          "name": "address_from",
          "type": "address"
        },
        {
          "internalType": "address",
          "name": "address_to",
          "type": "address"
        }
      ],
      "name": "withdraw",
      "outputs": [],
      "stateMutability": "nonpayable",
      "type": "function"
    },
    {
      "inputs": [
        {
          "internalType": "address",
          "name": "_token",
          "type": "address"
        },
        {
          "internalType": "address",
          "name": "_spender",
          "type": "address"
        }
      ],
      "name": "approveSpendingWholeBalance",
      "outputs": [],
      "stateMutability": "nonpayable",
      "type": "function"
    },
    {
      "inputs": [
        {
          "internalType": "address",
          "name": "_token",
          "type": "address"
        }
      ],
      "name": "swapWholeBalanceBackToUSDC",
      "outputs": [],
      "stateMutability": "nonpayable",
      "type": "function"
    },
    {
      "inputs": [
        {
          "internalType": "uint256",
          "name": "amount_",
          "type": "uint256"
        }
      ],
      "name": "withdraw_matic",
      "outputs": [],
      "stateMutability": "nonpayable",
      "type": "function"
    },
    {
      "inputs": [
        {
          "internalType": "address",
          "name": "token_address",
          "type": "address"
        },
        {
          "internalType": "uint256",
          "name": "_share",
          "type": "uint256"
        },
        {
          "internalType": "address",
          "name": "address_from",
          "type": "address"
        },
        {
          "internalType": "address",
          "name": "address_to",
          "type": "address"
        }
      ],
      "name": "transfer",
      "outputs": [],
      "stateMutability": "nonpayable",
      "type": "function"
    },
    {
      "inputs": [
        {
          "internalType": "address",
          "name": "token_address",
          "type": "address"
        },
        {
          "internalType": "address",
          "name": "user_address",
          "type": "address"
        }
      ],
      "name": "BentoTokenBalanceOf",
      "outputs": [
        {
          "internalType": "uint256",
          "name": "token_balance",
          "type": "uint256"
        }
      ],
      "stateMutability": "view",
      "type": "function"
    },
    {
      "inputs": [
        {
          "internalType": "uint256",
          "name": "_amountIn",
          "type": "uint256"
        },
        {
          "internalType": "uint256",
          "name": "_amountOutMin",
          "type": "uint256"
        },
        {
          "internalType": "address[]",
          "name": "_path",
          "type": "address[]"
        },
        {
          "internalType": "address",
          "name": "_acct",
          "type": "address"
        },
        {
          "internalType": "uint256",
          "name": "_deadline",
          "type": "uint256"
        }
      ],
      "name": "swap",
      "outputs": [],
      "stateMutability": "nonpayable",
      "type": "function"
    },
    {
      "inputs": [],
      "name": "rebalanceOne",
      "outputs": [],
      "stateMutability": "nonpayable",
      "type": "function"
    },
    {
      "inputs": [],
      "name": "rebalanceThree",
      "outputs": [],
      "stateMutability": "nonpayable",
      "type": "function"
    }
  ],
  "bytecode": "0x60806040526040518060400160405280732791bca1f2de4661ed88a30c99a7a9449aa8417473ffffffffffffffffffffffffffffffffffffffff1673ffffffffffffffffffffffffffffffffffffffff168152602001730d500b1d8e8ef31e21c99d1db9a6444d3adf127073ffffffffffffffffffffffffffffffffffffffff1673ffffffffffffffffffffffffffffffffffffffff168152506000906002620000ab92919062000602565b506040518060400160405280732791bca1f2de4661ed88a30c99a7a9449aa8417473ffffffffffffffffffffffffffffffffffffffff1673ffffffffffffffffffffffffffffffffffffffff168152602001730b3f868e0be5597d5db7feb59e1cadbb0fdda50a73ffffffffffffffffffffffffffffffffffffffff1673ffffffffffffffffffffffffffffffffffffffff1681525060019060026200015392919062000602565b506040518060400160405280732791bca1f2de4661ed88a30c99a7a9449aa8417473ffffffffffffffffffffffffffffffffffffffff1673ffffffffffffffffffffffffffffffffffffffff168152602001737ceb23fd6bc0add59e62ac25578270cff1b9f61973ffffffffffffffffffffffffffffffffffffffff1673ffffffffffffffffffffffffffffffffffffffff168152506002906002620001fb92919062000602565b506040518060400160405280732791bca1f2de4661ed88a30c99a7a9449aa8417473ffffffffffffffffffffffffffffffffffffffff1673ffffffffffffffffffffffffffffffffffffffff168152602001731bfd67037b42cf73acf2047067bd4f2c47d9bfd673ffffffffffffffffffffffffffffffffffffffff1673ffffffffffffffffffffffffffffffffffffffff168152506003906002620002a392919062000602565b506040518060400160405280730d500b1d8e8ef31e21c99d1db9a6444d3adf127073ffffffffffffffffffffffffffffffffffffffff1673ffffffffffffffffffffffffffffffffffffffff168152602001732791bca1f2de4661ed88a30c99a7a9449aa8417473ffffffffffffffffffffffffffffffffffffffff1673ffffffffffffffffffffffffffffffffffffffff1681525060049060026200034b92919062000602565b506040518060400160405280730b3f868e0be5597d5db7feb59e1cadbb0fdda50a73ffffffffffffffffffffffffffffffffffffffff1673ffffffffffffffffffffffffffffffffffffffff168152602001732791bca1f2de4661ed88a30c99a7a9449aa8417473ffffffffffffffffffffffffffffffffffffffff1673ffffffffffffffffffffffffffffffffffffffff168152506005906002620003f392919062000602565b506040518060400160405280737ceb23fd6bc0add59e62ac25578270cff1b9f61973ffffffffffffffffffffffffffffffffffffffff1673ffffffffffffffffffffffffffffffffffffffff168152602001732791bca1f2de4661ed88a30c99a7a9449aa8417473ffffffffffffffffffffffffffffffffffffffff1673ffffffffffffffffffffffffffffffffffffffff1681525060069060026200049b92919062000602565b506040518060400160405280731bfd67037b42cf73acf2047067bd4f2c47d9bfd673ffffffffffffffffffffffffffffffffffffffff1673ffffffffffffffffffffffffffffffffffffffff168152602001732791bca1f2de4661ed88a30c99a7a9449aa8417473ffffffffffffffffffffffffffffffffffffffff1673ffffffffffffffffffffffffffffffffffffffff1681525060079060026200054392919062000602565b50730319000133d3ada02600f0875d2cf03d442c3367600a60006101000a81548173ffffffffffffffffffffffffffffffffffffffff021916908373ffffffffffffffffffffffffffffffffffffffff160217905550731b02da8cb0d097eb8d57a175b88c7d8b47997506600b60006101000a81548173ffffffffffffffffffffffffffffffffffffffff021916908373ffffffffffffffffffffffffffffffffffffffff160217905550348015620005fb57600080fd5b50620006ce565b8280548282559060005260206000209081019282156200067e579160200282015b828111156200067d5782518260006101000a81548173ffffffffffffffffffffffffffffffffffffffff021916908373ffffffffffffffffffffffffffffffffffffffff1602179055509160200191906001019062000623565b5b5090506200068d919062000691565b5090565b5b80821115620006ca57600081816101000a81549073ffffffffffffffffffffffffffffffffffffffff02191690555060010162000692565b5090565b61398b80620006de6000396000f3fe6080604052600436106102975760003560e01c806395e413d81161015a578063cb3601b1116100c1578063e95d83281161007a578063e95d8328146111ef578063ec8def8414611230578063edc46f3d146112b5578063ef455bad146112f6578063f575e0481461135b578063fd829a23146113725761029e565b8063cb3601b114611051578063d48bbd64146110b6578063d58c5b0b146110cd578063d9155b111461110e578063e66c528f14611149578063e93ef21a1461118a5761029e565b8063b6e20a6a11610113578063b6e20a6a14610e99578063ba0cb22b14610eda578063bb09d9b714610f3f578063bdd5915f14610f80578063c3f5a30514610fc1578063ca97090514610fec5761029e565b806395e413d814610c6b578063a15c7d1014610cfa578063a226635714610d5f578063a6c4e46714610d76578063aa5a7aa314610e11578063aee4d1b214610e825761029e565b806344345f23116101fe57806369bc4388116101b757806369bc4388146109d9578063718176e514610a3e578063764f96f914610a7f57806388e42b0814610aec5780638db9f39a14610b2757806390f11e8414610b685761029e565b806344345f23146107c357806345ab6647146108285780634690738c14610881578063494df3a2146108d25780636583530f14610923578063681bcf13146109745761029e565b806324e2e7bb1161025057806324e2e7bb14610551578063277754ed146105a257806329a97ec2146105e357806335c67cd61461065e5780633f5b948b146106f9578063442509551461075e5761029e565b8063040141e5146102a35780630a51faba146102e45780630d36b76b14610325578063123b1154146103b657806316345f181461045157806323e103a8146104b65761029e565b3661029e57005b600080fd5b3480156102af57600080fd5b506102b86113b3565b604051808273ffffffffffffffffffffffffffffffffffffffff16815260200191505060405180910390f35b3480156102f057600080fd5b506102f96113cb565b604051808273ffffffffffffffffffffffffffffffffffffffff16815260200191505060405180910390f35b34801561033157600080fd5b506103b46004803603606081101561034857600080fd5b81019080803573ffffffffffffffffffffffffffffffffffffffff169060200190929190803573ffffffffffffffffffffffffffffffffffffffff169060200190929190803573ffffffffffffffffffffffffffffffffffffffff1690602001909291905050506113e3565b005b3480156103c257600080fd5b5061044f600480360360808110156103d957600080fd5b8101908080359060200190929190803573ffffffffffffffffffffffffffffffffffffffff169060200190929190803573ffffffffffffffffffffffffffffffffffffffff169060200190929190803573ffffffffffffffffffffffffffffffffffffffff1690602001909291905050506115b3565b005b34801561045d57600080fd5b506104a06004803603602081101561047457600080fd5b81019080803573ffffffffffffffffffffffffffffffffffffffff16906020019092919050505061188d565b6040518082815260200191505060405180910390f35b3480156104c257600080fd5b5061054f600480360360808110156104d957600080fd5b8101908080359060200190929190803573ffffffffffffffffffffffffffffffffffffffff169060200190929190803573ffffffffffffffffffffffffffffffffffffffff169060200190929190803573ffffffffffffffffffffffffffffffffffffffff169060200190929190505050611956565b005b34801561055d57600080fd5b506105a06004803603602081101561057457600080fd5b81019080803573ffffffffffffffffffffffffffffffffffffffff169060200190929190505050611a80565b005b3480156105ae57600080fd5b506105b7611e88565b604051808273ffffffffffffffffffffffffffffffffffffffff16815260200191505060405180910390f35b3480156105ef57600080fd5b5061065c6004803603606081101561060657600080fd5b81019080803573ffffffffffffffffffffffffffffffffffffffff169060200190929190803573ffffffffffffffffffffffffffffffffffffffff16906020019092919080359060200190929190505050611ea0565b005b34801561066a57600080fd5b506106f76004803603608081101561068157600080fd5b8101908080359060200190929190803573ffffffffffffffffffffffffffffffffffffffff169060200190929190803573ffffffffffffffffffffffffffffffffffffffff169060200190929190803573ffffffffffffffffffffffffffffffffffffffff169060200190929190505050611f52565b005b34801561070557600080fd5b506107326004803603602081101561071c57600080fd5b810190808035906020019092919050505061207c565b604051808273ffffffffffffffffffffffffffffffffffffffff16815260200191505060405180910390f35b34801561076a57600080fd5b506107c16004803603606081101561078157600080fd5b81019080803573ffffffffffffffffffffffffffffffffffffffff16906020019092919080359060200190929190803590602001909291905050506120b8565b005b3480156107cf57600080fd5b506107fc600480360360208110156107e657600080fd5b810190808035906020019092919050505061222b565b604051808273ffffffffffffffffffffffffffffffffffffffff16815260200191505060405180910390f35b34801561083457600080fd5b5061087f6004803603608081101561084b57600080fd5b8101908080359060200190929190803590602001909291908035906020019092919080359060200190929190505050612267565b005b34801561088d57600080fd5b506108d0600480360360208110156108a457600080fd5b81019080803573ffffffffffffffffffffffffffffffffffffffff1690602001909291905050506122ed565b005b3480156108de57600080fd5b50610921600480360360208110156108f557600080fd5b81019080803573ffffffffffffffffffffffffffffffffffffffff169060200190929190505050612439565b005b34801561092f57600080fd5b506109726004803603602081101561094657600080fd5b81019080803573ffffffffffffffffffffffffffffffffffffffff169060200190929190505050612602565b005b34801561098057600080fd5b506109ad6004803603602081101561099757600080fd5b8101908080359060200190929190505050612693565b604051808273ffffffffffffffffffffffffffffffffffffffff16815260200191505060405180910390f35b3480156109e557600080fd5b50610a12600480360360208110156109fc57600080fd5b81019080803590602001909291905050506126cf565b604051808273ffffffffffffffffffffffffffffffffffffffff16815260200191505060405180910390f35b348015610a4a57600080fd5b50610a5361270b565b604051808273ffffffffffffffffffffffffffffffffffffffff16815260200191505060405180910390f35b348015610a8b57600080fd5b50610aea600480360360c0811015610aa257600080fd5b81019080803590602001909291908035906020019092919080359060200190929190803590602001909291908035906020019092919080359060200190929190505050612723565b005b348015610af857600080fd5b50610b2560048036036020811015610b0f57600080fd5b8101908080359060200190929190505050612aa2565b005b348015610b3357600080fd5b50610b3c612dc0565b604051808273ffffffffffffffffffffffffffffffffffffffff16815260200191505060405180910390f35b348015610b7457600080fd5b50610c69600480360360a0811015610b8b57600080fd5b81019080803590602001909291908035906020019092919080359060200190640100000000811115610bbc57600080fd5b820183602082011115610bce57600080fd5b80359060200191846020830284011164010000000083111715610bf057600080fd5b919080806020026020016040519081016040528093929190818152602001838360200280828437600081840152601f19601f820116905080830192505050505050509192919290803573ffffffffffffffffffffffffffffffffffffffff16906020019092919080359060200190929190505050612dd8565b005b348015610c7757600080fd5b50610ce460048036036060811015610c8e57600080fd5b81019080803573ffffffffffffffffffffffffffffffffffffffff169060200190929190803573ffffffffffffffffffffffffffffffffffffffff16906020019092919080359060200190929190505050612fa1565b6040518082815260200191505060405180910390f35b348015610d0657600080fd5b50610d3360048036036020811015610d1d57600080fd5b8101908080359060200190929190505050612fe8565b604051808273ffffffffffffffffffffffffffffffffffffffff16815260200191505060405180910390f35b348015610d6b57600080fd5b50610d74613024565b005b348015610d8257600080fd5b50610e0f60048036036080811015610d9957600080fd5b81019080803573ffffffffffffffffffffffffffffffffffffffff16906020019092919080359060200190929190803573ffffffffffffffffffffffffffffffffffffffff169060200190929190803573ffffffffffffffffffffffffffffffffffffffff16906020019092919050505061319a565b005b348015610e1d57600080fd5b50610e8060048036036040811015610e3457600080fd5b81019080803573ffffffffffffffffffffffffffffffffffffffff169060200190929190803573ffffffffffffffffffffffffffffffffffffffff16906020019092919050505061328d565b005b348015610e8e57600080fd5b50610e97613343565b005b348015610ea557600080fd5b50610eae6133c7565b604051808273ffffffffffffffffffffffffffffffffffffffff16815260200191505060405180910390f35b348015610ee657600080fd5b50610f2960048036036020811015610efd57600080fd5b81019080803573ffffffffffffffffffffffffffffffffffffffff1690602001909291905050506133df565b6040518082815260200191505060405180910390f35b348015610f4b57600080fd5b50610f54613428565b604051808273ffffffffffffffffffffffffffffffffffffffff16815260200191505060405180910390f35b348015610f8c57600080fd5b50610f95613440565b604051808273ffffffffffffffffffffffffffffffffffffffff16815260200191505060405180910390f35b348015610fcd57600080fd5b50610fd6613458565b6040518082815260200191505060405180910390f35b348015610ff857600080fd5b506110256004803603602081101561100f57600080fd5b810190808035906020019092919050505061345e565b604051808273ffffffffffffffffffffffffffffffffffffffff16815260200191505060405180910390f35b34801561105d57600080fd5b5061108a6004803603602081101561107457600080fd5b810190808035906020019092919050505061349a565b604051808273ffffffffffffffffffffffffffffffffffffffff16815260200191505060405180910390f35b3480156110c257600080fd5b506110cb6134d6565b005b3480156110d957600080fd5b506110e2613570565b604051808273ffffffffffffffffffffffffffffffffffffffff16815260200191505060405180910390f35b34801561111a57600080fd5b506111476004803603602081101561113157600080fd5b8101908080359060200190929190505050613596565b005b34801561115557600080fd5b5061115e6135e0565b604051808273ffffffffffffffffffffffffffffffffffffffff16815260200191505060405180910390f35b34801561119657600080fd5b506111c3600480360360208110156111ad57600080fd5b81019080803590602001909291905050506135f8565b604051808273ffffffffffffffffffffffffffffffffffffffff16815260200191505060405180910390f35b3480156111fb57600080fd5b50611204613634565b604051808273ffffffffffffffffffffffffffffffffffffffff16815260200191505060405180910390f35b34801561123c57600080fd5b5061129f6004803603604081101561125357600080fd5b81019080803573ffffffffffffffffffffffffffffffffffffffff169060200190929190803573ffffffffffffffffffffffffffffffffffffffff16906020019092919050505061364c565b6040518082815260200191505060405180910390f35b3480156112c157600080fd5b506112ca61373d565b604051808273ffffffffffffffffffffffffffffffffffffffff16815260200191505060405180910390f35b34801561130257600080fd5b506113456004803603602081101561131957600080fd5b81019080803573ffffffffffffffffffffffffffffffffffffffff169060200190929190505050613755565b6040518082815260200191505060405180910390f35b34801561136757600080fd5b5061137061376d565b005b34801561137e57600080fd5b50611387613777565b604051808273ffffffffffffffffffffffffffffffffffffffff16815260200191505060405180910390f35b737ceb23fd6bc0add59e62ac25578270cff1b9f61981565b730b3f868e0be5597d5db7feb59e1cadbb0fdda50a81565b600083905060008173ffffffffffffffffffffffffffffffffffffffff166370a08231856040518263ffffffff1660e01b8152600401808273ffffffffffffffffffffffffffffffffffffffff16815260200191505060206040518083038186803b15801561145157600080fd5b505afa158015611465573d6000803e3d6000fd5b505050506040513d602081101561147b57600080fd5b81019080805190602001909291905050509050600a60009054906101000a900473ffffffffffffffffffffffffffffffffffffffff1673ffffffffffffffffffffffffffffffffffffffff166302b9446c8386868560006040518663ffffffff1660e01b8152600401808673ffffffffffffffffffffffffffffffffffffffff1681526020018573ffffffffffffffffffffffffffffffffffffffff1681526020018473ffffffffffffffffffffffffffffffffffffffff168152602001838152602001828152602001955050505050506040805180830381600087803b15801561156557600080fd5b505af1158015611579573d6000803e3d6000fd5b505050506040513d604081101561158f57600080fd5b81019080805190602001909291908051906020019092919050505050505050505050565b6000839050600a60009054906101000a900473ffffffffffffffffffffffffffffffffffffffff1673ffffffffffffffffffffffffffffffffffffffff166302b9446c8285858960006040518663ffffffff1660e01b8152600401808673ffffffffffffffffffffffffffffffffffffffff1681526020018573ffffffffffffffffffffffffffffffffffffffff1681526020018473ffffffffffffffffffffffffffffffffffffffff168152602001838152602001828152602001955050505050506040805180830381600087803b15801561168f57600080fd5b505af11580156116a3573d6000803e3d6000fd5b505050506040513d60408110156116b957600080fd5b81019080805190602001909291908051906020019092919050505050506116e285853030611956565b611715732791bca1f2de4661ed88a30c99a7a9449aa84174731b02da8cb0d097eb8d57a175b88c7d8b4799750687611ea0565b600061174b730d500b1d8e8ef31e21c99d1db9a6444d3adf127073ab594600376ec9fd91f8e885dadf0ce036862de06012612fa1565b90506000611783730b3f868e0be5597d5db7feb59e1cadbb0fdda50a7349b0c695039243bbfeb8ecd054eb70061fd54aa06012612fa1565b905060006117bb737ceb23fd6bc0add59e62ac25578270cff1b9f61973f9680d99d6c9589e2a93a78a04a279e5092059456012612fa1565b905060006117f3731bfd67037b42cf73acf2047067bd4f2c47d9bfd673c907e116054ad103354f2d350fd2514433d57f6f6008612fa1565b9050600061182e8261182085611812888a61379d90919063ffffffff16565b61379d90919063ffffffff16565b61379d90919063ffffffff16565b9050600081111561184c5761184785858585858f612723565b611856565b6118558a612aa2565b5b61185e613024565b60008111156118775761187288828c6120b8565b611881565b61188088612602565b5b50505050505050505050565b6000806000806000808673ffffffffffffffffffffffffffffffffffffffff1663feaf968c6040518163ffffffff1660e01b815260040160a06040518083038186803b1580156118dc57600080fd5b505afa1580156118f0573d6000803e3d6000fd5b505050506040513d60a081101561190657600080fd5b810190808051906020019092919080519060200190929190805190602001909291908051906020019092919080519060200190929190505050945094509450945094508395505050505050919050565b6000839050600a60009054906101000a900473ffffffffffffffffffffffffffffffffffffffff1673ffffffffffffffffffffffffffffffffffffffff166397da6d308285858960006040518663ffffffff1660e01b8152600401808673ffffffffffffffffffffffffffffffffffffffff1681526020018573ffffffffffffffffffffffffffffffffffffffff1681526020018473ffffffffffffffffffffffffffffffffffffffff168152602001838152602001828152602001955050505050506040805180830381600087803b158015611a3257600080fd5b505af1158015611a46573d6000803e3d6000fd5b505050506040513d6040811015611a5c57600080fd5b81019080805190602001909291908051906020019092919050505050505050505050565b6000611b05600854611af7611aa9730d500b1d8e8ef31e21c99d1db9a6444d3adf12703061364c565b600960008773ffffffffffffffffffffffffffffffffffffffff1673ffffffffffffffffffffffffffffffffffffffff1681526020019081526020016000205461382590919063ffffffff16565b6138ab90919063ffffffff16565b90506000611b8c600854611b7e611b30730b3f868e0be5597d5db7feb59e1cadbb0fdda50a3061364c565b600960008873ffffffffffffffffffffffffffffffffffffffff1673ffffffffffffffffffffffffffffffffffffffff1681526020019081526020016000205461382590919063ffffffff16565b6138ab90919063ffffffff16565b90506000611c13600854611c05611bb7737ceb23fd6bc0add59e62ac25578270cff1b9f6193061364c565b600960008973ffffffffffffffffffffffffffffffffffffffff1673ffffffffffffffffffffffffffffffffffffffff1681526020019081526020016000205461382590919063ffffffff16565b6138ab90919063ffffffff16565b90506000611c9a600854611c8c611c3e731bfd67037b42cf73acf2047067bd4f2c47d9bfd63061364c565b600960008a73ffffffffffffffffffffffffffffffffffffffff1673ffffffffffffffffffffffffffffffffffffffff1681526020019081526020016000205461382590919063ffffffff16565b6138ab90919063ffffffff16565b9050611ca884848484612267565b611cda730d500b1d8e8ef31e21c99d1db9a6444d3adf1270731b02da8cb0d097eb8d57a175b88c7d8b4799750661328d565b611d0c730b3f868e0be5597d5db7feb59e1cadbb0fdda50a731b02da8cb0d097eb8d57a175b88c7d8b4799750661328d565b611d3e737ceb23fd6bc0add59e62ac25578270cff1b9f619731b02da8cb0d097eb8d57a175b88c7d8b4799750661328d565b611d70731bfd67037b42cf73acf2047067bd4f2c47d9bfd6731b02da8cb0d097eb8d57a175b88c7d8b4799750661328d565b611d8d730d500b1d8e8ef31e21c99d1db9a6444d3adf1270612439565b611daa730b3f868e0be5597d5db7feb59e1cadbb0fdda50a612439565b611dc7737ceb23fd6bc0add59e62ac25578270cff1b9f619612439565b611de4731bfd67037b42cf73acf2047067bd4f2c47d9bfd6612439565b611e16732791bca1f2de4661ed88a30c99a7a9449aa84174730319000133d3ada02600f0875d2cf03d442c336761328d565b611e35732791bca1f2de4661ed88a30c99a7a9449aa8417430306113e3565b6000611e55732791bca1f2de4661ed88a30c99a7a9449aa841743061364c565b9050611e7781732791bca1f2de4661ed88a30c99a7a9449aa841743089611956565b611e80866122ed565b505050505050565b731b02da8cb0d097eb8d57a175b88c7d8b4799750681565b8273ffffffffffffffffffffffffffffffffffffffff1663095ea7b383836040518363ffffffff1660e01b8152600401808373ffffffffffffffffffffffffffffffffffffffff16815260200182815260200192505050602060405180830381600087803b158015611f1157600080fd5b505af1158015611f25573d6000803e3d6000fd5b505050506040513d6020811015611f3b57600080fd5b810190808051906020019092919050505050505050565b6000839050600a60009054906101000a900473ffffffffffffffffffffffffffffffffffffffff1673ffffffffffffffffffffffffffffffffffffffff166302b9446c8285858960006040518663ffffffff1660e01b8152600401808673ffffffffffffffffffffffffffffffffffffffff1681526020018573ffffffffffffffffffffffffffffffffffffffff1681526020018473ffffffffffffffffffffffffffffffffffffffff168152602001838152602001828152602001955050505050506040805180830381600087803b15801561202e57600080fd5b505af1158015612042573d6000803e3d6000fd5b505050506040513d604081101561205857600080fd5b81019080805190602001909291908051906020019092919050505050505050505050565b6005818154811061208957fe5b906000526020600020016000915054906101000a900473ffffffffffffffffffffffffffffffffffffffff1681565b60006120e1836120d36008548561382590919063ffffffff16565b6138ab90919063ffffffff16565b90506120f88160085461379d90919063ffffffff16565b6008819055506000600960008673ffffffffffffffffffffffffffffffffffffffff1673ffffffffffffffffffffffffffffffffffffffff1681526020019081526020016000205411156121e05761219881600960008773ffffffffffffffffffffffffffffffffffffffff1673ffffffffffffffffffffffffffffffffffffffff1681526020019081526020016000205461379d90919063ffffffff16565b600960008673ffffffffffffffffffffffffffffffffffffffff1673ffffffffffffffffffffffffffffffffffffffff16815260200190815260200160002081905550612225565b80600960008673ffffffffffffffffffffffffffffffffffffffff1673ffffffffffffffffffffffffffffffffffffffff168152602001908152602001600020819055505b50505050565b6006818154811061223857fe5b906000526020600020016000915054906101000a900473ffffffffffffffffffffffffffffffffffffffff1681565b61228784730d500b1d8e8ef31e21c99d1db9a6444d3adf12703030611956565b6122a783730b3f868e0be5597d5db7feb59e1cadbb0fdda50a3030611956565b6122c782737ceb23fd6bc0add59e62ac25578270cff1b9f6193030611956565b6122e781731bfd67037b42cf73acf2047067bd4f2c47d9bfd63030611956565b50505050565b6000600960008373ffffffffffffffffffffffffffffffffffffffff1673ffffffffffffffffffffffffffffffffffffffff16815260200190815260200160002054116123a2576040517f08c379a000000000000000000000000000000000000000000000000000000000815260040180806020018281038252601f8152602001807f4572726f72202d2054686973207573657220686173206e6f207368617265730081525060200191505060405180910390fd5b600960008273ffffffffffffffffffffffffffffffffffffffff1673ffffffffffffffffffffffffffffffffffffffff168152602001908152602001600020546008600082825403925050819055506000600960008373ffffffffffffffffffffffffffffffffffffffff1673ffffffffffffffffffffffffffffffffffffffff1681526020019081526020016000208190555050565b60008173ffffffffffffffffffffffffffffffffffffffff166370a08231306040518263ffffffff1660e01b8152600401808273ffffffffffffffffffffffffffffffffffffffff16815260200191505060206040518083038186803b1580156124a257600080fd5b505afa1580156124b6573d6000803e3d6000fd5b505050506040513d60208110156124cc57600080fd5b810190808051906020019092919050505090506060600267ffffffffffffffff811180156124f957600080fd5b506040519080825280602002602001820160405280156125285781602001602082028036833780820191505090505b509050828160008151811061253957fe5b602002602001019073ffffffffffffffffffffffffffffffffffffffff16908173ffffffffffffffffffffffffffffffffffffffff1681525050732791bca1f2de4661ed88a30c99a7a9449aa841748160018151811061259557fe5b602002602001019073ffffffffffffffffffffffffffffffffffffffff16908173ffffffffffffffffffffffffffffffffffffffff16815250506125fd82600083307fffffffffffffffffffffffffffffffffffffffffffffffffffffffffffffffff612dd8565b505050565b6305f5e100600960008373ffffffffffffffffffffffffffffffffffffffff1673ffffffffffffffffffffffffffffffffffffffff16815260200190815260200160002081905550600960008273ffffffffffffffffffffffffffffffffffffffff1673ffffffffffffffffffffffffffffffffffffffff1681526020019081526020016000205460088190555050565b600481815481106126a057fe5b906000526020600020016000915054906101000a900473ffffffffffffffffffffffffffffffffffffffff1681565b600081815481106126dc57fe5b906000526020600020016000915054906101000a900473ffffffffffffffffffffffffffffffffffffffff1681565b73f9680d99d6c9589e2a93a78a04a279e50920594581565b600061274a8361273c848a61382590919063ffffffff16565b6138ab90919063ffffffff16565b9050600061277384612765858a61382590919063ffffffff16565b6138ab90919063ffffffff16565b9050600061279c8561278e868a61382590919063ffffffff16565b6138ab90919063ffffffff16565b905060006127c5866127b7878a61382590919063ffffffff16565b6138ab90919063ffffffff16565b905061287a8460008080548060200260200160405190810160405280929190818152602001828054801561284e57602002820191906000526020600020905b8160009054906101000a900473ffffffffffffffffffffffffffffffffffffffff1673ffffffffffffffffffffffffffffffffffffffff1681526020019060010190808311612804575b5050505050307fffffffffffffffffffffffffffffffffffffffffffffffffffffffffffffffff612dd8565b61292e836000600180548060200260200160405190810160405280929190818152602001828054801561290257602002820191906000526020600020905b8160009054906101000a900473ffffffffffffffffffffffffffffffffffffffff1673ffffffffffffffffffffffffffffffffffffffff16815260200190600101908083116128b8575b5050505050307fffffffffffffffffffffffffffffffffffffffffffffffffffffffffffffffff612dd8565b6129e282600060028054806020026020016040519081016040528092919081815260200182805480156129b657602002820191906000526020600020905b8160009054906101000a900473ffffffffffffffffffffffffffffffffffffffff1673ffffffffffffffffffffffffffffffffffffffff168152602001906001019080831161296c575b5050505050307fffffffffffffffffffffffffffffffffffffffffffffffffffffffffffffffff612dd8565b612a968160006003805480602002602001604051908101604052809291908181526020018280548015612a6a57602002820191906000526020600020905b8160009054906101000a900473ffffffffffffffffffffffffffffffffffffffff1673ffffffffffffffffffffffffffffffffffffffff1681526020019060010190808311612a20575b5050505050307fffffffffffffffffffffffffffffffffffffffffffffffffffffffffffffffff612dd8565b50505050505050505050565b612b68612ab96004836138ab90919063ffffffff16565b600080805480602002602001604051908101604052809291908181526020018280548015612b3c57602002820191906000526020600020905b8160009054906101000a900473ffffffffffffffffffffffffffffffffffffffff1673ffffffffffffffffffffffffffffffffffffffff1681526020019060010190808311612af2575b5050505050307fffffffffffffffffffffffffffffffffffffffffffffffffffffffffffffffff612dd8565b612c2f612b7f6004836138ab90919063ffffffff16565b60006001805480602002602001604051908101604052809291908181526020018280548015612c0357602002820191906000526020600020905b8160009054906101000a900473ffffffffffffffffffffffffffffffffffffffff1673ffffffffffffffffffffffffffffffffffffffff1681526020019060010190808311612bb9575b5050505050307fffffffffffffffffffffffffffffffffffffffffffffffffffffffffffffffff612dd8565b612cf6612c466004836138ab90919063ffffffff16565b60006002805480602002602001604051908101604052809291908181526020018280548015612cca57602002820191906000526020600020905b8160009054906101000a900473ffffffffffffffffffffffffffffffffffffffff1673ffffffffffffffffffffffffffffffffffffffff1681526020019060010190808311612c80575b5050505050307fffffffffffffffffffffffffffffffffffffffffffffffffffffffffffffffff612dd8565b612dbd612d0d6004836138ab90919063ffffffff16565b60006003805480602002602001604051908101604052809291908181526020018280548015612d9157602002820191906000526020600020905b8160009054906101000a900473ffffffffffffffffffffffffffffffffffffffff1673ffffffffffffffffffffffffffffffffffffffff1681526020019060010190808311612d47575b5050505050307fffffffffffffffffffffffffffffffffffffffffffffffffffffffffffffffff612dd8565b50565b73ab594600376ec9fd91f8e885dadf0ce036862de081565b600b60009054906101000a900473ffffffffffffffffffffffffffffffffffffffff1673ffffffffffffffffffffffffffffffffffffffff166338ed173986868686866040518663ffffffff1660e01b815260040180868152602001858152602001806020018473ffffffffffffffffffffffffffffffffffffffff168152602001838152602001828103825285818151815260200191508051906020019060200280838360005b83811015612e9b578082015181840152602081019050612e80565b505050509050019650505050505050600060405180830381600087803b158015612ec457600080fd5b505af1158015612ed8573d6000803e3d6000fd5b505050506040513d6000823e3d601f19601f820116820180604052506020811015612f0257600080fd5b8101908080516040519392919084640100000000821115612f2257600080fd5b83820191506020820185811115612f3857600080fd5b8251866020820283011164010000000082111715612f5557600080fd5b8083526020830192505050908051906020019060200280838360005b83811015612f8c578082015181840152602081019050612f71565b50505050905001604052505050505050505050565b6000612fdf60028301600a0a612fd1612fb98661188d565b612fc3883061364c565b61382590919063ffffffff16565b6138ab90919063ffffffff16565b90509392505050565b60038181548110612ff557fe5b906000526020600020016000915054906101000a900473ffffffffffffffffffffffffffffffffffffffff1681565b613062730d500b1d8e8ef31e21c99d1db9a6444d3adf1270730319000133d3ada02600f0875d2cf03d442c33676a0845951614014849ffffff611ea0565b613081730d500b1d8e8ef31e21c99d1db9a6444d3adf127030306113e3565b6130bf730b3f868e0be5597d5db7feb59e1cadbb0fdda50a730319000133d3ada02600f0875d2cf03d442c33676a0845951614014849ffffff611ea0565b6130de730b3f868e0be5597d5db7feb59e1cadbb0fdda50a30306113e3565b61311c737ceb23fd6bc0add59e62ac25578270cff1b9f619730319000133d3ada02600f0875d2cf03d442c33676a0845951614014849ffffff611ea0565b61313b737ceb23fd6bc0add59e62ac25578270cff1b9f61930306113e3565b613179731bfd67037b42cf73acf2047067bd4f2c47d9bfd6730319000133d3ada02600f0875d2cf03d442c33676a0845951614014849ffffff611ea0565b613198731bfd67037b42cf73acf2047067bd4f2c47d9bfd630306113e3565b565b6000849050600a60009054906101000a900473ffffffffffffffffffffffffffffffffffffffff1673ffffffffffffffffffffffffffffffffffffffff1663f18d03cc828585886040518563ffffffff1660e01b8152600401808573ffffffffffffffffffffffffffffffffffffffff1681526020018473ffffffffffffffffffffffffffffffffffffffff1681526020018373ffffffffffffffffffffffffffffffffffffffff168152602001828152602001945050505050600060405180830381600087803b15801561326e57600080fd5b505af1158015613282573d6000803e3d6000fd5b505050505050505050565b60008273ffffffffffffffffffffffffffffffffffffffff166370a08231306040518263ffffffff1660e01b8152600401808273ffffffffffffffffffffffffffffffffffffffff16815260200191505060206040518083038186803b1580156132f657600080fd5b505afa15801561330a573d6000803e3d6000fd5b505050506040513d602081101561332057600080fd5b8101908080519060200190929190505050905061333e838383611ea0565b505050565b600a60009054906101000a900473ffffffffffffffffffffffffffffffffffffffff1673ffffffffffffffffffffffffffffffffffffffff1663aee4d1b26040518163ffffffff1660e01b8152600401600060405180830381600087803b1580156133ad57600080fd5b505af11580156133c1573d6000803e3d6000fd5b50505050565b73c907e116054ad103354f2d350fd2514433d57f6f81565b6000600960008373ffffffffffffffffffffffffffffffffffffffff1673ffffffffffffffffffffffffffffffffffffffff168152602001908152602001600020549050919050565b732791bca1f2de4661ed88a30c99a7a9449aa8417481565b731bfd67037b42cf73acf2047067bd4f2c47d9bfd681565b60085481565b6007818154811061346b57fe5b906000526020600020016000915054906101000a900473ffffffffffffffffffffffffffffffffffffffff1681565b600281815481106134a757fe5b906000526020600020016000915054906101000a900473ffffffffffffffffffffffffffffffffffffffff1681565b60006134f6730d500b1d8e8ef31e21c99d1db9a6444d3adf12703061364c565b90506000613518730b3f868e0be5597d5db7feb59e1cadbb0fdda50a3061364c565b9050600061353a737ceb23fd6bc0add59e62ac25578270cff1b9f6193061364c565b9050600061355c731bfd67037b42cf73acf2047067bd4f2c47d9bfd63061364c565b905061356a84848484612267565b50505050565b600a60009054906101000a900473ffffffffffffffffffffffffffffffffffffffff1681565b3373ffffffffffffffffffffffffffffffffffffffff166108fc829081150290604051600060405180830381858888f193505050501580156135dc573d6000803e3d6000fd5b5050565b7349b0c695039243bbfeb8ecd054eb70061fd54aa081565b6001818154811061360557fe5b906000526020600020016000915054906101000a900473ffffffffffffffffffffffffffffffffffffffff1681565b730d500b1d8e8ef31e21c99d1db9a6444d3adf127081565b600080839050600a60009054906101000a900473ffffffffffffffffffffffffffffffffffffffff1673ffffffffffffffffffffffffffffffffffffffff1663f7888aec82856040518363ffffffff1660e01b8152600401808373ffffffffffffffffffffffffffffffffffffffff1681526020018273ffffffffffffffffffffffffffffffffffffffff1681526020019250505060206040518083038186803b1580156136f957600080fd5b505afa15801561370d573d6000803e3d6000fd5b505050506040513d602081101561372357600080fd5b810190808051906020019092919050505091505092915050565b730319000133d3ada02600f0875d2cf03d442c336781565b60096020528060005260406000206000915090505481565b613775613024565b565b600b60009054906101000a900473ffffffffffffffffffffffffffffffffffffffff1681565b60008082840190508381101561381b576040517f08c379a000000000000000000000000000000000000000000000000000000000815260040180806020018281038252601b8152602001807f536166654d6174683a206164646974696f6e206f766572666c6f77000000000081525060200191505060405180910390fd5b8091505092915050565b60008083141561383857600090506138a5565b600082840290508284828161384957fe5b04146138a0576040517f08c379a00000000000000000000000000000000000000000000000000000000081526004018080602001828103825260218152602001806139356021913960400191505060405180910390fd5b809150505b92915050565b6000808211613922576040517f08c379a000000000000000000000000000000000000000000000000000000000815260040180806020018281038252601a8152602001807f536166654d6174683a206469766973696f6e206279207a65726f00000000000081525060200191505060405180910390fd5b81838161392b57fe5b0490509291505056fe536166654d6174683a206d756c7469706c69636174696f6e206f766572666c6f77a264697066735822122028a0e0f8330e1c73c7f07b2dcf53bcbe41467ecc7de736c8aa6dd9582501a6cc64736f6c634300060c0033",
  "immutableReferences": {},
  "source": "pragma solidity ^0.6.12;\n\n//import statements go here\nimport \"./interfaces/IBentoBoxV1.sol\";\nimport \"./interfaces/IUniswapV2Router02.sol\";\nimport \"./interfaces/IUniswapV2Router01.sol\";\nimport \"@openzeppelin/contracts/math/SafeMath.sol\";\nimport \"@chainlink/contracts/src/v0.6/interfaces/AggregatorV3Interface.sol\";\n\ncontract bentoboxDapp {\n    using SafeMath for uint256;\n\n    address public constant BENTOBOX_MASTER_CONTRACT_ADDRESS = 0x0319000133d3AdA02600f0875d2cf03D442C3367;\n\n    address public constant USDC_ADDRESS = 0x2791Bca1f2de4661ED88A30C99A7a9449Aa84174;\n    \n    address public constant WMATIC_ADDRESS = 0x0d500B1d8E8eF31E21C99d1Db9A6444d3ADf1270;\n    address public constant SUSHI_ADDRESS = 0x0b3F868E0BE5597D5DB7fEB59E1CADBb0fdDa50a;\n    address public constant WETH_ADDRESS = 0x7ceB23fD6bC0adD59E62ac25578270cFf1b9f619;\n    address public constant WBTC_ADDRESS = 0x1BFD67037B42Cf73acF2047067bd4F2C47D9BfD6;\n\n    address public constant MATIC_USD_ORACLE = 0xAB594600376Ec9fD91F8e885dADF0CE036862dE0;\n    address public constant BTC_USD_ORACLE = 0xc907E116054Ad103354f2D350FD2514433D57F6f;\n    address public constant ETH_USD_ORACLE = 0xF9680D99D6C9589e2a93a78A04A279e509205945;\n    address public constant SUSHI_USD_ORACLE = 0x49B0c695039243BBfEb8EcD054EB70061fd54aa0;\n\n    address[] public USDCToWMATICPath = [USDC_ADDRESS, WMATIC_ADDRESS];\n    address[] public USDCToSUSHIPath = [USDC_ADDRESS, SUSHI_ADDRESS];\n    address[] public USDCToWETHPath = [USDC_ADDRESS, WETH_ADDRESS];\n    address[] public USDCToWBTCPath = [USDC_ADDRESS, WBTC_ADDRESS];\n\n    address[] public WMATICToUSDCPath = [WMATIC_ADDRESS, USDC_ADDRESS];\n    address[] public SUSHIToUSDCPath = [SUSHI_ADDRESS, USDC_ADDRESS];\n    address[] public WETHToUSDCPath = [WETH_ADDRESS, USDC_ADDRESS];\n    address[] public WBTCToUSDCPath = [WBTC_ADDRESS, USDC_ADDRESS];\n\n    address public constant SUSHISWAP_ROUTER = 0x1b02dA8Cb0d097eB8D57A175b88c7D8b47997506;\n    \n    uint256 public totalNumberOfShares;\n    mapping(address => uint256) public userNumberOfShares; \n\n    IBentoBoxV1 public BentoMasterContract = IBentoBoxV1(BENTOBOX_MASTER_CONTRACT_ADDRESS);\n    IUniswapV2Router02 public sushiSwapRouter = IUniswapV2Router02(SUSHISWAP_ROUTER);\n    //more variables here\n    // constructor() autoBalancer public {\n    //     // BentoMasterContract = IBentoBoxV1(BENTOBOX_MASTER_CONTRACT_ADDRESS);\n    //     // BentoMasterContract.registerProtocol();\n    // } \n\n    function registerProtocol () public {\n        BentoMasterContract.registerProtocol();\n    }\n    \n    /**\n     * Returns the latest price\n     */\n    function getLatestPrice(address _oracle_address) public view returns (int) {\n        (\n            uint80 roundID, \n            int price,\n            uint startedAt,\n            uint timeStamp,\n            uint80 answeredInRound\n        ) = AggregatorV3Interface(_oracle_address).latestRoundData();\n        return price;\n    }\n\n    function updateSharesOnWithdrawal(address user) public { //make this ownable - only contract itself can update this?\n        require (userNumberOfShares[user] > 0, \"Error - This user has no shares\");\n        totalNumberOfShares -= userNumberOfShares[user];\n        userNumberOfShares[user] = 0;\n    }\n\n    function getUserShares(address user) public view returns (uint256 userShares) {\n        return userNumberOfShares[user];\n    }\n\n    function approve_spending (address token_address, address spender_address, uint256 amount_to_approve) public {\n            IERC20(token_address).approve(spender_address, amount_to_approve);\n    }\n    \n     receive() external payable {\n    }\n\n    function depositToBento (uint256 amount_, address token_address, address address_from, address address_to) public  {\n            IERC20 token_ = IERC20(token_address);\n\n            BentoMasterContract.deposit(\n            token_, //IERC20 token_ what is this? USDC contract address? no, I think it's the instantiation of an ERC20...\n            address_from, //from - this would be from the dapp\n            address_to, //to - this would be to bentobox?\n            amount_, //10USDC?\n            0 //leave blank I think...\n            );\n    }\n\n    function depositUserFunds (uint256 amount_, address token_address, address address_from, address address_to) public  {\n        IERC20 token_ = IERC20(token_address);\n\n        BentoMasterContract.deposit(\n        token_, //IERC20 token_ what is this? USDC contract address? no, I think it's the instantiation of an ERC20...\n        address_from, //from - this would be from the dapp\n        address_to, //to - this would be to bentobox?\n        amount_, //10USDC?\n        0 //leave blank I think...\n        );\n\n        withdraw(amount_, token_address, address(this), address(this));\n\n        approve_spending(USDC_ADDRESS, SUSHISWAP_ROUTER, amount_);\n\n        uint256 WMATIC_balanceInUSD = getUSDBentoTokenBalanceOf(WMATIC_ADDRESS, MATIC_USD_ORACLE, 18);\n        uint256 SUSHI_balanceInUSD = getUSDBentoTokenBalanceOf(SUSHI_ADDRESS, SUSHI_USD_ORACLE, 18);\n        uint256 WETH_balanceInUSD = getUSDBentoTokenBalanceOf(WETH_ADDRESS, ETH_USD_ORACLE, 18);\n        uint256 WBTC_balanceInUSD = getUSDBentoTokenBalanceOf(WBTC_ADDRESS, BTC_USD_ORACLE, 8);\n\n        uint256 Total_in_USD = WMATIC_balanceInUSD.add(SUSHI_balanceInUSD).add(WETH_balanceInUSD).add(WBTC_balanceInUSD);\n        \n        if (Total_in_USD > 0) {\n            swapProportionately(WMATIC_balanceInUSD, SUSHI_balanceInUSD, WETH_balanceInUSD, WBTC_balanceInUSD, Total_in_USD, amount_);\n        } else {\n            swapIntoFourEqualParts(amount_);\n        }\n        \n        depositAllFourTokensBackToBento();\n\n        if (Total_in_USD > 0) {\n            updateSharesOnDeposit(address_from, Total_in_USD, amount_);\n        } else {\n            setSharesFirstTime(address_from);\n        }\n    }\n\n    function getUSDBentoTokenBalanceOf(address token_address, address oracle_address, uint256 token_decimals) public view returns (uint256) {\n        // uint256 token_decimals = ERC20(token_address).decimals();\n        return BentoTokenBalanceOf(token_address, address(this))\n        .mul(uint256(getLatestPrice(oracle_address)))\n        .div(10**(token_decimals+2));\n    }\n\n    function swapProportionately(uint256 WMATIC_amount, uint256 SUSHI_amount, uint256 WETH_amount, uint256 WBTC_amount, uint256 totalUSDAmount, uint256 depositAmount) public {\n        uint256 WMATIC_share = WMATIC_amount.mul(depositAmount).div(totalUSDAmount); \n        uint256 SUSHI_share = SUSHI_amount.mul(depositAmount).div(totalUSDAmount);\n        uint256 WETH_share = WETH_amount.mul(depositAmount).div(totalUSDAmount);\n        uint256 WBTC_share = WBTC_amount.mul(depositAmount).div(totalUSDAmount);\n\n        swap(WMATIC_share, uint256(0), USDCToWMATICPath, address(this), uint256(-1));\n        swap(SUSHI_share, uint256(0), USDCToSUSHIPath, address(this), uint256(-1));\n        swap(WETH_share, uint256(0), USDCToWETHPath, address(this), uint256(-1));\n        swap(WBTC_share, uint256(0), USDCToWBTCPath, address(this), uint256(-1));\n    }\n\n    function swapIntoFourEqualParts(uint256 amount) public {\n        swap(amount.div(4), uint256(0), USDCToWMATICPath, address(this), uint256(-1));\n        swap(amount.div(4), uint256(0), USDCToSUSHIPath, address(this), uint256(-1));\n        swap(amount.div(4), uint256(0), USDCToWETHPath, address(this), uint256(-1));\n        swap(amount.div(4), uint256(0), USDCToWBTCPath, address(this), uint256(-1));\n    }\n\n    function depositAllFourTokensBackToBento() public {\n        approve_spending(WMATIC_ADDRESS, BENTOBOX_MASTER_CONTRACT_ADDRESS, 9999999999999999999999999);\n        depositTokenBalanceToBento(WMATIC_ADDRESS, address(this), address(this));\n        approve_spending(SUSHI_ADDRESS, BENTOBOX_MASTER_CONTRACT_ADDRESS, 9999999999999999999999999);\n        depositTokenBalanceToBento(SUSHI_ADDRESS, address(this), address(this));\n        approve_spending(WETH_ADDRESS, BENTOBOX_MASTER_CONTRACT_ADDRESS, 9999999999999999999999999);\n        depositTokenBalanceToBento(WETH_ADDRESS, address(this), address(this));\n        approve_spending(WBTC_ADDRESS, BENTOBOX_MASTER_CONTRACT_ADDRESS, 9999999999999999999999999);\n        depositTokenBalanceToBento(WBTC_ADDRESS, address(this), address(this));\n    }\n\n    function setSharesFirstTime(address user) public {\n        userNumberOfShares[user] = 100000000;\n        totalNumberOfShares = userNumberOfShares[user];\n    }\n\n    function updateSharesOnDeposit(address user, uint256 total_in_USD, uint256 deposit_amount) public { //make this ownable - only contract itself can update this?\n        uint256 newSharesForUser = deposit_amount.mul(totalNumberOfShares).div(total_in_USD);\n        totalNumberOfShares = totalNumberOfShares.add(newSharesForUser);\n        if (userNumberOfShares[user] > 0) {\n            userNumberOfShares[user] = userNumberOfShares[user].add(newSharesForUser);\n        } else {\n            userNumberOfShares[user] = newSharesForUser;\n        }\n    }\n\n    function depositTokenBalanceToBento (address token_address, address address_from, address address_to) public  {\n        IERC20 token_ = IERC20(token_address);\n        uint256 tokenBalance = token_.balanceOf(address_from);\n        \n        BentoMasterContract.deposit(\n        token_, //IERC20 token_ the instantiation of an ERC20...\n        address_from, //from - this would be from the dapp or the user\n        address_to, //to - this would be to bentobox\n        tokenBalance, //10USDC?\n        0 //leave blank I think...\n        );\n    }\n    function withdrawUserFunds(address user) public {\n        //do I need an approval here?\n\n        uint256 WMATIC_amount = userNumberOfShares[user].mul(BentoTokenBalanceOf(WMATIC_ADDRESS, address(this))).div(totalNumberOfShares);\n        uint256 SUSHI_amount = userNumberOfShares[user].mul(BentoTokenBalanceOf(SUSHI_ADDRESS, address(this))).div(totalNumberOfShares);\n        uint256 WETH_amount = userNumberOfShares[user].mul(BentoTokenBalanceOf(WETH_ADDRESS, address(this))).div(totalNumberOfShares);\n        uint256 WBTC_amount = userNumberOfShares[user].mul(BentoTokenBalanceOf(WBTC_ADDRESS, address(this))).div(totalNumberOfShares);\n\n        withdrawAllFourTokensFromBento(WMATIC_amount, SUSHI_amount, WETH_amount, WBTC_amount);\n\n        approveSpendingWholeBalance(WMATIC_ADDRESS, SUSHISWAP_ROUTER);\n        approveSpendingWholeBalance(SUSHI_ADDRESS, SUSHISWAP_ROUTER);\n        approveSpendingWholeBalance(WETH_ADDRESS, SUSHISWAP_ROUTER);\n        approveSpendingWholeBalance(WBTC_ADDRESS, SUSHISWAP_ROUTER);\n\n        swapWholeBalanceBackToUSDC(WMATIC_ADDRESS);\n        swapWholeBalanceBackToUSDC(SUSHI_ADDRESS);\n        swapWholeBalanceBackToUSDC(WETH_ADDRESS);\n        swapWholeBalanceBackToUSDC(WBTC_ADDRESS);\n\n        approveSpendingWholeBalance(USDC_ADDRESS, BENTOBOX_MASTER_CONTRACT_ADDRESS);\n        \n        depositTokenBalanceToBento(USDC_ADDRESS, address(this), address(this));\n\n        uint256 USDC_amount = BentoTokenBalanceOf(USDC_ADDRESS, address(this));\n        withdraw(USDC_amount, USDC_ADDRESS, address(this), user);\n\n        updateSharesOnWithdrawal(user);\n    }\n\n    function withdrawAllFourTokensFromBento(uint256 _WMATIC_amount, uint256 _SUSHI_amount, uint256 _WETH_amount, uint256 _WBTC_amount) public {\n        withdraw(_WMATIC_amount, WMATIC_ADDRESS, address(this), address(this));\n        withdraw(_SUSHI_amount, SUSHI_ADDRESS, address(this), address(this));\n        withdraw(_WETH_amount, WETH_ADDRESS, address(this), address(this));\n        withdraw(_WBTC_amount, WBTC_ADDRESS, address(this), address(this));\n    }\n\n    function withdraw(uint256 amount_, address token_address, address address_from, address address_to) public  {\n        IERC20 token_ = IERC20(token_address); //is this right?\n\n        BentoMasterContract.withdraw(\n        token_, \n        address_from, //address from - the bentobox master contract address??\n        address_to, //address to - the address of the dapp itself\n        amount_, //leave blank?\n        0 //uint256 share\n    );\n    }\n\n    function approveSpendingWholeBalance(address _token, address _spender) public {\n        uint256 tokenBalance = IERC20(_token).balanceOf(address(this));\n        approve_spending(_token, _spender, tokenBalance);\n    }\n\n    function swapWholeBalanceBackToUSDC(address _token) public {\n        uint256 tokenBalance = IERC20(_token).balanceOf(address(this));\n        address[] memory path = new address[](2);\n        path[0] = _token;\n        path[1] = USDC_ADDRESS;\n        swap(tokenBalance, uint256(0), path, address(this), uint256(-1));\n    }\n    \n    function withdraw_matic(uint256 amount_) public {\n        msg.sender.transfer(amount_);\n    }\n    \n    function transfer(address token_address, uint256 _share, address address_from, address address_to) public  {\n        IERC20 _token = IERC20(token_address);\n    // do I call this on bentomastercontract? I think so. But then it's the app making the call.\n    BentoMasterContract.transfer(\n        _token, //IERC20 token\n        address_from, //address from - a specified user address\n        address_to, //address to - the dapp itself receives the funds\n        _share //uint256 share\n        );\n    }\n\n    function BentoTokenBalanceOf(address token_address, address user_address) public view returns (uint256 token_balance) {\n        IERC20 _token = IERC20(token_address);\n        token_balance = BentoMasterContract.balanceOf(_token, user_address);\n        return token_balance;\n    }\n    \n    function swap(uint256 _amountIn, uint256 _amountOutMin, address[] memory _path, address _acct, uint256 _deadline) public {\n        \n       sushiSwapRouter.swapExactTokensForTokens(\n            _amountIn,\n            _amountOutMin,\n            _path,\n            _acct,\n            _deadline);\n        }\n\n    function rebalanceOne() public {\n        uint256 WMATIC_amount = BentoTokenBalanceOf(WMATIC_ADDRESS, address(this));\n        uint256 SUSHI_amount = BentoTokenBalanceOf(SUSHI_ADDRESS, address(this));\n        uint256 WETH_amount = BentoTokenBalanceOf(WETH_ADDRESS, address(this));\n        uint256 WBTC_amount = BentoTokenBalanceOf(WBTC_ADDRESS, address(this));\n\n        withdrawAllFourTokensFromBento(WMATIC_amount, SUSHI_amount, WETH_amount, WBTC_amount);\n        }\n\n    function rebalanceThree() public {\n        depositAllFourTokensBackToBento();\n        }\n        \n    }\n    \n\n    ",
  "sourcePath": "/Users/richardjamieson/Documents/GitHub/BentoBoxBalancer/contracts/bentoboxDapp.sol",
  "compiler": {
    "name": "solc",
    "version": "0.6.12+commit.27d51765.Emscripten.clang"
  },
  "schemaVersion": "3.3.4",
  "updatedAt": "2021-09-13T13:29:05.768Z",
  "devdoc": {
    "kind": "dev",
    "methods": {},
    "version": 1
  },
  "userdoc": {
    "kind": "user",
    "methods": {
      "getLatestPrice(address)": {
        "notice": "Returns the latest price"
      }
    },
    "version": 1
  }
}