{
  "contractName": "CryptoIndexBinance",
  "abi": [
    {
      "inputs": [],
      "stateMutability": "nonpayable",
      "type": "constructor"
    },
    {
      "inputs": [],
      "name": "ADA_ADDRESS",
      "outputs": [
        {
          "internalType": "address",
          "name": "",
          "type": "address"
        }
      ],
      "stateMutability": "view",
      "type": "function"
    },
    {
      "inputs": [],
      "name": "ADA_USD_ORACLE",
      "outputs": [
        {
          "internalType": "address",
          "name": "",
          "type": "address"
        }
      ],
      "stateMutability": "view",
      "type": "function"
    },
    {
      "inputs": [],
      "name": "BNB_ADDRESS",
      "outputs": [
        {
          "internalType": "address",
          "name": "",
          "type": "address"
        }
      ],
      "stateMutability": "view",
      "type": "function"
    },
    {
      "inputs": [],
      "name": "BNB_USD_ORACLE",
      "outputs": [
        {
          "internalType": "address",
          "name": "",
          "type": "address"
        }
      ],
      "stateMutability": "view",
      "type": "function"
    },
    {
      "inputs": [],
      "name": "BTCB_ADDRESS",
      "outputs": [
        {
          "internalType": "address",
          "name": "",
          "type": "address"
        }
      ],
      "stateMutability": "view",
      "type": "function"
    },
    {
      "inputs": [],
      "name": "BTC_USD_ORACLE",
      "outputs": [
        {
          "internalType": "address",
          "name": "",
          "type": "address"
        }
      ],
      "stateMutability": "view",
      "type": "function"
    },
    {
      "inputs": [],
      "name": "DOGE_ADDRESS",
      "outputs": [
        {
          "internalType": "address",
          "name": "",
          "type": "address"
        }
      ],
      "stateMutability": "view",
      "type": "function"
    },
    {
      "inputs": [],
      "name": "DOGE_USD_ORACLE",
      "outputs": [
        {
          "internalType": "address",
          "name": "",
          "type": "address"
        }
      ],
      "stateMutability": "view",
      "type": "function"
    },
    {
      "inputs": [],
      "name": "DOT_ADDRESS",
      "outputs": [
        {
          "internalType": "address",
          "name": "",
          "type": "address"
        }
      ],
      "stateMutability": "view",
      "type": "function"
    },
    {
      "inputs": [],
      "name": "DOT_USD_ORACLE",
      "outputs": [
        {
          "internalType": "address",
          "name": "",
          "type": "address"
        }
      ],
      "stateMutability": "view",
      "type": "function"
    },
    {
      "inputs": [],
      "name": "ETH_USD_ORACLE",
      "outputs": [
        {
          "internalType": "address",
          "name": "",
          "type": "address"
        }
      ],
      "stateMutability": "view",
      "type": "function"
    },
    {
      "inputs": [],
      "name": "LTC_ADDRESS",
      "outputs": [
        {
          "internalType": "address",
          "name": "",
          "type": "address"
        }
      ],
      "stateMutability": "view",
      "type": "function"
    },
    {
      "inputs": [],
      "name": "LTC_USD_ORACLE",
      "outputs": [
        {
          "internalType": "address",
          "name": "",
          "type": "address"
        }
      ],
      "stateMutability": "view",
      "type": "function"
    },
    {
      "inputs": [],
      "name": "SOL_ADDRESS",
      "outputs": [
        {
          "internalType": "address",
          "name": "",
          "type": "address"
        }
      ],
      "stateMutability": "view",
      "type": "function"
    },
    {
      "inputs": [],
      "name": "SOL_USD_ORACLE",
      "outputs": [
        {
          "internalType": "address",
          "name": "",
          "type": "address"
        }
      ],
      "stateMutability": "view",
      "type": "function"
    },
    {
      "inputs": [],
      "name": "SUSHISWAP_ROUTER",
      "outputs": [
        {
          "internalType": "address",
          "name": "",
          "type": "address"
        }
      ],
      "stateMutability": "view",
      "type": "function"
    },
    {
      "inputs": [],
      "name": "UNI_ADDRESS",
      "outputs": [
        {
          "internalType": "address",
          "name": "",
          "type": "address"
        }
      ],
      "stateMutability": "view",
      "type": "function"
    },
    {
      "inputs": [],
      "name": "UNI_USD_ORACLE",
      "outputs": [
        {
          "internalType": "address",
          "name": "",
          "type": "address"
        }
      ],
      "stateMutability": "view",
      "type": "function"
    },
    {
      "inputs": [],
      "name": "USDC_ADDRESS",
      "outputs": [
        {
          "internalType": "address",
          "name": "",
          "type": "address"
        }
      ],
      "stateMutability": "view",
      "type": "function"
    },
    {
      "inputs": [],
      "name": "WETH_ADDRESS",
      "outputs": [
        {
          "internalType": "address",
          "name": "",
          "type": "address"
        }
      ],
      "stateMutability": "view",
      "type": "function"
    },
    {
      "inputs": [],
      "name": "XRP_ADDRESS",
      "outputs": [
        {
          "internalType": "address",
          "name": "",
          "type": "address"
        }
      ],
      "stateMutability": "view",
      "type": "function"
    },
    {
      "inputs": [],
      "name": "XRP_USD_ORACLE",
      "outputs": [
        {
          "internalType": "address",
          "name": "",
          "type": "address"
        }
      ],
      "stateMutability": "view",
      "type": "function"
    },
    {
      "inputs": [],
      "name": "sushiSwapRouter",
      "outputs": [
        {
          "internalType": "contract IUniswapV2Router02",
          "name": "",
          "type": "address"
        }
      ],
      "stateMutability": "view",
      "type": "function"
    },
    {
      "inputs": [],
      "name": "totalNumberOfShares",
      "outputs": [
        {
          "internalType": "uint256",
          "name": "",
          "type": "uint256"
        }
      ],
      "stateMutability": "view",
      "type": "function"
    },
    {
      "inputs": [
        {
          "internalType": "address",
          "name": "",
          "type": "address"
        }
      ],
      "name": "userNumberOfShares",
      "outputs": [
        {
          "internalType": "uint256",
          "name": "",
          "type": "uint256"
        }
      ],
      "stateMutability": "view",
      "type": "function"
    },
    {
      "stateMutability": "payable",
      "type": "receive"
    },
    {
      "inputs": [
        {
          "internalType": "address",
          "name": "_oracle_address",
          "type": "address"
        }
      ],
      "name": "getLatestPrice",
      "outputs": [
        {
          "internalType": "int256",
          "name": "",
          "type": "int256"
        }
      ],
      "stateMutability": "view",
      "type": "function"
    },
    {
      "inputs": [
        {
          "internalType": "address",
          "name": "user",
          "type": "address"
        }
      ],
      "name": "updateSharesOnWithdrawal",
      "outputs": [],
      "stateMutability": "nonpayable",
      "type": "function"
    },
    {
      "inputs": [
        {
          "internalType": "address",
          "name": "user",
          "type": "address"
        }
      ],
      "name": "getUserShares",
      "outputs": [
        {
          "internalType": "uint256",
          "name": "userShares",
          "type": "uint256"
        }
      ],
      "stateMutability": "view",
      "type": "function"
    },
    {
      "inputs": [
        {
          "internalType": "address",
          "name": "token_address",
          "type": "address"
        },
        {
          "internalType": "address",
          "name": "spender_address",
          "type": "address"
        },
        {
          "internalType": "uint256",
          "name": "amount_to_approve",
          "type": "uint256"
        }
      ],
      "name": "approve_spending",
      "outputs": [],
      "stateMutability": "nonpayable",
      "type": "function"
    },
    {
      "inputs": [
        {
          "internalType": "uint256",
          "name": "_amount",
          "type": "uint256"
        },
        {
          "internalType": "address",
          "name": "token_address",
          "type": "address"
        },
        {
          "internalType": "address",
          "name": "address_from",
          "type": "address"
        }
      ],
      "name": "deposit",
      "outputs": [],
      "stateMutability": "nonpayable",
      "type": "function"
    },
    {
      "inputs": [
        {
          "internalType": "uint256",
          "name": "_amount",
          "type": "uint256"
        },
        {
          "internalType": "address",
          "name": "deposit_token_address",
          "type": "address"
        },
        {
          "internalType": "address",
          "name": "address_from",
          "type": "address"
        },
        {
          "internalType": "address[]",
          "name": "token_addresses",
          "type": "address[]"
        }
      ],
      "name": "depositFirstTime",
      "outputs": [],
      "stateMutability": "nonpayable",
      "type": "function"
    },
    {
      "inputs": [
        {
          "internalType": "uint256",
          "name": "amount_",
          "type": "uint256"
        },
        {
          "internalType": "address",
          "name": "token_address",
          "type": "address"
        },
        {
          "internalType": "address",
          "name": "address_from",
          "type": "address"
        },
        {
          "internalType": "address[]",
          "name": "token_addresses",
          "type": "address[]"
        }
      ],
      "name": "depositUserFunds",
      "outputs": [],
      "stateMutability": "nonpayable",
      "type": "function"
    },
    {
      "inputs": [
        {
          "internalType": "address",
          "name": "token_address",
          "type": "address"
        },
        {
          "internalType": "address",
          "name": "oracle_address",
          "type": "address"
        },
        {
          "internalType": "uint256",
          "name": "token_decimals",
          "type": "uint256"
        }
      ],
      "name": "getUSDBalanceOf",
      "outputs": [
        {
          "internalType": "uint256",
          "name": "",
          "type": "uint256"
        }
      ],
      "stateMutability": "view",
      "type": "function"
    },
    {
      "inputs": [
        {
          "internalType": "address[]",
          "name": "token_addresses",
          "type": "address[]"
        },
        {
          "internalType": "uint256[]",
          "name": "token_USD_balances",
          "type": "uint256[]"
        },
        {
          "internalType": "uint256",
          "name": "totalUSDAmount",
          "type": "uint256"
        },
        {
          "internalType": "uint256",
          "name": "depositAmount",
          "type": "uint256"
        }
      ],
      "name": "swapProportionately",
      "outputs": [],
      "stateMutability": "nonpayable",
      "type": "function"
    },
    {
      "inputs": [
        {
          "internalType": "uint256",
          "name": "amount",
          "type": "uint256"
        },
        {
          "internalType": "address[]",
          "name": "token_addresses",
          "type": "address[]"
        }
      ],
      "name": "swapIntoNEqualParts",
      "outputs": [],
      "stateMutability": "nonpayable",
      "type": "function"
    },
    {
      "inputs": [
        {
          "internalType": "address",
          "name": "user",
          "type": "address"
        }
      ],
      "name": "setSharesFirstTime",
      "outputs": [],
      "stateMutability": "nonpayable",
      "type": "function"
    },
    {
      "inputs": [
        {
          "internalType": "address",
          "name": "user",
          "type": "address"
        },
        {
          "internalType": "uint256",
          "name": "total_in_USD",
          "type": "uint256"
        },
        {
          "internalType": "uint256",
          "name": "deposit_amount",
          "type": "uint256"
        }
      ],
      "name": "updateSharesOnDeposit",
      "outputs": [],
      "stateMutability": "nonpayable",
      "type": "function"
    },
    {
      "inputs": [
        {
          "internalType": "address",
          "name": "user",
          "type": "address"
        },
        {
          "internalType": "address[]",
          "name": "token_addresses",
          "type": "address[]"
        }
      ],
      "name": "withdrawUserFunds",
      "outputs": [],
      "stateMutability": "nonpayable",
      "type": "function"
    },
    {
      "inputs": [
        {
          "internalType": "address",
          "name": "_token",
          "type": "address"
        },
        {
          "internalType": "address",
          "name": "_spender",
          "type": "address"
        }
      ],
      "name": "approveSpendingWholeBalance",
      "outputs": [],
      "stateMutability": "nonpayable",
      "type": "function"
    },
    {
      "inputs": [
        {
          "internalType": "uint256",
          "name": "amount_",
          "type": "uint256"
        }
      ],
      "name": "withdraw_matic",
      "outputs": [],
      "stateMutability": "nonpayable",
      "type": "function"
    },
    {
      "inputs": [
        {
          "internalType": "address",
          "name": "_user",
          "type": "address"
        }
      ],
      "name": "withdrawAllUSDC",
      "outputs": [],
      "stateMutability": "nonpayable",
      "type": "function"
    },
    {
      "inputs": [
        {
          "internalType": "address",
          "name": "_user",
          "type": "address"
        },
        {
          "internalType": "address",
          "name": "_token_address",
          "type": "address"
        }
      ],
      "name": "withdrawAll",
      "outputs": [],
      "stateMutability": "nonpayable",
      "type": "function"
    },
    {
      "inputs": [
        {
          "internalType": "address",
          "name": "token_address",
          "type": "address"
        },
        {
          "internalType": "address",
          "name": "user_address",
          "type": "address"
        }
      ],
      "name": "balanceOf",
      "outputs": [
        {
          "internalType": "uint256",
          "name": "token_balance",
          "type": "uint256"
        }
      ],
      "stateMutability": "view",
      "type": "function"
    },
    {
      "inputs": [
        {
          "internalType": "uint256",
          "name": "_amountIn",
          "type": "uint256"
        },
        {
          "internalType": "uint256",
          "name": "_amountOutMin",
          "type": "uint256"
        },
        {
          "internalType": "address[]",
          "name": "_path",
          "type": "address[]"
        },
        {
          "internalType": "address",
          "name": "_acct",
          "type": "address"
        },
        {
          "internalType": "uint256",
          "name": "_deadline",
          "type": "uint256"
        }
      ],
      "name": "swap",
      "outputs": [],
      "stateMutability": "nonpayable",
      "type": "function"
    }
  ],
  "bytecode": "0x6080604052731b02da8cb0d097eb8d57a175b88c7d8b47997506600360006101000a81548173ffffffffffffffffffffffffffffffffffffffff021916908373ffffffffffffffffffffffffffffffffffffffff16021790555034801561006557600080fd5b5073264990fbd0a4796a3e3d8e37c4d5f87a3aca5ebf600080737130d2a12b9bcbfae4f2634d864a1ee1ce3ead9c73ffffffffffffffffffffffffffffffffffffffff1673ffffffffffffffffffffffffffffffffffffffff16815260200190815260200160002060006101000a81548173ffffffffffffffffffffffffffffffffffffffff021916908373ffffffffffffffffffffffffffffffffffffffff160217905550739ef1b8c0e4f7dc8bf5719ea496883dc6401d5b2e600080732170ed0880ac9a755fd29b2688956bd959f933f873ffffffffffffffffffffffffffffffffffffffff1673ffffffffffffffffffffffffffffffffffffffff16815260200190815260200160002060006101000a81548173ffffffffffffffffffffffffffffffffffffffff021916908373ffffffffffffffffffffffffffffffffffffffff160217905550730567f2323251f0aab15c8dfb1967e4e8a7d42aee60008073bb4cdb9cbd36b01bd1cbaebf2de08d9173bc095c73ffffffffffffffffffffffffffffffffffffffff1673ffffffffffffffffffffffffffffffffffffffff16815260200190815260200160002060006101000a81548173ffffffffffffffffffffffffffffffffffffffff021916908373ffffffffffffffffffffffffffffffffffffffff16021790555073a767f745331d267c7751297d982b050c93985627600080733ee2200efb3400fabb9aacf31297cbdd1d435d4773ffffffffffffffffffffffffffffffffffffffff1673ffffffffffffffffffffffffffffffffffffffff16815260200190815260200160002060006101000a81548173ffffffffffffffffffffffffffffffffffffffff021916908373ffffffffffffffffffffffffffffffffffffffff1602179055507393a67d414896a280bf8ffb3b389fe3686e014fda600080731d2f0da169ceb9fc7b3144628db156f3f6c60dbe73ffffffffffffffffffffffffffffffffffffffff1673ffffffffffffffffffffffffffffffffffffffff16815260200190815260200160002060006101000a81548173ffffffffffffffffffffffffffffffffffffffff021916908373ffffffffffffffffffffffffffffffffffffffff160217905550730e8a53dd9c13589df6382f13da6b3ec8f919b32360008073570a5d26f7765ecb712c0924e4de545b89fd43df73ffffffffffffffffffffffffffffffffffffffff1673ffffffffffffffffffffffffffffffffffffffff16815260200190815260200160002060006101000a81548173ffffffffffffffffffffffffffffffffffffffff021916908373ffffffffffffffffffffffffffffffffffffffff16021790555073c333eb0086309a16aa7c8308dfd32c8bba0a2592600080737083609fce4d1d8dc0c979aab8c869ea2c87340273ffffffffffffffffffffffffffffffffffffffff1673ffffffffffffffffffffffffffffffffffffffff16815260200190815260200160002060006101000a81548173ffffffffffffffffffffffffffffffffffffffff021916908373ffffffffffffffffffffffffffffffffffffffff160217905550733ab0a0d137d4f946fbb19eecc6e92e64660231c860008073ba2ae424d960c26247dd6c32edc70b295c744c4373ffffffffffffffffffffffffffffffffffffffff1673ffffffffffffffffffffffffffffffffffffffff16815260200190815260200160002060006101000a81548173ffffffffffffffffffffffffffffffffffffffff021916908373ffffffffffffffffffffffffffffffffffffffff16021790555073b57f259e7c24e56a1da00f66b55a5640d9f9e7e460008073bf5140a22578168fd562dccf235e5d43a02ce9b173ffffffffffffffffffffffffffffffffffffffff1673ffffffffffffffffffffffffffffffffffffffff16815260200190815260200160002060006101000a81548173ffffffffffffffffffffffffffffffffffffffff021916908373ffffffffffffffffffffffffffffffffffffffff160217905550739dcf949bca2f4a8a62350e0065d18902ee87dca360008073eccf35f941ab67ffcaa9a1265c2ff88865caa00573ffffffffffffffffffffffffffffffffffffffff1673ffffffffffffffffffffffffffffffffffffffff16815260200190815260200160002060006101000a81548173ffffffffffffffffffffffffffffffffffffffff021916908373ffffffffffffffffffffffffffffffffffffffff160217905550612cd9806106e76000396000f3fe60806040526004361061026b5760003560e01c8063894d945311610144578063c3f5a305116100b6578063d9155b111161007a578063d9155b1114611281578063e0c7af9e146112bc578063e2a9f625146112fd578063ef455bad1461133e578063f7888aec146113a3578063fd829a231461142857610272565b8063c3f5a30514611084578063c458d13d146110af578063ca68970f146110f0578063d50fe87314611131578063d5942daf1461117257610272565b8063a565758511610108578063a565758514610d7e578063aa5a7aa314610eeb578063b6e20a6a14610f5c578063ba0cb22b14610f9d578063bb09d9b714611002578063bd6d4d7a1461104357610272565b8063894d945314610a9b57806390f11e8414610b6a5780639419118214610c6d5780639f7c607b14610cfc578063a16644b114610d3d57610272565b80634895e543116101dd5780636583530f116101a15780636583530f146108f55780636a9c069b1461094657806370de629f14610987578063718176e5146109c8578063747b5bf914610a09578063808c551f14610a5a57610272565b80634895e543146107b05780634c5c1807146107f15780634e11280e1461083257806358d1b302146108735780635b53a3af146108b457610272565b80632e2d29841161022f5780632e2d29841461044a57806330516cd5146104c557806335dd8a44146105aa57806344250955146106b95780634690738c1461071e57806346cd7d191461076f57610272565b8063040141e51461027757806309cae2c8146102b857806316345f1814610329578063277754ed1461038e57806329a97ec2146103cf57610272565b3661027257005b600080fd5b34801561028357600080fd5b5061028c611469565b604051808273ffffffffffffffffffffffffffffffffffffffff16815260200191505060405180910390f35b3480156102c457600080fd5b50610327600480360360408110156102db57600080fd5b81019080803573ffffffffffffffffffffffffffffffffffffffff169060200190929190803573ffffffffffffffffffffffffffffffffffffffff169060200190929190505050611481565b005b34801561033557600080fd5b506103786004803603602081101561034c57600080fd5b81019080803573ffffffffffffffffffffffffffffffffffffffff16906020019092919050505061154b565b6040518082815260200191505060405180910390f35b34801561039a57600080fd5b506103a3611614565b604051808273ffffffffffffffffffffffffffffffffffffffff16815260200191505060405180910390f35b3480156103db57600080fd5b50610448600480360360608110156103f257600080fd5b81019080803573ffffffffffffffffffffffffffffffffffffffff169060200190929190803573ffffffffffffffffffffffffffffffffffffffff1690602001909291908035906020019092919050505061162c565b005b34801561045657600080fd5b506104c36004803603606081101561046d57600080fd5b8101908080359060200190929190803573ffffffffffffffffffffffffffffffffffffffff169060200190929190803573ffffffffffffffffffffffffffffffffffffffff1690602001909291905050506116de565b005b3480156104d157600080fd5b506105a8600480360360408110156104e857600080fd5b81019080803573ffffffffffffffffffffffffffffffffffffffff1690602001909291908035906020019064010000000081111561052557600080fd5b82018360208201111561053757600080fd5b8035906020019184602083028401116401000000008311171561055957600080fd5b919080806020026020016040519081016040528093929190818152602001838360200280828437600081840152601f19601f8201169050808301925050505050505091929192905050506117b4565b005b3480156105b657600080fd5b506106b7600480360360808110156105cd57600080fd5b8101908080359060200190929190803573ffffffffffffffffffffffffffffffffffffffff169060200190929190803573ffffffffffffffffffffffffffffffffffffffff1690602001909291908035906020019064010000000081111561063457600080fd5b82018360208201111561064657600080fd5b8035906020019184602083028401116401000000008311171561066857600080fd5b919080806020026020016040519081016040528093929190818152602001838360200280828437600081840152601f19601f820116905080830192505050505050509192919290505050611a90565b005b3480156106c557600080fd5b5061071c600480360360608110156106dc57600080fd5b81019080803573ffffffffffffffffffffffffffffffffffffffff1690602001909291908035906020019092919080359060200190929190505050611d5a565b005b34801561072a57600080fd5b5061076d6004803603602081101561074157600080fd5b81019080803573ffffffffffffffffffffffffffffffffffffffff169060200190929190505050611ecd565b005b34801561077b57600080fd5b50610784612019565b604051808273ffffffffffffffffffffffffffffffffffffffff16815260200191505060405180910390f35b3480156107bc57600080fd5b506107c5612031565b604051808273ffffffffffffffffffffffffffffffffffffffff16815260200191505060405180910390f35b3480156107fd57600080fd5b50610806612049565b604051808273ffffffffffffffffffffffffffffffffffffffff16815260200191505060405180910390f35b34801561083e57600080fd5b50610847612061565b604051808273ffffffffffffffffffffffffffffffffffffffff16815260200191505060405180910390f35b34801561087f57600080fd5b50610888612079565b604051808273ffffffffffffffffffffffffffffffffffffffff16815260200191505060405180910390f35b3480156108c057600080fd5b506108c9612091565b604051808273ffffffffffffffffffffffffffffffffffffffff16815260200191505060405180910390f35b34801561090157600080fd5b506109446004803603602081101561091857600080fd5b81019080803573ffffffffffffffffffffffffffffffffffffffff1690602001909291905050506120a9565b005b34801561095257600080fd5b5061095b6120ff565b604051808273ffffffffffffffffffffffffffffffffffffffff16815260200191505060405180910390f35b34801561099357600080fd5b5061099c612117565b604051808273ffffffffffffffffffffffffffffffffffffffff16815260200191505060405180910390f35b3480156109d457600080fd5b506109dd61212f565b604051808273ffffffffffffffffffffffffffffffffffffffff16815260200191505060405180910390f35b348015610a1557600080fd5b50610a5860048036036020811015610a2c57600080fd5b81019080803573ffffffffffffffffffffffffffffffffffffffff169060200190929190505050612147565b005b348015610a6657600080fd5b50610a6f61224c565b604051808273ffffffffffffffffffffffffffffffffffffffff16815260200191505060405180910390f35b348015610aa757600080fd5b50610b6860048036036040811015610abe57600080fd5b810190808035906020019092919080359060200190640100000000811115610ae557600080fd5b820183602082011115610af757600080fd5b80359060200191846020830284011164010000000083111715610b1957600080fd5b919080806020026020016040519081016040528093929190818152602001838360200280828437600081840152601f19601f820116905080830192505050505050509192919290505050612264565b005b348015610b7657600080fd5b50610c6b600480360360a0811015610b8d57600080fd5b81019080803590602001909291908035906020019092919080359060200190640100000000811115610bbe57600080fd5b820183602082011115610bd057600080fd5b80359060200191846020830284011164010000000083111715610bf257600080fd5b919080806020026020016040519081016040528093929190818152602001838360200280828437600081840152601f19601f820116905080830192505050505050509192919290803573ffffffffffffffffffffffffffffffffffffffff169060200190929190803590602001909291905050506123c7565b005b348015610c7957600080fd5b50610ce660048036036060811015610c9057600080fd5b81019080803573ffffffffffffffffffffffffffffffffffffffff169060200190929190803573ffffffffffffffffffffffffffffffffffffffff16906020019092919080359060200190929190505050612590565b6040518082815260200191505060405180910390f35b348015610d0857600080fd5b50610d116125d7565b604051808273ffffffffffffffffffffffffffffffffffffffff16815260200191505060405180910390f35b348015610d4957600080fd5b50610d526125ef565b604051808273ffffffffffffffffffffffffffffffffffffffff16815260200191505060405180910390f35b348015610d8a57600080fd5b50610ee960048036036080811015610da157600080fd5b8101908080359060200190640100000000811115610dbe57600080fd5b820183602082011115610dd057600080fd5b80359060200191846020830284011164010000000083111715610df257600080fd5b919080806020026020016040519081016040528093929190818152602001838360200280828437600081840152601f19601f82011690508083019250505050505050919291929080359060200190640100000000811115610e5257600080fd5b820183602082011115610e6457600080fd5b80359060200191846020830284011164010000000083111715610e8657600080fd5b919080806020026020016040519081016040528093929190818152602001838360200280828437600081840152601f19601f8201169050808301925050505050505091929192908035906020019092919080359060200190929190505050612607565b005b348015610ef757600080fd5b50610f5a60048036036040811015610f0e57600080fd5b81019080803573ffffffffffffffffffffffffffffffffffffffff169060200190929190803573ffffffffffffffffffffffffffffffffffffffff169060200190929190505050612796565b005b348015610f6857600080fd5b50610f7161284c565b604051808273ffffffffffffffffffffffffffffffffffffffff16815260200191505060405180910390f35b348015610fa957600080fd5b50610fec60048036036020811015610fc057600080fd5b81019080803573ffffffffffffffffffffffffffffffffffffffff169060200190929190505050612864565b6040518082815260200191505060405180910390f35b34801561100e57600080fd5b506110176128ad565b604051808273ffffffffffffffffffffffffffffffffffffffff16815260200191505060405180910390f35b34801561104f57600080fd5b506110586128c5565b604051808273ffffffffffffffffffffffffffffffffffffffff16815260200191505060405180910390f35b34801561109057600080fd5b506110996128dd565b6040518082815260200191505060405180910390f35b3480156110bb57600080fd5b506110c46128e3565b604051808273ffffffffffffffffffffffffffffffffffffffff16815260200191505060405180910390f35b3480156110fc57600080fd5b506111056128fb565b604051808273ffffffffffffffffffffffffffffffffffffffff16815260200191505060405180910390f35b34801561113d57600080fd5b50611146612913565b604051808273ffffffffffffffffffffffffffffffffffffffff16815260200191505060405180910390f35b34801561117e57600080fd5b5061127f6004803603608081101561119557600080fd5b8101908080359060200190929190803573ffffffffffffffffffffffffffffffffffffffff169060200190929190803573ffffffffffffffffffffffffffffffffffffffff169060200190929190803590602001906401000000008111156111fc57600080fd5b82018360208201111561120e57600080fd5b8035906020019184602083028401116401000000008311171561123057600080fd5b919080806020026020016040519081016040528093929190818152602001838360200280828437600081840152601f19601f82011690508083019250505050505050919291929050505061292b565b005b34801561128d57600080fd5b506112ba600480360360208110156112a457600080fd5b8101908080359060200190929190505050612982565b005b3480156112c857600080fd5b506112d16129cc565b604051808273ffffffffffffffffffffffffffffffffffffffff16815260200191505060405180910390f35b34801561130957600080fd5b506113126129e4565b604051808273ffffffffffffffffffffffffffffffffffffffff16815260200191505060405180910390f35b34801561134a57600080fd5b5061138d6004803603602081101561136157600080fd5b81019080803573ffffffffffffffffffffffffffffffffffffffff1690602001909291905050506129fc565b6040518082815260200191505060405180910390f35b3480156113af57600080fd5b50611412600480360360408110156113c657600080fd5b81019080803573ffffffffffffffffffffffffffffffffffffffff169060200190929190803573ffffffffffffffffffffffffffffffffffffffff169060200190929190505050612a14565b6040518082815260200191505060405180910390f35b34801561143457600080fd5b5061143d612ac5565b604051808273ffffffffffffffffffffffffffffffffffffffff16815260200191505060405180910390f35b732170ed0880ac9a755fd29b2688956bd959f933f881565b61148b8183612796565b60006114978230612a14565b90508173ffffffffffffffffffffffffffffffffffffffff1663a9059cbb84836040518363ffffffff1660e01b8152600401808373ffffffffffffffffffffffffffffffffffffffff16815260200182815260200192505050602060405180830381600087803b15801561150a57600080fd5b505af115801561151e573d6000803e3d6000fd5b505050506040513d602081101561153457600080fd5b810190808051906020019092919050505050505050565b6000806000806000808673ffffffffffffffffffffffffffffffffffffffff1663feaf968c6040518163ffffffff1660e01b815260040160a06040518083038186803b15801561159a57600080fd5b505afa1580156115ae573d6000803e3d6000fd5b505050506040513d60a08110156115c457600080fd5b810190808051906020019092919080519060200190929190805190602001909291908051906020019092919080519060200190929190505050945094509450945094508395505050505050919050565b731b02da8cb0d097eb8d57a175b88c7d8b4799750681565b8273ffffffffffffffffffffffffffffffffffffffff1663095ea7b383836040518363ffffffff1660e01b8152600401808373ffffffffffffffffffffffffffffffffffffffff16815260200182815260200192505050602060405180830381600087803b15801561169d57600080fd5b505af11580156116b1573d6000803e3d6000fd5b505050506040513d60208110156116c757600080fd5b810190808051906020019092919050505050505050565b60008290508073ffffffffffffffffffffffffffffffffffffffff166323b872dd8330876040518463ffffffff1660e01b8152600401808473ffffffffffffffffffffffffffffffffffffffff1681526020018373ffffffffffffffffffffffffffffffffffffffff1681526020018281526020019350505050602060405180830381600087803b15801561177257600080fd5b505af1158015611786573d6000803e3d6000fd5b505050506040513d602081101561179c57600080fd5b81019080805190602001909291905050505050505050565b60005b815181101561198057600061180d6001546117ff6117e88686815181106117da57fe5b602002602001015130612a14565b6117f188612864565b612aeb90919063ffffffff16565b612b7190919063ffffffff16565b905061184083838151811061181e57fe5b6020026020010151731b02da8cb0d097eb8d57a175b88c7d8b47997506612796565b6060600267ffffffffffffffff8111801561185a57600080fd5b506040519080825280602002602001820160405280156118895781602001602082028036833780820191505090505b50905083838151811061189857fe5b6020026020010151816000815181106118ad57fe5b602002602001019073ffffffffffffffffffffffffffffffffffffffff16908173ffffffffffffffffffffffffffffffffffffffff1681525050738ac76a51cc950d9822d68b83fe1ad97b32cd580d8160018151811061190957fe5b602002602001019073ffffffffffffffffffffffffffffffffffffffff16908173ffffffffffffffffffffffffffffffffffffffff168152505061197182600083307fffffffffffffffffffffffffffffffffffffffffffffffffffffffffffffffff6123c7565b505080806001019150506117b7565b5061199f738ac76a51cc950d9822d68b83fe1ad97b32cd580d83612796565b60006119bf738ac76a51cc950d9822d68b83fe1ad97b32cd580d30612a14565b9050738ac76a51cc950d9822d68b83fe1ad97b32cd580d73ffffffffffffffffffffffffffffffffffffffff1663a9059cbb84836040518363ffffffff1660e01b8152600401808373ffffffffffffffffffffffffffffffffffffffff16815260200182815260200192505050602060405180830381600087803b158015611a4657600080fd5b505af1158015611a5a573d6000803e3d6000fd5b505050506040513d6020811015611a7057600080fd5b810190808051906020019092919050505050611a8b83611ecd565b505050565b60008390508073ffffffffffffffffffffffffffffffffffffffff166323b872dd8430886040518463ffffffff1660e01b8152600401808473ffffffffffffffffffffffffffffffffffffffff1681526020018373ffffffffffffffffffffffffffffffffffffffff1681526020018281526020019350505050602060405180830381600087803b158015611b2457600080fd5b505af1158015611b38573d6000803e3d6000fd5b505050506040513d6020811015611b4e57600080fd5b810190808051906020019092919050505050611b93738ac76a51cc950d9822d68b83fe1ad97b32cd580d731b02da8cb0d097eb8d57a175b88c7d8b479975068761162c565b60006060835167ffffffffffffffff81118015611baf57600080fd5b50604051908082528060200260200182016040528015611bde5781602001602082028036833780820191505090505b50905060005b8451811015611d17576060855167ffffffffffffffff81118015611c0757600080fd5b50604051908082528060200260200182016040528015611c365781602001602082028036833780820191505090505b509050611cc9868381518110611c4857fe5b6020026020010151600080898681518110611c5f57fe5b602002602001015173ffffffffffffffffffffffffffffffffffffffff1673ffffffffffffffffffffffffffffffffffffffff16815260200190815260200160002060009054906101000a900473ffffffffffffffffffffffffffffffffffffffff166012612590565b838381518110611cd557fe5b602002602001018181525050611d07838381518110611cf057fe5b602002602001015185612bfa90919063ffffffff16565b9350508080600101915050611be4565b506000821115611d3d57611d2d8482848a612607565b611d38858389611d5a565b611d51565b611d478785612264565b611d50856120a9565b5b50505050505050565b6000611d8383611d7560015485612aeb90919063ffffffff16565b612b7190919063ffffffff16565b9050611d9a81600154612bfa90919063ffffffff16565b6001819055506000600260008673ffffffffffffffffffffffffffffffffffffffff1673ffffffffffffffffffffffffffffffffffffffff168152602001908152602001600020541115611e8257611e3a81600260008773ffffffffffffffffffffffffffffffffffffffff1673ffffffffffffffffffffffffffffffffffffffff16815260200190815260200160002054612bfa90919063ffffffff16565b600260008673ffffffffffffffffffffffffffffffffffffffff1673ffffffffffffffffffffffffffffffffffffffff16815260200190815260200160002081905550611ec7565b80600260008673ffffffffffffffffffffffffffffffffffffffff1673ffffffffffffffffffffffffffffffffffffffff168152602001908152602001600020819055505b50505050565b6000600260008373ffffffffffffffffffffffffffffffffffffffff1673ffffffffffffffffffffffffffffffffffffffff1681526020019081526020016000205411611f82576040517f08c379a000000000000000000000000000000000000000000000000000000000815260040180806020018281038252601f8152602001807f4572726f72202d2054686973207573657220686173206e6f207368617265730081525060200191505060405180910390fd5b600260008273ffffffffffffffffffffffffffffffffffffffff1673ffffffffffffffffffffffffffffffffffffffff168152602001908152602001600020546001600082825403925050819055506000600260008373ffffffffffffffffffffffffffffffffffffffff1673ffffffffffffffffffffffffffffffffffffffff1681526020019081526020016000208190555050565b733ee2200efb3400fabb9aacf31297cbdd1d435d4781565b731d2f0da169ceb9fc7b3144628db156f3f6c60dbe81565b733ab0a0d137d4f946fbb19eecc6e92e64660231c881565b7393a67d414896a280bf8ffb3b389fe3686e014fda81565b73ba2ae424d960c26247dd6c32edc70b295c744c4381565b737083609fce4d1d8dc0c979aab8c869ea2c87340281565b6305f5e100600260008373ffffffffffffffffffffffffffffffffffffffff1673ffffffffffffffffffffffffffffffffffffffff168152602001908152602001600020819055506305f5e10060018190555050565b73a767f745331d267c7751297d982b050c9398562781565b73bb4cdb9cbd36b01bd1cbaebf2de08d9173bc095c81565b739ef1b8c0e4f7dc8bf5719ea496883dc6401d5b2e81565b612165738ac76a51cc950d9822d68b83fe1ad97b32cd580d82612796565b6000612185738ac76a51cc950d9822d68b83fe1ad97b32cd580d30612a14565b9050738ac76a51cc950d9822d68b83fe1ad97b32cd580d73ffffffffffffffffffffffffffffffffffffffff1663a9059cbb83836040518363ffffffff1660e01b8152600401808373ffffffffffffffffffffffffffffffffffffffff16815260200182815260200192505050602060405180830381600087803b15801561220c57600080fd5b505af1158015612220573d6000803e3d6000fd5b505050506040513d602081101561223657600080fd5b8101908080519060200190929190505050505050565b737130d2a12b9bcbfae4f2634d864a1ee1ce3ead9c81565b60005b81518110156123c2576060600267ffffffffffffffff8111801561228a57600080fd5b506040519080825280602002602001820160405280156122b95781602001602082028036833780820191505090505b509050738ac76a51cc950d9822d68b83fe1ad97b32cd580d816000815181106122de57fe5b602002602001019073ffffffffffffffffffffffffffffffffffffffff16908173ffffffffffffffffffffffffffffffffffffffff168152505082828151811061232457fe5b60200260200101518160018151811061233957fe5b602002602001019073ffffffffffffffffffffffffffffffffffffffff16908173ffffffffffffffffffffffffffffffffffffffff16815250506123b461238a845186612b7190919063ffffffff16565b600083307fffffffffffffffffffffffffffffffffffffffffffffffffffffffffffffffff6123c7565b508080600101915050612267565b505050565b600360009054906101000a900473ffffffffffffffffffffffffffffffffffffffff1673ffffffffffffffffffffffffffffffffffffffff166338ed173986868686866040518663ffffffff1660e01b815260040180868152602001858152602001806020018473ffffffffffffffffffffffffffffffffffffffff168152602001838152602001828103825285818151815260200191508051906020019060200280838360005b8381101561248a57808201518184015260208101905061246f565b505050509050019650505050505050600060405180830381600087803b1580156124b357600080fd5b505af11580156124c7573d6000803e3d6000fd5b505050506040513d6000823e3d601f19601f8201168201806040525060208110156124f157600080fd5b810190808051604051939291908464010000000082111561251157600080fd5b8382019150602082018581111561252757600080fd5b825186602082028301116401000000008211171561254457600080fd5b8083526020830192505050908051906020019060200280838360005b8381101561257b578082015181840152602081019050612560565b50505050905001604052505050505050505050565b60006125ce60028301600a0a6125c06125a88661154b565b6125b28830612a14565b612aeb90919063ffffffff16565b612b7190919063ffffffff16565b90509392505050565b739dcf949bca2f4a8a62350e0065d18902ee87dca381565b730567f2323251f0aab15c8dfb1967e4e8a7d42aee81565b60005b845181101561278f576060600267ffffffffffffffff8111801561262d57600080fd5b5060405190808252806020026020018201604052801561265c5781602001602082028036833780820191505090505b509050738ac76a51cc950d9822d68b83fe1ad97b32cd580d8160008151811061268157fe5b602002602001019073ffffffffffffffffffffffffffffffffffffffff16908173ffffffffffffffffffffffffffffffffffffffff16815250508582815181106126c757fe5b6020026020010151816001815181106126dc57fe5b602002602001019073ffffffffffffffffffffffffffffffffffffffff16908173ffffffffffffffffffffffffffffffffffffffff16815250506000612750856127428689878151811061272c57fe5b6020026020010151612aeb90919063ffffffff16565b612b7190919063ffffffff16565b905061278081600084307fffffffffffffffffffffffffffffffffffffffffffffffffffffffffffffffff6123c7565b5050808060010191505061260a565b5050505050565b60008273ffffffffffffffffffffffffffffffffffffffff166370a08231306040518263ffffffff1660e01b8152600401808273ffffffffffffffffffffffffffffffffffffffff16815260200191505060206040518083038186803b1580156127ff57600080fd5b505afa158015612813573d6000803e3d6000fd5b505050506040513d602081101561282957600080fd5b8101908080519060200190929190505050905061284783838361162c565b505050565b73264990fbd0a4796a3e3d8e37c4d5f87a3aca5ebf81565b6000600260008373ffffffffffffffffffffffffffffffffffffffff1673ffffffffffffffffffffffffffffffffffffffff168152602001908152602001600020549050919050565b738ac76a51cc950d9822d68b83fe1ad97b32cd580d81565b73eccf35f941ab67ffcaa9a1265c2ff88865caa00581565b60015481565b73b57f259e7c24e56a1da00f66b55a5640d9f9e7e481565b73bf5140a22578168fd562dccf235e5d43a02ce9b181565b73570a5d26f7765ecb712c0924e4de545b89fd43df81565b6129368484846116de565b612969738ac76a51cc950d9822d68b83fe1ad97b32cd580d731b02da8cb0d097eb8d57a175b88c7d8b479975068661162c565b6129738482612264565b61297c826120a9565b50505050565b3373ffffffffffffffffffffffffffffffffffffffff166108fc829081150290604051600060405180830381858888f193505050501580156129c8573d6000803e3d6000fd5b5050565b73c333eb0086309a16aa7c8308dfd32c8bba0a259281565b730e8a53dd9c13589df6382f13da6b3ec8f919b32381565b60026020528060005260406000206000915090505481565b6000808390508073ffffffffffffffffffffffffffffffffffffffff166370a08231846040518263ffffffff1660e01b8152600401808273ffffffffffffffffffffffffffffffffffffffff16815260200191505060206040518083038186803b158015612a8157600080fd5b505afa158015612a95573d6000803e3d6000fd5b505050506040513d6020811015612aab57600080fd5b810190808051906020019092919050505091505092915050565b600360009054906101000a900473ffffffffffffffffffffffffffffffffffffffff1681565b600080831415612afe5760009050612b6b565b6000828402905082848281612b0f57fe5b0414612b66576040517f08c379a0000000000000000000000000000000000000000000000000000000008152600401808060200182810382526021815260200180612c836021913960400191505060405180910390fd5b809150505b92915050565b6000808211612be8576040517f08c379a000000000000000000000000000000000000000000000000000000000815260040180806020018281038252601a8152602001807f536166654d6174683a206469766973696f6e206279207a65726f00000000000081525060200191505060405180910390fd5b818381612bf157fe5b04905092915050565b600080828401905083811015612c78576040517f08c379a000000000000000000000000000000000000000000000000000000000815260040180806020018281038252601b8152602001807f536166654d6174683a206164646974696f6e206f766572666c6f77000000000081525060200191505060405180910390fd5b809150509291505056fe536166654d6174683a206d756c7469706c69636174696f6e206f766572666c6f77a2646970667358221220dd9fd5281743192e8b898e9c3eae59fe3e5367d758604b48ceac9f9709b5b5c764736f6c634300060c0033",
  "immutableReferences": {},
  "source": "pragma solidity ^0.6.12;\n\n//import statements go here\nimport \"./interfaces/IUniswapV2Router02.sol\";\nimport \"./interfaces/IUniswapV2Router01.sol\";\nimport \"@openzeppelin/contracts/token/ERC20/IERC20.sol\";\nimport \"@openzeppelin/contracts/math/SafeMath.sol\";\nimport \"@chainlink/contracts/src/v0.6/interfaces/AggregatorV3Interface.sol\";\n\ncontract CryptoIndexBinance {\n    using SafeMath for uint256;\n\n    address public constant USDC_ADDRESS = 0x8AC76a51cc950d9822D68b83fE1Ad97B32Cd580d;\n    \n    address public constant BTCB_ADDRESS = 0x7130d2A12B9BCbFAe4f2634d864A1Ee1Ce3Ead9c;\n    address public constant WETH_ADDRESS = 0x2170Ed0880ac9A755fd29B2688956BD959F933F8;\n    address public constant BNB_ADDRESS = 0xbb4CdB9CBd36B01bD1cBaEBF2De08d9173bc095c;\n    address public constant ADA_ADDRESS = 0x3EE2200Efb3400fAbB9AacF31297cBdD1d435D47;\n    address public constant XRP_ADDRESS = 0x1D2F0da169ceB9fC7B3144628dB156f3F6c60dBE;\n    address public constant SOL_ADDRESS = 0x570A5D26f7765Ecb712C0924E4De545B89fD43dF;\n    address public constant DOT_ADDRESS = 0x7083609fCE4d1d8Dc0C979AAb8c869Ea2C873402;\n    address public constant DOGE_ADDRESS = 0xbA2aE424d960c26247Dd6c32edC70B295c744C43;\n    address public constant UNI_ADDRESS = 0xBf5140A22578168FD562DCcF235E5D43A02ce9B1;\n    address public constant LTC_ADDRESS = 0xECCF35F941Ab67FfcAA9A1265C2fF88865caA005; \n\n    address public constant BTC_USD_ORACLE = 0x264990fbd0A4796A3E3d8E37C4d5F87a3aCa5Ebf;\n    address public constant ETH_USD_ORACLE = 0x9ef1B8c0E4F7dc8bF5719Ea496883DC6401d5b2e;\n    address public constant BNB_USD_ORACLE = 0x0567F2323251f0Aab15c8dFb1967E4e8A7D42aeE;\n    address public constant ADA_USD_ORACLE = 0xa767f745331D267c7751297D982b050c93985627;\n    address public constant XRP_USD_ORACLE = 0x93A67D414896A280bF8FFB3b389fE3686E014fda;\n    address public constant SOL_USD_ORACLE = 0x0E8a53DD9c13589df6382F13dA6B3Ec8F919B323;\n    address public constant DOT_USD_ORACLE = 0xC333eb0086309a16aa7c8308DfD32c8BBA0a2592;\n    address public constant DOGE_USD_ORACLE = 0x3AB0A0d137D4F946fBB19eecc6e92E64660231C8;\n    address public constant UNI_USD_ORACLE = 0xb57f259E7C24e56a1dA00F66b55A5640d9f9E7e4;\n    address public constant LTC_USD_ORACLE = 0x9Dcf949BCA2F4A8a62350E0065d18902eE87Dca3; //doesn't seem to have an oracle currently?\n\n    mapping (address => address) private oracle_addresses;\n\n    constructor () public {\n        oracle_addresses[BTCB_ADDRESS] = BTC_USD_ORACLE;\n        oracle_addresses[WETH_ADDRESS] = ETH_USD_ORACLE;\n        oracle_addresses[BNB_ADDRESS] = BNB_USD_ORACLE;\n        oracle_addresses[ADA_ADDRESS] = ADA_USD_ORACLE;\n        oracle_addresses[XRP_ADDRESS] = XRP_USD_ORACLE;\n        oracle_addresses[SOL_ADDRESS] = SOL_USD_ORACLE;\n        oracle_addresses[DOT_ADDRESS] = DOT_USD_ORACLE;\n        oracle_addresses[DOGE_ADDRESS] = DOGE_USD_ORACLE;\n        oracle_addresses[UNI_ADDRESS] = UNI_USD_ORACLE;\n        oracle_addresses[LTC_ADDRESS] = LTC_USD_ORACLE;\n    }\n    address public constant SUSHISWAP_ROUTER = 0x1b02dA8Cb0d097eB8D57A175b88c7D8b47997506;\n    \n    uint256 public totalNumberOfShares;\n    mapping(address => uint256) public userNumberOfShares; \n\n    IUniswapV2Router02 public sushiSwapRouter = IUniswapV2Router02(SUSHISWAP_ROUTER);\n    //more variables here\n    // constructor() autoBalancer public {\n    // } \n    \n    /**\n     * Returns the latest price\n     */\n    function getLatestPrice(address _oracle_address) public view returns (int) {\n        (\n            uint80 roundID, \n            int price,\n            uint startedAt,\n            uint timeStamp,\n            uint80 answeredInRound\n        ) = AggregatorV3Interface(_oracle_address).latestRoundData();\n        return price;\n    }\n\n    function updateSharesOnWithdrawal(address user) public { //make this ownable - only contract itself can update this?\n        require (userNumberOfShares[user] > 0, \"Error - This user has no shares\");\n        totalNumberOfShares -= userNumberOfShares[user];\n        userNumberOfShares[user] = 0;\n    }\n\n    function getUserShares(address user) public view returns (uint256 userShares) {\n        return userNumberOfShares[user];\n    }\n\n    function approve_spending (address token_address, address spender_address, uint256 amount_to_approve) public {\n            IERC20(token_address).approve(spender_address, amount_to_approve);\n    }\n    \n     receive() external payable {\n    }\n\n    function deposit (uint256 _amount, address token_address, address address_from) public {\n        IERC20 token_ = IERC20(token_address);\n\n        token_.transferFrom(\n            address_from, \n            address(this), \n            _amount\n        );\n    }\n\n    function depositFirstTime (uint256 _amount, address deposit_token_address, address address_from, address[] memory token_addresses) public {\n        deposit(_amount, deposit_token_address, address_from);\n\n        approve_spending(USDC_ADDRESS, SUSHISWAP_ROUTER, _amount);\n\n        swapIntoNEqualParts(_amount, token_addresses);\n\n        setSharesFirstTime(address_from);\n    }\n\n    function depositUserFunds (uint256 amount_, address token_address, address address_from, address[] memory token_addresses) public  {\n        // TO DO - replace with deposit(amount_, token_address, address_from);\n        IERC20 token_ = IERC20(token_address);\n\n        token_.transferFrom(\n            address_from, \n            address(this), \n            amount_\n        );\n\n        approve_spending(USDC_ADDRESS, SUSHISWAP_ROUTER, amount_);\n\n        //here we need to figure out what we're dealing with... take token_addresses and get USDbalances\n        uint256 Total_in_USD;\n        uint256[] memory token_USD_balances = new uint256[](token_addresses.length);\n\n        for (uint i; i<token_addresses.length; i++) {\n            address[] memory token_balances = new address[](token_addresses.length);\n            token_USD_balances[i] = getUSDBalanceOf(token_addresses[i], oracle_addresses[token_addresses[i]], 18);\n            Total_in_USD = Total_in_USD.add(token_USD_balances[i]);\n        }\n        \n        if (Total_in_USD > 0) {\n            swapProportionately(token_addresses, token_USD_balances, Total_in_USD, amount_);\n            updateSharesOnDeposit(address_from, Total_in_USD, amount_);\n        } else {\n            swapIntoNEqualParts(amount_, token_addresses);\n            setSharesFirstTime(address_from);\n        }\n    }\n\n    function getUSDBalanceOf(address token_address, address oracle_address, uint256 token_decimals) public view returns (uint256) {\n        // uint256 token_decimals = IERC20(token_address).decimals();\n        return balanceOf(token_address, address(this))\n        .mul(uint256(getLatestPrice(oracle_address)))\n        .div(10**(token_decimals+2));\n    }\n\n    function swapProportionately(\n        address[] memory token_addresses, \n        uint256[] memory token_USD_balances, \n        uint256 totalUSDAmount, \n        uint256 depositAmount\n        ) public \n        {\n            for (uint i; i<token_addresses.length; i++) {\n                address[] memory _path = new address[](2);\n                _path[0] = USDC_ADDRESS;\n                _path[1] = token_addresses[i];\n\n                uint256 token_share = token_USD_balances[i].mul(depositAmount).div(totalUSDAmount);\n                swap(token_share, uint256(0), _path, address(this), uint256(-1));\n                }\n    }\n\n    function swapIntoNEqualParts(uint256 amount, address[] memory token_addresses) public {\n        for (uint i; i<token_addresses.length; i++) {\n            address[] memory _path = new address[](2);\n            _path[0] = USDC_ADDRESS;\n            _path[1] = token_addresses[i];\n            swap(amount.div(token_addresses.length), uint256(0), _path, address(this), uint256(-1));\n        }\n    }\n\n    function setSharesFirstTime(address user) public {\n        userNumberOfShares[user] = 100000000;\n        totalNumberOfShares = 100000000;\n    }\n\n    function updateSharesOnDeposit(address user, uint256 total_in_USD, uint256 deposit_amount) public { //make this ownable - only contract itself can update this?\n        uint256 newSharesForUser = deposit_amount.mul(totalNumberOfShares).div(total_in_USD);\n        totalNumberOfShares = totalNumberOfShares.add(newSharesForUser);\n        if (userNumberOfShares[user] > 0) {\n            userNumberOfShares[user] = userNumberOfShares[user].add(newSharesForUser);\n        } else {\n            userNumberOfShares[user] = newSharesForUser;\n        }\n    }\n\n    function withdrawUserFunds(address user, address[] memory token_addresses) public {\n\n        for (uint i; i<token_addresses.length; i++) {\n            uint256 token_amount = getUserShares(user).mul(balanceOf(token_addresses[i], address(this))).div(totalNumberOfShares);\n            approveSpendingWholeBalance(token_addresses[i], SUSHISWAP_ROUTER);\n            address[] memory _path = new address[](2);\n            _path[0] = token_addresses[i];\n            _path[1] = USDC_ADDRESS;\n            swap(token_amount, uint256(0), _path, address(this), uint256(-1));\n        }\n\n        approveSpendingWholeBalance(USDC_ADDRESS, user);\n        \n        uint256 USDC_amount = balanceOf(USDC_ADDRESS, address(this));\n        IERC20(USDC_ADDRESS).transfer(user, USDC_amount);\n\n        updateSharesOnWithdrawal(user);\n    }\n\n    // function executeThreeSwaps(\n    //     address _from1, address _to1, uint256 _amount1,\n    //     address _from2, address _to2, uint256 _amount2,\n    //     address _from3, address _to3, uint256 _amount3\n    //     ) public {\n    //         executeRebalancingSwap(_from1, _to1, _amount1);\n    //         executeRebalancingSwap(_from2, _to2, _amount2);\n    //         executeRebalancingSwap(_from3, _to3, _amount3);\n    // }\n\n    // function executeRebalancingSwap(address _tokenToSwap, address _tokenSwappingTo, uint256 _amountToBeSwapped) public {\n    //     approve_spending(_tokenToSwap, SUSHISWAP_ROUTER, _amountToBeSwapped);\n    //     if (_tokenToSwap == WMATIC_ADDRESS || _tokenSwappingTo == WMATIC_ADDRESS) {\n    //         address[] memory _path = new address[](2);\n    //         _path[0] = _tokenToSwap;\n    //         _path[1] = _tokenSwappingTo;\n    //         swap(_amountToBeSwapped, uint256(0), _path, address(this), uint256(-1));\n    //     } else {\n    //         address[] memory _path = new address[](3);\n    //         _path[0] = _tokenToSwap;\n    //         _path[1] = WMATIC_ADDRESS;\n    //         _path[2] = _tokenSwappingTo;\n    //         swap(_amountToBeSwapped, uint256(0), _path, address(this), uint256(-1));\n    //     }\n        \n    // }\n\n    function approveSpendingWholeBalance(address _token, address _spender) public {\n        uint256 tokenBalance = IERC20(_token).balanceOf(address(this));\n        approve_spending(_token, _spender, tokenBalance);\n    }\n    \n    function withdraw_matic(uint256 amount_) public {\n        msg.sender.transfer(amount_); //TODO - change?\n    }\n\n    function withdrawAllUSDC(address _user) public {\n        approveSpendingWholeBalance(USDC_ADDRESS, _user);\n        uint256 USDC_amount = balanceOf(USDC_ADDRESS, address(this));\n        IERC20(USDC_ADDRESS).transfer(_user, USDC_amount);\n    }\n\n    function withdrawAll(address _user, address _token_address) public {\n        approveSpendingWholeBalance(_token_address, _user);\n        uint256 USDC_amount = balanceOf(_token_address, address(this));\n        IERC20(_token_address).transfer(_user, USDC_amount);\n    }\n\n    function balanceOf(address token_address, address user_address) public view returns (uint256 token_balance) {\n        IERC20 _token = IERC20(token_address);\n        token_balance = _token.balanceOf(user_address);\n        return token_balance;\n    }\n    \n    function swap(uint256 _amountIn, uint256 _amountOutMin, address[] memory _path, address _acct, uint256 _deadline) public {\n        \n       sushiSwapRouter.swapExactTokensForTokens(\n            _amountIn,\n            _amountOutMin,\n            _path,\n            _acct,\n            _deadline);\n        }      \n    }\n    \n\n    ",
  "sourcePath": "/Users/richardjamieson/Documents/GitHub/CryptoIndex/contracts/CryptoIndexBinance.sol",
  "compiler": {
    "name": "solc",
    "version": "0.6.12+commit.27d51765.Emscripten.clang"
  },
  "schemaVersion": "3.4.3",
  "updatedAt": "2021-10-22T13:48:31.076Z",
  "devdoc": {
    "kind": "dev",
    "methods": {},
    "version": 1
  },
  "userdoc": {
    "kind": "user",
    "methods": {
      "getLatestPrice(address)": {
        "notice": "Returns the latest price"
      }
    },
    "version": 1
  }
}