{
  "contractName": "CryptoIndexBinance",
  "abi": [
    {
      "inputs": [],
      "stateMutability": "nonpayable",
      "type": "constructor"
    },
    {
      "anonymous": false,
      "inputs": [
        {
          "indexed": true,
          "internalType": "address",
          "name": "previousOwner",
          "type": "address"
        },
        {
          "indexed": true,
          "internalType": "address",
          "name": "newOwner",
          "type": "address"
        }
      ],
      "name": "OwnershipTransferred",
      "type": "event"
    },
    {
      "anonymous": false,
      "inputs": [
        {
          "indexed": false,
          "internalType": "address",
          "name": "account",
          "type": "address"
        }
      ],
      "name": "Paused",
      "type": "event"
    },
    {
      "anonymous": false,
      "inputs": [
        {
          "indexed": false,
          "internalType": "address",
          "name": "account",
          "type": "address"
        }
      ],
      "name": "Unpaused",
      "type": "event"
    },
    {
      "inputs": [],
      "name": "ADA_ADDRESS",
      "outputs": [
        {
          "internalType": "address",
          "name": "",
          "type": "address"
        }
      ],
      "stateMutability": "view",
      "type": "function"
    },
    {
      "inputs": [],
      "name": "ADA_USD_ORACLE",
      "outputs": [
        {
          "internalType": "address",
          "name": "",
          "type": "address"
        }
      ],
      "stateMutability": "view",
      "type": "function"
    },
    {
      "inputs": [],
      "name": "APESWAP_ROUTER",
      "outputs": [
        {
          "internalType": "address",
          "name": "",
          "type": "address"
        }
      ],
      "stateMutability": "view",
      "type": "function"
    },
    {
      "inputs": [],
      "name": "BNB_ADDRESS",
      "outputs": [
        {
          "internalType": "address",
          "name": "",
          "type": "address"
        }
      ],
      "stateMutability": "view",
      "type": "function"
    },
    {
      "inputs": [],
      "name": "BNB_USD_ORACLE",
      "outputs": [
        {
          "internalType": "address",
          "name": "",
          "type": "address"
        }
      ],
      "stateMutability": "view",
      "type": "function"
    },
    {
      "inputs": [],
      "name": "BTCB_ADDRESS",
      "outputs": [
        {
          "internalType": "address",
          "name": "",
          "type": "address"
        }
      ],
      "stateMutability": "view",
      "type": "function"
    },
    {
      "inputs": [],
      "name": "BTC_USD_ORACLE",
      "outputs": [
        {
          "internalType": "address",
          "name": "",
          "type": "address"
        }
      ],
      "stateMutability": "view",
      "type": "function"
    },
    {
      "inputs": [],
      "name": "DOGE_ADDRESS",
      "outputs": [
        {
          "internalType": "address",
          "name": "",
          "type": "address"
        }
      ],
      "stateMutability": "view",
      "type": "function"
    },
    {
      "inputs": [],
      "name": "DOGE_USD_ORACLE",
      "outputs": [
        {
          "internalType": "address",
          "name": "",
          "type": "address"
        }
      ],
      "stateMutability": "view",
      "type": "function"
    },
    {
      "inputs": [],
      "name": "DOT_ADDRESS",
      "outputs": [
        {
          "internalType": "address",
          "name": "",
          "type": "address"
        }
      ],
      "stateMutability": "view",
      "type": "function"
    },
    {
      "inputs": [],
      "name": "DOT_USD_ORACLE",
      "outputs": [
        {
          "internalType": "address",
          "name": "",
          "type": "address"
        }
      ],
      "stateMutability": "view",
      "type": "function"
    },
    {
      "inputs": [],
      "name": "ETH_USD_ORACLE",
      "outputs": [
        {
          "internalType": "address",
          "name": "",
          "type": "address"
        }
      ],
      "stateMutability": "view",
      "type": "function"
    },
    {
      "inputs": [],
      "name": "LINK_ADDRESS",
      "outputs": [
        {
          "internalType": "address",
          "name": "",
          "type": "address"
        }
      ],
      "stateMutability": "view",
      "type": "function"
    },
    {
      "inputs": [],
      "name": "LINK_USD_ORACLE",
      "outputs": [
        {
          "internalType": "address",
          "name": "",
          "type": "address"
        }
      ],
      "stateMutability": "view",
      "type": "function"
    },
    {
      "inputs": [],
      "name": "LTC_ADDRESS",
      "outputs": [
        {
          "internalType": "address",
          "name": "",
          "type": "address"
        }
      ],
      "stateMutability": "view",
      "type": "function"
    },
    {
      "inputs": [],
      "name": "LTC_USD_ORACLE",
      "outputs": [
        {
          "internalType": "address",
          "name": "",
          "type": "address"
        }
      ],
      "stateMutability": "view",
      "type": "function"
    },
    {
      "inputs": [],
      "name": "SOL_ADDRESS",
      "outputs": [
        {
          "internalType": "address",
          "name": "",
          "type": "address"
        }
      ],
      "stateMutability": "view",
      "type": "function"
    },
    {
      "inputs": [],
      "name": "SOL_USD_ORACLE",
      "outputs": [
        {
          "internalType": "address",
          "name": "",
          "type": "address"
        }
      ],
      "stateMutability": "view",
      "type": "function"
    },
    {
      "inputs": [],
      "name": "SUSHISWAP_ROUTER",
      "outputs": [
        {
          "internalType": "address",
          "name": "",
          "type": "address"
        }
      ],
      "stateMutability": "view",
      "type": "function"
    },
    {
      "inputs": [],
      "name": "UNI_ADDRESS",
      "outputs": [
        {
          "internalType": "address",
          "name": "",
          "type": "address"
        }
      ],
      "stateMutability": "view",
      "type": "function"
    },
    {
      "inputs": [],
      "name": "UNI_USD_ORACLE",
      "outputs": [
        {
          "internalType": "address",
          "name": "",
          "type": "address"
        }
      ],
      "stateMutability": "view",
      "type": "function"
    },
    {
      "inputs": [],
      "name": "USDC_ADDRESS",
      "outputs": [
        {
          "internalType": "address",
          "name": "",
          "type": "address"
        }
      ],
      "stateMutability": "view",
      "type": "function"
    },
    {
      "inputs": [],
      "name": "WETH_ADDRESS",
      "outputs": [
        {
          "internalType": "address",
          "name": "",
          "type": "address"
        }
      ],
      "stateMutability": "view",
      "type": "function"
    },
    {
      "inputs": [],
      "name": "XRP_ADDRESS",
      "outputs": [
        {
          "internalType": "address",
          "name": "",
          "type": "address"
        }
      ],
      "stateMutability": "view",
      "type": "function"
    },
    {
      "inputs": [],
      "name": "XRP_USD_ORACLE",
      "outputs": [
        {
          "internalType": "address",
          "name": "",
          "type": "address"
        }
      ],
      "stateMutability": "view",
      "type": "function"
    },
    {
      "inputs": [
        {
          "internalType": "address",
          "name": "",
          "type": "address"
        }
      ],
      "name": "oracle_addresses",
      "outputs": [
        {
          "internalType": "address",
          "name": "",
          "type": "address"
        }
      ],
      "stateMutability": "view",
      "type": "function"
    },
    {
      "inputs": [],
      "name": "owner",
      "outputs": [
        {
          "internalType": "address",
          "name": "",
          "type": "address"
        }
      ],
      "stateMutability": "view",
      "type": "function"
    },
    {
      "inputs": [],
      "name": "paused",
      "outputs": [
        {
          "internalType": "bool",
          "name": "",
          "type": "bool"
        }
      ],
      "stateMutability": "view",
      "type": "function"
    },
    {
      "inputs": [],
      "name": "renounceOwnership",
      "outputs": [],
      "stateMutability": "nonpayable",
      "type": "function"
    },
    {
      "inputs": [],
      "name": "router",
      "outputs": [
        {
          "internalType": "contract IUniswapV2Router02",
          "name": "",
          "type": "address"
        }
      ],
      "stateMutability": "view",
      "type": "function"
    },
    {
      "inputs": [],
      "name": "totalNumberOfShares",
      "outputs": [
        {
          "internalType": "uint256",
          "name": "",
          "type": "uint256"
        }
      ],
      "stateMutability": "view",
      "type": "function"
    },
    {
      "inputs": [
        {
          "internalType": "address",
          "name": "newOwner",
          "type": "address"
        }
      ],
      "name": "transferOwnership",
      "outputs": [],
      "stateMutability": "nonpayable",
      "type": "function"
    },
    {
      "inputs": [
        {
          "internalType": "address",
          "name": "",
          "type": "address"
        }
      ],
      "name": "userNumberOfShares",
      "outputs": [
        {
          "internalType": "uint256",
          "name": "",
          "type": "uint256"
        }
      ],
      "stateMutability": "view",
      "type": "function"
    },
    {
      "stateMutability": "payable",
      "type": "receive"
    },
    {
      "inputs": [
        {
          "internalType": "address",
          "name": "_oracle_address",
          "type": "address"
        }
      ],
      "name": "getLatestPrice",
      "outputs": [
        {
          "internalType": "int256",
          "name": "",
          "type": "int256"
        }
      ],
      "stateMutability": "view",
      "type": "function"
    },
    {
      "inputs": [
        {
          "internalType": "address",
          "name": "user",
          "type": "address"
        }
      ],
      "name": "getUserShares",
      "outputs": [
        {
          "internalType": "uint256",
          "name": "userShares",
          "type": "uint256"
        }
      ],
      "stateMutability": "view",
      "type": "function"
    },
    {
      "inputs": [
        {
          "internalType": "address",
          "name": "token_address",
          "type": "address"
        },
        {
          "internalType": "address",
          "name": "spender_address",
          "type": "address"
        },
        {
          "internalType": "uint256",
          "name": "amount_to_approve",
          "type": "uint256"
        }
      ],
      "name": "approve_spending",
      "outputs": [],
      "stateMutability": "nonpayable",
      "type": "function"
    },
    {
      "inputs": [
        {
          "internalType": "uint256",
          "name": "_amount",
          "type": "uint256"
        },
        {
          "internalType": "address",
          "name": "token_address",
          "type": "address"
        },
        {
          "internalType": "address",
          "name": "address_from",
          "type": "address"
        }
      ],
      "name": "deposit",
      "outputs": [],
      "stateMutability": "nonpayable",
      "type": "function"
    },
    {
      "inputs": [
        {
          "internalType": "uint256",
          "name": "_amount",
          "type": "uint256"
        },
        {
          "internalType": "address",
          "name": "deposit_token_address",
          "type": "address"
        },
        {
          "internalType": "address",
          "name": "address_from",
          "type": "address"
        },
        {
          "internalType": "address[]",
          "name": "token_addresses",
          "type": "address[]"
        }
      ],
      "name": "depositFirstTime",
      "outputs": [],
      "stateMutability": "nonpayable",
      "type": "function"
    },
    {
      "inputs": [
        {
          "internalType": "uint256",
          "name": "amount_",
          "type": "uint256"
        },
        {
          "internalType": "address",
          "name": "token_address",
          "type": "address"
        },
        {
          "internalType": "address",
          "name": "address_from",
          "type": "address"
        },
        {
          "internalType": "address[]",
          "name": "token_addresses",
          "type": "address[]"
        }
      ],
      "name": "depositUserFunds",
      "outputs": [],
      "stateMutability": "nonpayable",
      "type": "function"
    },
    {
      "inputs": [
        {
          "internalType": "address",
          "name": "token_address",
          "type": "address"
        }
      ],
      "name": "getUSDBalanceOf",
      "outputs": [
        {
          "internalType": "uint256",
          "name": "",
          "type": "uint256"
        }
      ],
      "stateMutability": "view",
      "type": "function"
    },
    {
      "inputs": [
        {
          "internalType": "address[]",
          "name": "token_addresses",
          "type": "address[]"
        },
        {
          "internalType": "uint256[]",
          "name": "token_USD_balances",
          "type": "uint256[]"
        },
        {
          "internalType": "uint256",
          "name": "totalUSDAmount",
          "type": "uint256"
        },
        {
          "internalType": "uint256",
          "name": "depositAmount",
          "type": "uint256"
        }
      ],
      "name": "swapProportionately",
      "outputs": [],
      "stateMutability": "nonpayable",
      "type": "function"
    },
    {
      "inputs": [
        {
          "internalType": "uint256",
          "name": "amount",
          "type": "uint256"
        },
        {
          "internalType": "address[]",
          "name": "token_addresses",
          "type": "address[]"
        }
      ],
      "name": "swapIntoNEqualParts",
      "outputs": [],
      "stateMutability": "nonpayable",
      "type": "function"
    },
    {
      "inputs": [
        {
          "internalType": "address",
          "name": "user",
          "type": "address"
        },
        {
          "internalType": "address[]",
          "name": "token_addresses",
          "type": "address[]"
        }
      ],
      "name": "withdrawUserFunds",
      "outputs": [],
      "stateMutability": "nonpayable",
      "type": "function"
    },
    {
      "inputs": [
        {
          "internalType": "address",
          "name": "user",
          "type": "address"
        },
        {
          "internalType": "address[]",
          "name": "token_addresses",
          "type": "address[]"
        }
      ],
      "name": "emergencyWithdrawAll",
      "outputs": [],
      "stateMutability": "nonpayable",
      "type": "function"
    },
    {
      "inputs": [
        {
          "internalType": "uint256",
          "name": "amount_",
          "type": "uint256"
        }
      ],
      "name": "withdraw_matic",
      "outputs": [],
      "stateMutability": "nonpayable",
      "type": "function"
    },
    {
      "inputs": [
        {
          "internalType": "address",
          "name": "_user",
          "type": "address"
        }
      ],
      "name": "withdrawAllUSDC",
      "outputs": [],
      "stateMutability": "nonpayable",
      "type": "function"
    },
    {
      "inputs": [
        {
          "internalType": "address",
          "name": "_user",
          "type": "address"
        },
        {
          "internalType": "address",
          "name": "_token_address",
          "type": "address"
        }
      ],
      "name": "withdrawAll",
      "outputs": [],
      "stateMutability": "nonpayable",
      "type": "function"
    },
    {
      "inputs": [
        {
          "internalType": "address",
          "name": "token_address",
          "type": "address"
        },
        {
          "internalType": "address",
          "name": "user_address",
          "type": "address"
        }
      ],
      "name": "balanceOf",
      "outputs": [
        {
          "internalType": "uint256",
          "name": "token_balance",
          "type": "uint256"
        }
      ],
      "stateMutability": "view",
      "type": "function"
    }
  ],
  "bytecode": "0x608060405273cf0febd3f17cef5b47b0cd257acf6025c5bff3b7600460006101000a81548173ffffffffffffffffffffffffffffffffffffffff021916908373ffffffffffffffffffffffffffffffffffffffff1602179055503480156200006657600080fd5b506000620000796200085960201b60201c565b9050806000806101000a81548173ffffffffffffffffffffffffffffffffffffffff021916908373ffffffffffffffffffffffffffffffffffffffff1602179055508073ffffffffffffffffffffffffffffffffffffffff16600073ffffffffffffffffffffffffffffffffffffffff167f8be0079c531659141344cd1fd0a4f28419497f9722a3daafe3b4186f6b6457e060405160405180910390a35060008060146101000a81548160ff02191690831515021790555073264990fbd0a4796a3e3d8e37c4d5f87a3aca5ebf60016000737130d2a12b9bcbfae4f2634d864a1ee1ce3ead9c73ffffffffffffffffffffffffffffffffffffffff1673ffffffffffffffffffffffffffffffffffffffff16815260200190815260200160002060006101000a81548173ffffffffffffffffffffffffffffffffffffffff021916908373ffffffffffffffffffffffffffffffffffffffff160217905550739ef1b8c0e4f7dc8bf5719ea496883dc6401d5b2e60016000732170ed0880ac9a755fd29b2688956bd959f933f873ffffffffffffffffffffffffffffffffffffffff1673ffffffffffffffffffffffffffffffffffffffff16815260200190815260200160002060006101000a81548173ffffffffffffffffffffffffffffffffffffffff021916908373ffffffffffffffffffffffffffffffffffffffff160217905550730567f2323251f0aab15c8dfb1967e4e8a7d42aee6001600073bb4cdb9cbd36b01bd1cbaebf2de08d9173bc095c73ffffffffffffffffffffffffffffffffffffffff1673ffffffffffffffffffffffffffffffffffffffff16815260200190815260200160002060006101000a81548173ffffffffffffffffffffffffffffffffffffffff021916908373ffffffffffffffffffffffffffffffffffffffff16021790555073a767f745331d267c7751297d982b050c9398562760016000733ee2200efb3400fabb9aacf31297cbdd1d435d4773ffffffffffffffffffffffffffffffffffffffff1673ffffffffffffffffffffffffffffffffffffffff16815260200190815260200160002060006101000a81548173ffffffffffffffffffffffffffffffffffffffff021916908373ffffffffffffffffffffffffffffffffffffffff1602179055507393a67d414896a280bf8ffb3b389fe3686e014fda60016000731d2f0da169ceb9fc7b3144628db156f3f6c60dbe73ffffffffffffffffffffffffffffffffffffffff1673ffffffffffffffffffffffffffffffffffffffff16815260200190815260200160002060006101000a81548173ffffffffffffffffffffffffffffffffffffffff021916908373ffffffffffffffffffffffffffffffffffffffff160217905550730e8a53dd9c13589df6382f13da6b3ec8f919b3236001600073570a5d26f7765ecb712c0924e4de545b89fd43df73ffffffffffffffffffffffffffffffffffffffff1673ffffffffffffffffffffffffffffffffffffffff16815260200190815260200160002060006101000a81548173ffffffffffffffffffffffffffffffffffffffff021916908373ffffffffffffffffffffffffffffffffffffffff16021790555073c333eb0086309a16aa7c8308dfd32c8bba0a259260016000737083609fce4d1d8dc0c979aab8c869ea2c87340273ffffffffffffffffffffffffffffffffffffffff1673ffffffffffffffffffffffffffffffffffffffff16815260200190815260200160002060006101000a81548173ffffffffffffffffffffffffffffffffffffffff021916908373ffffffffffffffffffffffffffffffffffffffff160217905550733ab0a0d137d4f946fbb19eecc6e92e64660231c86001600073ba2ae424d960c26247dd6c32edc70b295c744c4373ffffffffffffffffffffffffffffffffffffffff1673ffffffffffffffffffffffffffffffffffffffff16815260200190815260200160002060006101000a81548173ffffffffffffffffffffffffffffffffffffffff021916908373ffffffffffffffffffffffffffffffffffffffff16021790555073b57f259e7c24e56a1da00f66b55a5640d9f9e7e46001600073bf5140a22578168fd562dccf235e5d43a02ce9b173ffffffffffffffffffffffffffffffffffffffff1673ffffffffffffffffffffffffffffffffffffffff16815260200190815260200160002060006101000a81548173ffffffffffffffffffffffffffffffffffffffff021916908373ffffffffffffffffffffffffffffffffffffffff1602179055507374e72f37a8c415c8f1a98ed42e78ff997435791d60016000734338665cbb7b2485a8855a139b75d5e34ab0db9473ffffffffffffffffffffffffffffffffffffffff1673ffffffffffffffffffffffffffffffffffffffff16815260200190815260200160002060006101000a81548173ffffffffffffffffffffffffffffffffffffffff021916908373ffffffffffffffffffffffffffffffffffffffff16021790555073ca236e327f629f9fc2c30a4e95775ebf0b89fac86001600073f8a0bf9cf54bb92f17374d9e9a321e6a111a51bd73ffffffffffffffffffffffffffffffffffffffff1673ffffffffffffffffffffffffffffffffffffffff16815260200190815260200160002060006101000a81548173ffffffffffffffffffffffffffffffffffffffff021916908373ffffffffffffffffffffffffffffffffffffffff16021790555062000861565b600033905090565b61455e80620008716000396000f3fe6080604052600436106102975760003560e01c8063894d94531161015a578063c907b711116100c1578063e2a9f6251161007a578063e2a9f625146112eb578063ed08d8eb1461132c578063ef455bad1461136d578063f2fde38b146113d2578063f7888aec14611423578063f887ea40146114a85761029e565b8063c907b71114610ff9578063ca68970f146110de578063d50fe8731461111f578063d5942daf14611160578063d9155b111461126f578063e0c7af9e146112aa5761029e565b8063b6e20a6a11610113578063b6e20a6a14610e65578063ba0cb22b14610ea6578063bb09d9b714610f0b578063bd6d4d7a14610f4c578063c3f5a30514610f8d578063c458d13d14610fb85761029e565b8063894d945314610b255780638da5cb5b14610bf457806390427de114610c355780639f7c607b14610c76578063a16644b114610cb7578063a565758514610cf85761029e565b80634895e543116101fe5780636a9c069b116101b75780636a9c069b146109b957806370de629f146109fa578063715018a614610a3b578063718176e514610a52578063747b5bf914610a93578063808c551f14610ae45761029e565b80634895e543146108475780634c5c1807146108885780634e11280e146108c957806358d1b3021461090a5780635b53a3af1461094b5780635c975abb1461098c5761029e565b80632e2d2984116102505780632e2d2984146104db57806330516cd51461055657806335dd8a441461063b57806342f1cbca1461074a57806345640929146107c557806346cd7d19146108065761029e565b8063034cf3bf146102a3578063040141e51461030857806309cae2c81461034957806316345f18146103ba578063277754ed1461041f57806329a97ec2146104605761029e565b3661029e57005b600080fd5b3480156102af57600080fd5b506102f2600480360360208110156102c657600080fd5b81019080803573ffffffffffffffffffffffffffffffffffffffff1690602001909291905050506114e9565b6040518082815260200191505060405180910390f35b34801561031457600080fd5b5061031d611615565b604051808273ffffffffffffffffffffffffffffffffffffffff16815260200191505060405180910390f35b34801561035557600080fd5b506103b86004803603604081101561036c57600080fd5b81019080803573ffffffffffffffffffffffffffffffffffffffff169060200190929190803573ffffffffffffffffffffffffffffffffffffffff16906020019092919050505061162d565b005b3480156103c657600080fd5b50610409600480360360208110156103dd57600080fd5b81019080803573ffffffffffffffffffffffffffffffffffffffff1690602001909291905050506117a6565b6040518082815260200191505060405180910390f35b34801561042b57600080fd5b5061043461186f565b604051808273ffffffffffffffffffffffffffffffffffffffff16815260200191505060405180910390f35b34801561046c57600080fd5b506104d96004803603606081101561048357600080fd5b81019080803573ffffffffffffffffffffffffffffffffffffffff169060200190929190803573ffffffffffffffffffffffffffffffffffffffff16906020019092919080359060200190929190505050611887565b005b3480156104e757600080fd5b50610554600480360360608110156104fe57600080fd5b8101908080359060200190929190803573ffffffffffffffffffffffffffffffffffffffff169060200190929190803573ffffffffffffffffffffffffffffffffffffffff169060200190929190505050611939565b005b34801561056257600080fd5b506106396004803603604081101561057957600080fd5b81019080803573ffffffffffffffffffffffffffffffffffffffff169060200190929190803590602001906401000000008111156105b657600080fd5b8201836020820111156105c857600080fd5b803590602001918460208302840111640100000000831117156105ea57600080fd5b919080806020026020016040519081016040528093929190818152602001838360200280828437600081840152601f19601f820116905080830192505050505050509192919290505050611a8a565b005b34801561064757600080fd5b506107486004803603608081101561065e57600080fd5b8101908080359060200190929190803573ffffffffffffffffffffffffffffffffffffffff169060200190929190803573ffffffffffffffffffffffffffffffffffffffff169060200190929190803590602001906401000000008111156106c557600080fd5b8201836020820111156106d757600080fd5b803590602001918460208302840111640100000000831117156106f957600080fd5b919080806020026020016040519081016040528093929190818152602001838360200280828437600081840152601f19601f820116905080830192505050505050509192919290505050611fd0565b005b34801561075657600080fd5b506107996004803603602081101561076d57600080fd5b81019080803573ffffffffffffffffffffffffffffffffffffffff169060200190929190505050612280565b604051808273ffffffffffffffffffffffffffffffffffffffff16815260200191505060405180910390f35b3480156107d157600080fd5b506107da6122b3565b604051808273ffffffffffffffffffffffffffffffffffffffff16815260200191505060405180910390f35b34801561081257600080fd5b5061081b6122cb565b604051808273ffffffffffffffffffffffffffffffffffffffff16815260200191505060405180910390f35b34801561085357600080fd5b5061085c6122e3565b604051808273ffffffffffffffffffffffffffffffffffffffff16815260200191505060405180910390f35b34801561089457600080fd5b5061089d6122fb565b604051808273ffffffffffffffffffffffffffffffffffffffff16815260200191505060405180910390f35b3480156108d557600080fd5b506108de612313565b604051808273ffffffffffffffffffffffffffffffffffffffff16815260200191505060405180910390f35b34801561091657600080fd5b5061091f61232b565b604051808273ffffffffffffffffffffffffffffffffffffffff16815260200191505060405180910390f35b34801561095757600080fd5b50610960612343565b604051808273ffffffffffffffffffffffffffffffffffffffff16815260200191505060405180910390f35b34801561099857600080fd5b506109a161235b565b60405180821515815260200191505060405180910390f35b3480156109c557600080fd5b506109ce612371565b604051808273ffffffffffffffffffffffffffffffffffffffff16815260200191505060405180910390f35b348015610a0657600080fd5b50610a0f612389565b604051808273ffffffffffffffffffffffffffffffffffffffff16815260200191505060405180910390f35b348015610a4757600080fd5b50610a506123a1565b005b348015610a5e57600080fd5b50610a6761250e565b604051808273ffffffffffffffffffffffffffffffffffffffff16815260200191505060405180910390f35b348015610a9f57600080fd5b50610ae260048036036020811015610ab657600080fd5b81019080803573ffffffffffffffffffffffffffffffffffffffff169060200190929190505050612526565b005b348015610af057600080fd5b50610af96126da565b604051808273ffffffffffffffffffffffffffffffffffffffff16815260200191505060405180910390f35b348015610b3157600080fd5b50610bf260048036036040811015610b4857600080fd5b810190808035906020019092919080359060200190640100000000811115610b6f57600080fd5b820183602082011115610b8157600080fd5b80359060200191846020830284011164010000000083111715610ba357600080fd5b919080806020026020016040519081016040528093929190818152602001838360200280828437600081840152601f19601f8201169050808301925050505050505091929192905050506126f2565b005b348015610c0057600080fd5b50610c09612ad3565b604051808273ffffffffffffffffffffffffffffffffffffffff16815260200191505060405180910390f35b348015610c4157600080fd5b50610c4a612afc565b604051808273ffffffffffffffffffffffffffffffffffffffff16815260200191505060405180910390f35b348015610c8257600080fd5b50610c8b612b14565b604051808273ffffffffffffffffffffffffffffffffffffffff16815260200191505060405180910390f35b348015610cc357600080fd5b50610ccc612b2c565b604051808273ffffffffffffffffffffffffffffffffffffffff16815260200191505060405180910390f35b348015610d0457600080fd5b50610e6360048036036080811015610d1b57600080fd5b8101908080359060200190640100000000811115610d3857600080fd5b820183602082011115610d4a57600080fd5b80359060200191846020830284011164010000000083111715610d6c57600080fd5b919080806020026020016040519081016040528093929190818152602001838360200280828437600081840152601f19601f82011690508083019250505050505050919291929080359060200190640100000000811115610dcc57600080fd5b820183602082011115610dde57600080fd5b80359060200191846020830284011164010000000083111715610e0057600080fd5b919080806020026020016040519081016040528093929190818152602001838360200280828437600081840152601f19601f8201169050808301925050505050505091929192908035906020019092919080359060200190929190505050612b44565b005b348015610e7157600080fd5b50610e7a612f7b565b604051808273ffffffffffffffffffffffffffffffffffffffff16815260200191505060405180910390f35b348015610eb257600080fd5b50610ef560048036036020811015610ec957600080fd5b81019080803573ffffffffffffffffffffffffffffffffffffffff169060200190929190505050612f93565b6040518082815260200191505060405180910390f35b348015610f1757600080fd5b50610f20612fdc565b604051808273ffffffffffffffffffffffffffffffffffffffff16815260200191505060405180910390f35b348015610f5857600080fd5b50610f61612ff4565b604051808273ffffffffffffffffffffffffffffffffffffffff16815260200191505060405180910390f35b348015610f9957600080fd5b50610fa261300c565b6040518082815260200191505060405180910390f35b348015610fc457600080fd5b50610fcd613012565b604051808273ffffffffffffffffffffffffffffffffffffffff16815260200191505060405180910390f35b34801561100557600080fd5b506110dc6004803603604081101561101c57600080fd5b81019080803573ffffffffffffffffffffffffffffffffffffffff1690602001909291908035906020019064010000000081111561105957600080fd5b82018360208201111561106b57600080fd5b8035906020019184602083028401116401000000008311171561108d57600080fd5b919080806020026020016040519081016040528093929190818152602001838360200280828437600081840152601f19601f82011690508083019250505050505050919291929050505061302a565b005b3480156110ea57600080fd5b506110f36135e7565b604051808273ffffffffffffffffffffffffffffffffffffffff16815260200191505060405180910390f35b34801561112b57600080fd5b506111346135ff565b604051808273ffffffffffffffffffffffffffffffffffffffff16815260200191505060405180910390f35b34801561116c57600080fd5b5061126d6004803603608081101561118357600080fd5b8101908080359060200190929190803573ffffffffffffffffffffffffffffffffffffffff169060200190929190803573ffffffffffffffffffffffffffffffffffffffff169060200190929190803590602001906401000000008111156111ea57600080fd5b8201836020820111156111fc57600080fd5b8035906020019184602083028401116401000000008311171561121e57600080fd5b919080806020026020016040519081016040528093929190818152602001838360200280828437600081840152601f19601f820116905080830192505050505050509192919290505050613617565b005b34801561127b57600080fd5b506112a86004803603602081101561129257600080fd5b81019080803590602001909291905050506136e9565b005b3480156112b657600080fd5b506112bf6137e2565b604051808273ffffffffffffffffffffffffffffffffffffffff16815260200191505060405180910390f35b3480156112f757600080fd5b506113006137fa565b604051808273ffffffffffffffffffffffffffffffffffffffff16815260200191505060405180910390f35b34801561133857600080fd5b50611341613812565b604051808273ffffffffffffffffffffffffffffffffffffffff16815260200191505060405180910390f35b34801561137957600080fd5b506113bc6004803603602081101561139057600080fd5b81019080803573ffffffffffffffffffffffffffffffffffffffff16906020019092919050505061382a565b6040518082815260200191505060405180910390f35b3480156113de57600080fd5b50611421600480360360208110156113f557600080fd5b81019080803573ffffffffffffffffffffffffffffffffffffffff169060200190929190505050613842565b005b34801561142f57600080fd5b506114926004803603604081101561144657600080fd5b81019080803573ffffffffffffffffffffffffffffffffffffffff169060200190929190803573ffffffffffffffffffffffffffffffffffffffff169060200190929190505050613a34565b6040518082815260200191505060405180910390f35b3480156114b457600080fd5b506114bd613ae5565b604051808273ffffffffffffffffffffffffffffffffffffffff16815260200191505060405180910390f35b6000808273ffffffffffffffffffffffffffffffffffffffff1663313ce5676040518163ffffffff1660e01b815260040160206040518083038186803b15801561153257600080fd5b505afa158015611546573d6000803e3d6000fd5b505050506040513d602081101561155c57600080fd5b810190808051906020019092919050505060ff16905061160d60028201600a0a6115ff6115e7600160008873ffffffffffffffffffffffffffffffffffffffff1673ffffffffffffffffffffffffffffffffffffffff16815260200190815260200160002060009054906101000a900473ffffffffffffffffffffffffffffffffffffffff166117a6565b6115f18730613a34565b613b0b90919063ffffffff16565b613b9190919063ffffffff16565b915050919050565b732170ed0880ac9a755fd29b2688956bd959f933f881565b611635613c1a565b73ffffffffffffffffffffffffffffffffffffffff16611653612ad3565b73ffffffffffffffffffffffffffffffffffffffff16146116dc576040517f08c379a00000000000000000000000000000000000000000000000000000000081526004018080602001828103825260208152602001807f4f776e61626c653a2063616c6c6572206973206e6f7420746865206f776e657281525060200191505060405180910390fd5b6116e68183613c22565b60006116f28230613a34565b90508173ffffffffffffffffffffffffffffffffffffffff1663a9059cbb84836040518363ffffffff1660e01b8152600401808373ffffffffffffffffffffffffffffffffffffffff16815260200182815260200192505050602060405180830381600087803b15801561176557600080fd5b505af1158015611779573d6000803e3d6000fd5b505050506040513d602081101561178f57600080fd5b810190808051906020019092919050505050505050565b6000806000806000808673ffffffffffffffffffffffffffffffffffffffff1663feaf968c6040518163ffffffff1660e01b815260040160a06040518083038186803b1580156117f557600080fd5b505afa158015611809573d6000803e3d6000fd5b505050506040513d60a081101561181f57600080fd5b810190808051906020019092919080519060200190929190805190602001909291908051906020019092919080519060200190929190505050945094509450945094508395505050505050919050565b731b02da8cb0d097eb8d57a175b88c7d8b4799750681565b8273ffffffffffffffffffffffffffffffffffffffff1663095ea7b383836040518363ffffffff1660e01b8152600401808373ffffffffffffffffffffffffffffffffffffffff16815260200182815260200192505050602060405180830381600087803b1580156118f857600080fd5b505af115801561190c573d6000803e3d6000fd5b505050506040513d602081101561192257600080fd5b810190808051906020019092919050505050505050565b61194161235b565b156119b4576040517f08c379a00000000000000000000000000000000000000000000000000000000081526004018080602001828103825260108152602001807f5061757361626c653a207061757365640000000000000000000000000000000081525060200191505060405180910390fd5b60008290508073ffffffffffffffffffffffffffffffffffffffff166323b872dd8330876040518463ffffffff1660e01b8152600401808473ffffffffffffffffffffffffffffffffffffffff1681526020018373ffffffffffffffffffffffffffffffffffffffff1681526020018281526020019350505050602060405180830381600087803b158015611a4857600080fd5b505af1158015611a5c573d6000803e3d6000fd5b505050506040513d6020811015611a7257600080fd5b81019080805190602001909291905050505050505050565b611a9261235b565b15611b05576040517f08c379a00000000000000000000000000000000000000000000000000000000081526004018080602001828103825260108152602001807f5061757361626c653a207061757365640000000000000000000000000000000081525060200191505060405180910390fd5b60005b8151811015611ec0576000611b5e600254611b50611b39868681518110611b2b57fe5b602002602001015130613a34565b611b4288612f93565b613b0b90919063ffffffff16565b613b9190919063ffffffff16565b9050611b91838381518110611b6f57fe5b602002602001015173cf0febd3f17cef5b47b0cd257acf6025c5bff3b7613c22565b73bb4cdb9cbd36b01bd1cbaebf2de08d9173bc095c73ffffffffffffffffffffffffffffffffffffffff16838381518110611bc857fe5b602002602001015173ffffffffffffffffffffffffffffffffffffffff161415611d23576060600267ffffffffffffffff81118015611c0657600080fd5b50604051908082528060200260200182016040528015611c355781602001602082028036833780820191505090505b509050838381518110611c4457fe5b602002602001015181600081518110611c5957fe5b602002602001019073ffffffffffffffffffffffffffffffffffffffff16908173ffffffffffffffffffffffffffffffffffffffff1681525050738ac76a51cc950d9822d68b83fe1ad97b32cd580d81600181518110611cb557fe5b602002602001019073ffffffffffffffffffffffffffffffffffffffff16908173ffffffffffffffffffffffffffffffffffffffff1681525050611d1d82600083307fffffffffffffffffffffffffffffffffffffffffffffffffffffffffffffffff613cd8565b50611eb2565b6060600367ffffffffffffffff81118015611d3d57600080fd5b50604051908082528060200260200182016040528015611d6c5781602001602082028036833780820191505090505b509050838381518110611d7b57fe5b602002602001015181600081518110611d9057fe5b602002602001019073ffffffffffffffffffffffffffffffffffffffff16908173ffffffffffffffffffffffffffffffffffffffff168152505073bb4cdb9cbd36b01bd1cbaebf2de08d9173bc095c81600181518110611dec57fe5b602002602001019073ffffffffffffffffffffffffffffffffffffffff16908173ffffffffffffffffffffffffffffffffffffffff1681525050738ac76a51cc950d9822d68b83fe1ad97b32cd580d81600281518110611e4857fe5b602002602001019073ffffffffffffffffffffffffffffffffffffffff16908173ffffffffffffffffffffffffffffffffffffffff1681525050611eb082600083307fffffffffffffffffffffffffffffffffffffffffffffffffffffffffffffffff613cd8565b505b508080600101915050611b08565b50611edf738ac76a51cc950d9822d68b83fe1ad97b32cd580d83613c22565b6000611eff738ac76a51cc950d9822d68b83fe1ad97b32cd580d30613a34565b9050738ac76a51cc950d9822d68b83fe1ad97b32cd580d73ffffffffffffffffffffffffffffffffffffffff1663a9059cbb84836040518363ffffffff1660e01b8152600401808373ffffffffffffffffffffffffffffffffffffffff16815260200182815260200192505050602060405180830381600087803b158015611f8657600080fd5b505af1158015611f9a573d6000803e3d6000fd5b505050506040513d6020811015611fb057600080fd5b810190808051906020019092919050505050611fcb83613f20565b505050565b611fd861235b565b1561204b576040517f08c379a00000000000000000000000000000000000000000000000000000000081526004018080602001828103825260108152602001807f5061757361626c653a207061757365640000000000000000000000000000000081525060200191505060405180910390fd5b60008390508073ffffffffffffffffffffffffffffffffffffffff166323b872dd8430886040518463ffffffff1660e01b8152600401808473ffffffffffffffffffffffffffffffffffffffff1681526020018373ffffffffffffffffffffffffffffffffffffffff1681526020018281526020019350505050602060405180830381600087803b1580156120df57600080fd5b505af11580156120f3573d6000803e3d6000fd5b505050506040513d602081101561210957600080fd5b81019080805190602001909291905050505061214e738ac76a51cc950d9822d68b83fe1ad97b32cd580d73cf0febd3f17cef5b47b0cd257acf6025c5bff3b787611887565b60006060835167ffffffffffffffff8111801561216a57600080fd5b506040519080825280602002602001820160405280156121995781602001602082028036833780820191505090505b50905060005b845181101561222d576121c48582815181106121b757fe5b60200260200101516114e9565b8282815181106121d057fe5b6020026020010181815250506121f88282815181106121eb57fe5b602002602001015161406c565b61221e82828151811061220757fe5b60200260200101518461410590919063ffffffff16565b9250808060010191505061219f565b506122378261406c565b60008211156122635761224c8482848a612b44565b61225e856402540be40084028961418d565b612277565b61226d87856126f2565b61227685614364565b5b50505050505050565b60016020528060005260406000206000915054906101000a900473ffffffffffffffffffffffffffffffffffffffff1681565b73ca236e327f629f9fc2c30a4e95775ebf0b89fac881565b733ee2200efb3400fabb9aacf31297cbdd1d435d4781565b731d2f0da169ceb9fc7b3144628db156f3f6c60dbe81565b733ab0a0d137d4f946fbb19eecc6e92e64660231c881565b7393a67d414896a280bf8ffb3b389fe3686e014fda81565b73ba2ae424d960c26247dd6c32edc70b295c744c4381565b737083609fce4d1d8dc0c979aab8c869ea2c87340281565b60008060149054906101000a900460ff16905090565b73a767f745331d267c7751297d982b050c9398562781565b73bb4cdb9cbd36b01bd1cbaebf2de08d9173bc095c81565b6123a9613c1a565b73ffffffffffffffffffffffffffffffffffffffff166123c7612ad3565b73ffffffffffffffffffffffffffffffffffffffff1614612450576040517f08c379a00000000000000000000000000000000000000000000000000000000081526004018080602001828103825260208152602001807f4f776e61626c653a2063616c6c6572206973206e6f7420746865206f776e657281525060200191505060405180910390fd5b600073ffffffffffffffffffffffffffffffffffffffff1660008054906101000a900473ffffffffffffffffffffffffffffffffffffffff1673ffffffffffffffffffffffffffffffffffffffff167f8be0079c531659141344cd1fd0a4f28419497f9722a3daafe3b4186f6b6457e060405160405180910390a360008060006101000a81548173ffffffffffffffffffffffffffffffffffffffff021916908373ffffffffffffffffffffffffffffffffffffffff160217905550565b739ef1b8c0e4f7dc8bf5719ea496883dc6401d5b2e81565b61252e613c1a565b73ffffffffffffffffffffffffffffffffffffffff1661254c612ad3565b73ffffffffffffffffffffffffffffffffffffffff16146125d5576040517f08c379a00000000000000000000000000000000000000000000000000000000081526004018080602001828103825260208152602001807f4f776e61626c653a2063616c6c6572206973206e6f7420746865206f776e657281525060200191505060405180910390fd5b6125f3738ac76a51cc950d9822d68b83fe1ad97b32cd580d82613c22565b6000612613738ac76a51cc950d9822d68b83fe1ad97b32cd580d30613a34565b9050738ac76a51cc950d9822d68b83fe1ad97b32cd580d73ffffffffffffffffffffffffffffffffffffffff1663a9059cbb83836040518363ffffffff1660e01b8152600401808373ffffffffffffffffffffffffffffffffffffffff16815260200182815260200192505050602060405180830381600087803b15801561269a57600080fd5b505af11580156126ae573d6000803e3d6000fd5b505050506040513d60208110156126c457600080fd5b8101908080519060200190929190505050505050565b737130d2a12b9bcbfae4f2634d864a1ee1ce3ead9c81565b6126fa61235b565b1561276d576040517f08c379a00000000000000000000000000000000000000000000000000000000081526004018080602001828103825260108152602001807f5061757361626c653a207061757365640000000000000000000000000000000081525060200191505060405180910390fd5b60005b8151811015612ace5773bb4cdb9cbd36b01bd1cbaebf2de08d9173bc095c73ffffffffffffffffffffffffffffffffffffffff168282815181106127b057fe5b602002602001015173ffffffffffffffffffffffffffffffffffffffff16141561291f576060600267ffffffffffffffff811180156127ee57600080fd5b5060405190808252806020026020018201604052801561281d5781602001602082028036833780820191505090505b509050738ac76a51cc950d9822d68b83fe1ad97b32cd580d8160008151811061284257fe5b602002602001019073ffffffffffffffffffffffffffffffffffffffff16908173ffffffffffffffffffffffffffffffffffffffff168152505073bb4cdb9cbd36b01bd1cbaebf2de08d9173bc095c8160018151811061289e57fe5b602002602001019073ffffffffffffffffffffffffffffffffffffffff16908173ffffffffffffffffffffffffffffffffffffffff16815250506129196128ef845186613b9190919063ffffffff16565b600083307fffffffffffffffffffffffffffffffffffffffffffffffffffffffffffffffff613cd8565b50612ac1565b6060600367ffffffffffffffff8111801561293957600080fd5b506040519080825280602002602001820160405280156129685781602001602082028036833780820191505090505b509050738ac76a51cc950d9822d68b83fe1ad97b32cd580d8160008151811061298d57fe5b602002602001019073ffffffffffffffffffffffffffffffffffffffff16908173ffffffffffffffffffffffffffffffffffffffff168152505073bb4cdb9cbd36b01bd1cbaebf2de08d9173bc095c816001815181106129e957fe5b602002602001019073ffffffffffffffffffffffffffffffffffffffff16908173ffffffffffffffffffffffffffffffffffffffff1681525050828281518110612a2f57fe5b602002602001015181600281518110612a4457fe5b602002602001019073ffffffffffffffffffffffffffffffffffffffff16908173ffffffffffffffffffffffffffffffffffffffff1681525050612abf612a95845186613b9190919063ffffffff16565b600083307fffffffffffffffffffffffffffffffffffffffffffffffffffffffffffffffff613cd8565b505b8080600101915050612770565b505050565b60008060009054906101000a900473ffffffffffffffffffffffffffffffffffffffff16905090565b73cf0febd3f17cef5b47b0cd257acf6025c5bff3b781565b7374e72f37a8c415c8f1a98ed42e78ff997435791d81565b730567f2323251f0aab15c8dfb1967e4e8a7d42aee81565b612b4c61235b565b15612bbf576040517f08c379a00000000000000000000000000000000000000000000000000000000081526004018080602001828103825260108152602001807f5061757361626c653a207061757365640000000000000000000000000000000081525060200191505060405180910390fd5b60005b8451811015612f745773bb4cdb9cbd36b01bd1cbaebf2de08d9173bc095c73ffffffffffffffffffffffffffffffffffffffff16858281518110612c0257fe5b602002602001015173ffffffffffffffffffffffffffffffffffffffff161415612d9b576060600267ffffffffffffffff81118015612c4057600080fd5b50604051908082528060200260200182016040528015612c6f5781602001602082028036833780820191505090505b509050738ac76a51cc950d9822d68b83fe1ad97b32cd580d81600081518110612c9457fe5b602002602001019073ffffffffffffffffffffffffffffffffffffffff16908173ffffffffffffffffffffffffffffffffffffffff168152505073bb4cdb9cbd36b01bd1cbaebf2de08d9173bc095c81600181518110612cf057fe5b602002602001019073ffffffffffffffffffffffffffffffffffffffff16908173ffffffffffffffffffffffffffffffffffffffff16815250506000612d6485612d5686898781518110612d4057fe5b6020026020010151613b0b90919063ffffffff16565b613b9190919063ffffffff16565b9050612d9481600084307fffffffffffffffffffffffffffffffffffffffffffffffffffffffffffffffff613cd8565b5050612f67565b6060600367ffffffffffffffff81118015612db557600080fd5b50604051908082528060200260200182016040528015612de45781602001602082028036833780820191505090505b509050738ac76a51cc950d9822d68b83fe1ad97b32cd580d81600081518110612e0957fe5b602002602001019073ffffffffffffffffffffffffffffffffffffffff16908173ffffffffffffffffffffffffffffffffffffffff168152505073bb4cdb9cbd36b01bd1cbaebf2de08d9173bc095c81600181518110612e6557fe5b602002602001019073ffffffffffffffffffffffffffffffffffffffff16908173ffffffffffffffffffffffffffffffffffffffff1681525050858281518110612eab57fe5b602002602001015181600281518110612ec057fe5b602002602001019073ffffffffffffffffffffffffffffffffffffffff16908173ffffffffffffffffffffffffffffffffffffffff16815250506000612f3485612f2686898781518110612f1057fe5b6020026020010151613b0b90919063ffffffff16565b613b9190919063ffffffff16565b9050612f6481600084307fffffffffffffffffffffffffffffffffffffffffffffffffffffffffffffffff613cd8565b50505b8080600101915050612bc2565b5050505050565b73264990fbd0a4796a3e3d8e37c4d5f87a3aca5ebf81565b6000600360008373ffffffffffffffffffffffffffffffffffffffff1673ffffffffffffffffffffffffffffffffffffffff168152602001908152602001600020549050919050565b738ac76a51cc950d9822d68b83fe1ad97b32cd580d81565b734338665cbb7b2485a8855a139b75d5e34ab0db9481565b60025481565b73b57f259e7c24e56a1da00f66b55a5640d9f9e7e481565b61303261235b565b6130a4576040517f08c379a00000000000000000000000000000000000000000000000000000000081526004018080602001828103825260148152602001807f5061757361626c653a206e6f742070617573656400000000000000000000000081525060200191505060405180910390fd5b6130ac613c1a565b73ffffffffffffffffffffffffffffffffffffffff166130ca612ad3565b73ffffffffffffffffffffffffffffffffffffffff1614613153576040517f08c379a00000000000000000000000000000000000000000000000000000000081526004018080602001828103825260208152602001807f4f776e61626c653a2063616c6c6572206973206e6f7420746865206f776e657281525060200191505060405180910390fd5b60005b81518110156134e05761319082828151811061316e57fe5b602002602001015173cf0febd3f17cef5b47b0cd257acf6025c5bff3b7613c22565b60006131af8383815181106131a157fe5b602002602001015130613a34565b905073bb4cdb9cbd36b01bd1cbaebf2de08d9173bc095c73ffffffffffffffffffffffffffffffffffffffff168383815181106131e857fe5b602002602001015173ffffffffffffffffffffffffffffffffffffffff161415613343576060600267ffffffffffffffff8111801561322657600080fd5b506040519080825280602002602001820160405280156132555781602001602082028036833780820191505090505b50905083838151811061326457fe5b60200260200101518160008151811061327957fe5b602002602001019073ffffffffffffffffffffffffffffffffffffffff16908173ffffffffffffffffffffffffffffffffffffffff1681525050738ac76a51cc950d9822d68b83fe1ad97b32cd580d816001815181106132d557fe5b602002602001019073ffffffffffffffffffffffffffffffffffffffff16908173ffffffffffffffffffffffffffffffffffffffff168152505061333d82600083307fffffffffffffffffffffffffffffffffffffffffffffffffffffffffffffffff613cd8565b506134d2565b6060600367ffffffffffffffff8111801561335d57600080fd5b5060405190808252806020026020018201604052801561338c5781602001602082028036833780820191505090505b50905083838151811061339b57fe5b6020026020010151816000815181106133b057fe5b602002602001019073ffffffffffffffffffffffffffffffffffffffff16908173ffffffffffffffffffffffffffffffffffffffff168152505073bb4cdb9cbd36b01bd1cbaebf2de08d9173bc095c8160018151811061340c57fe5b602002602001019073ffffffffffffffffffffffffffffffffffffffff16908173ffffffffffffffffffffffffffffffffffffffff1681525050738ac76a51cc950d9822d68b83fe1ad97b32cd580d8160028151811061346857fe5b602002602001019073ffffffffffffffffffffffffffffffffffffffff16908173ffffffffffffffffffffffffffffffffffffffff16815250506134d082600083307fffffffffffffffffffffffffffffffffffffffffffffffffffffffffffffffff613cd8565b505b508080600101915050613156565b506134ff738ac76a51cc950d9822d68b83fe1ad97b32cd580d83613c22565b600061351f738ac76a51cc950d9822d68b83fe1ad97b32cd580d30613a34565b9050738ac76a51cc950d9822d68b83fe1ad97b32cd580d73ffffffffffffffffffffffffffffffffffffffff1663a9059cbb84836040518363ffffffff1660e01b8152600401808373ffffffffffffffffffffffffffffffffffffffff16815260200182815260200192505050602060405180830381600087803b1580156135a657600080fd5b505af11580156135ba573d6000803e3d6000fd5b505050506040513d60208110156135d057600080fd5b810190808051906020019092919050505050505050565b73bf5140a22578168fd562dccf235e5d43a02ce9b181565b73570a5d26f7765ecb712c0924e4de545b89fd43df81565b61361f61235b565b15613692576040517f08c379a00000000000000000000000000000000000000000000000000000000081526004018080602001828103825260108152602001807f5061757361626c653a207061757365640000000000000000000000000000000081525060200191505060405180910390fd5b61369d848484611939565b6136d0738ac76a51cc950d9822d68b83fe1ad97b32cd580d73cf0febd3f17cef5b47b0cd257acf6025c5bff3b786611887565b6136da84826126f2565b6136e382614364565b50505050565b6136f1613c1a565b73ffffffffffffffffffffffffffffffffffffffff1661370f612ad3565b73ffffffffffffffffffffffffffffffffffffffff1614613798576040517f08c379a00000000000000000000000000000000000000000000000000000000081526004018080602001828103825260208152602001807f4f776e61626c653a2063616c6c6572206973206e6f7420746865206f776e657281525060200191505060405180910390fd5b3373ffffffffffffffffffffffffffffffffffffffff166108fc829081150290604051600060405180830381858888f193505050501580156137de573d6000803e3d6000fd5b5050565b73c333eb0086309a16aa7c8308dfd32c8bba0a259281565b730e8a53dd9c13589df6382f13da6b3ec8f919b32381565b73f8a0bf9cf54bb92f17374d9e9a321e6a111a51bd81565b60036020528060005260406000206000915090505481565b61384a613c1a565b73ffffffffffffffffffffffffffffffffffffffff16613868612ad3565b73ffffffffffffffffffffffffffffffffffffffff16146138f1576040517f08c379a00000000000000000000000000000000000000000000000000000000081526004018080602001828103825260208152602001807f4f776e61626c653a2063616c6c6572206973206e6f7420746865206f776e657281525060200191505060405180910390fd5b600073ffffffffffffffffffffffffffffffffffffffff168173ffffffffffffffffffffffffffffffffffffffff161415613977576040517f08c379a00000000000000000000000000000000000000000000000000000000081526004018080602001828103825260268152602001806144e26026913960400191505060405180910390fd5b8073ffffffffffffffffffffffffffffffffffffffff1660008054906101000a900473ffffffffffffffffffffffffffffffffffffffff1673ffffffffffffffffffffffffffffffffffffffff167f8be0079c531659141344cd1fd0a4f28419497f9722a3daafe3b4186f6b6457e060405160405180910390a3806000806101000a81548173ffffffffffffffffffffffffffffffffffffffff021916908373ffffffffffffffffffffffffffffffffffffffff16021790555050565b6000808390508073ffffffffffffffffffffffffffffffffffffffff166370a08231846040518263ffffffff1660e01b8152600401808273ffffffffffffffffffffffffffffffffffffffff16815260200191505060206040518083038186803b158015613aa157600080fd5b505afa158015613ab5573d6000803e3d6000fd5b505050506040513d6020811015613acb57600080fd5b810190808051906020019092919050505091505092915050565b600460009054906101000a900473ffffffffffffffffffffffffffffffffffffffff1681565b600080831415613b1e5760009050613b8b565b6000828402905082848281613b2f57fe5b0414613b86576040517f08c379a00000000000000000000000000000000000000000000000000000000081526004018080602001828103825260218152602001806145086021913960400191505060405180910390fd5b809150505b92915050565b6000808211613c08576040517f08c379a000000000000000000000000000000000000000000000000000000000815260040180806020018281038252601a8152602001807f536166654d6174683a206469766973696f6e206279207a65726f00000000000081525060200191505060405180910390fd5b818381613c1157fe5b04905092915050565b600033905090565b60008273ffffffffffffffffffffffffffffffffffffffff166370a08231306040518263ffffffff1660e01b8152600401808273ffffffffffffffffffffffffffffffffffffffff16815260200191505060206040518083038186803b158015613c8b57600080fd5b505afa158015613c9f573d6000803e3d6000fd5b505050506040513d6020811015613cb557600080fd5b81019080805190602001909291905050509050613cd3838383611887565b505050565b600460009054906101000a900473ffffffffffffffffffffffffffffffffffffffff1673ffffffffffffffffffffffffffffffffffffffff166338ed173986868686866040518663ffffffff1660e01b815260040180868152602001858152602001806020018473ffffffffffffffffffffffffffffffffffffffff168152602001838152602001828103825285818151815260200191508051906020019060200280838360005b83811015613d9b578082015181840152602081019050613d80565b505050509050019650505050505050600060405180830381600087803b158015613dc457600080fd5b505af1925050508015613e9257506040513d6000823e3d601f19601f820116820180604052506020811015613df857600080fd5b8101908080516040519392919084640100000000821115613e1857600080fd5b83820191506020820185811115613e2e57600080fd5b8251866020820283011164010000000082111715613e4b57600080fd5b8083526020830192505050908051906020019060200280838360005b83811015613e82578082015181840152602081019050613e67565b5050505090500160405250505060015b613ed957613ed46040518060400160405280600b81526020017f73776170206661696c65640000000000000000000000000000000000000000008152506143ba565b613f19565b50613f186040518060400160405280600b81526020017f73776170207061737365640000000000000000000000000000000000000000008152506143ba565b5b5050505050565b6000600360008373ffffffffffffffffffffffffffffffffffffffff1673ffffffffffffffffffffffffffffffffffffffff1681526020019081526020016000205411613fd5576040517f08c379a000000000000000000000000000000000000000000000000000000000815260040180806020018281038252601f8152602001807f4572726f72202d2054686973207573657220686173206e6f207368617265730081525060200191505060405180910390fd5b600360008273ffffffffffffffffffffffffffffffffffffffff1673ffffffffffffffffffffffffffffffffffffffff168152602001908152602001600020546002600082825403925050819055506000600360008373ffffffffffffffffffffffffffffffffffffffff1673ffffffffffffffffffffffffffffffffffffffff1681526020019081526020016000208190555050565b61410281604051602401808281526020019150506040516020818303038152906040527ff5b1bba9000000000000000000000000000000000000000000000000000000007bffffffffffffffffffffffffffffffffffffffffffffffffffffffff19166020820180517bffffffffffffffffffffffffffffffffffffffffffffffffffffffff83818316178352505050506144b8565b50565b600080828401905083811015614183576040517f08c379a000000000000000000000000000000000000000000000000000000000815260040180806020018281038252601b8152602001807f536166654d6174683a206164646974696f6e206f766572666c6f77000000000081525060200191505060405180910390fd5b8091505092915050565b60006141b6836141a860025485613b0b90919063ffffffff16565b613b9190919063ffffffff16565b90506141c18161406c565b6141ca8261406c565b6141d560025461406c565b6141de8361406c565b6141f38160025461410590919063ffffffff16565b6002819055506000600360008673ffffffffffffffffffffffffffffffffffffffff1673ffffffffffffffffffffffffffffffffffffffff1681526020019081526020016000205411156142db5761429381600360008773ffffffffffffffffffffffffffffffffffffffff1673ffffffffffffffffffffffffffffffffffffffff1681526020019081526020016000205461410590919063ffffffff16565b600360008673ffffffffffffffffffffffffffffffffffffffff1673ffffffffffffffffffffffffffffffffffffffff1681526020019081526020016000208190555061435e565b80600360008673ffffffffffffffffffffffffffffffffffffffff1673ffffffffffffffffffffffffffffffffffffffff1681526020019081526020016000208190555061435d6040518060400160405280600881526020017f676f7420686572650000000000000000000000000000000000000000000000008152506143ba565b5b50505050565b6305f5e100600360008373ffffffffffffffffffffffffffffffffffffffff1673ffffffffffffffffffffffffffffffffffffffff168152602001908152602001600020819055506305f5e10060028190555050565b6144b5816040516024018080602001828103825283818151815260200191508051906020019080838360005b838110156144015780820151818401526020810190506143e6565b50505050905090810190601f16801561442e5780820380516001836020036101000a031916815260200191505b50925050506040516020818303038152906040527f41304fac000000000000000000000000000000000000000000000000000000007bffffffffffffffffffffffffffffffffffffffffffffffffffffffff19166020820180517bffffffffffffffffffffffffffffffffffffffffffffffffffffffff83818316178352505050506144b8565b50565b60008151905060006a636f6e736f6c652e6c6f679050602083016000808483855afa505050505056fe4f776e61626c653a206e6577206f776e657220697320746865207a65726f2061646472657373536166654d6174683a206d756c7469706c69636174696f6e206f766572666c6f77a2646970667358221220e72681b0b512a6d4c8fc78b31bdac1b6b86030342c166cbcfba288783013c5e864736f6c634300060c0033",
  "immutableReferences": {},
  "source": "pragma solidity ^0.6.12;\n\n//import statements go here\nimport \"./interfaces/IUniswapV2Router02.sol\";\nimport \"./interfaces/IUniswapV2Router01.sol\";\nimport \"@openzeppelin/contracts/token/ERC20/IERC20.sol\";\nimport \"@openzeppelin/contracts/token/ERC20/ERC20.sol\";\nimport \"@openzeppelin/contracts/math/SafeMath.sol\";\nimport \"@chainlink/contracts/src/v0.6/interfaces/AggregatorV3Interface.sol\";\nimport \"@openzeppelin/contracts/access/Ownable.sol\";\nimport \"@openzeppelin/contracts/utils/Pausable.sol\";\n\nimport \"hardhat/console.sol\";\ncontract CryptoIndexBinance is Ownable, Pausable {\n    using SafeMath for uint256;\n\n    address public constant USDC_ADDRESS = 0x8AC76a51cc950d9822D68b83fE1Ad97B32Cd580d;\n    \n    address public constant BTCB_ADDRESS = 0x7130d2A12B9BCbFAe4f2634d864A1Ee1Ce3Ead9c;\n    address public constant WETH_ADDRESS = 0x2170Ed0880ac9A755fd29B2688956BD959F933F8;\n    address public constant BNB_ADDRESS = 0xbb4CdB9CBd36B01bD1cBaEBF2De08d9173bc095c;\n    address public constant ADA_ADDRESS = 0x3EE2200Efb3400fAbB9AacF31297cBdD1d435D47;\n    address public constant XRP_ADDRESS = 0x1D2F0da169ceB9fC7B3144628dB156f3F6c60dBE;\n    address public constant SOL_ADDRESS = 0x570A5D26f7765Ecb712C0924E4De545B89fD43dF;\n    address public constant DOT_ADDRESS = 0x7083609fCE4d1d8Dc0C979AAb8c869Ea2C873402;\n    address public constant DOGE_ADDRESS = 0xbA2aE424d960c26247Dd6c32edC70B295c744C43;\n    address public constant UNI_ADDRESS = 0xBf5140A22578168FD562DCcF235E5D43A02ce9B1;\n    address public constant LTC_ADDRESS = 0x4338665CBB7B2485A8855A139b75D5e34AB0DB94; \n    address public constant LINK_ADDRESS = 0xF8A0BF9cF54Bb92F17374d9e9A321E6a111a51bD; \n\n    address public constant BTC_USD_ORACLE = 0x264990fbd0A4796A3E3d8E37C4d5F87a3aCa5Ebf;\n    address public constant ETH_USD_ORACLE = 0x9ef1B8c0E4F7dc8bF5719Ea496883DC6401d5b2e;\n    address public constant BNB_USD_ORACLE = 0x0567F2323251f0Aab15c8dFb1967E4e8A7D42aeE;\n    address public constant ADA_USD_ORACLE = 0xa767f745331D267c7751297D982b050c93985627;\n    address public constant XRP_USD_ORACLE = 0x93A67D414896A280bF8FFB3b389fE3686E014fda;\n    address public constant SOL_USD_ORACLE = 0x0E8a53DD9c13589df6382F13dA6B3Ec8F919B323;\n    address public constant DOT_USD_ORACLE = 0xC333eb0086309a16aa7c8308DfD32c8BBA0a2592;\n    address public constant DOGE_USD_ORACLE = 0x3AB0A0d137D4F946fBB19eecc6e92E64660231C8;\n    address public constant UNI_USD_ORACLE = 0xb57f259E7C24e56a1dA00F66b55A5640d9f9E7e4;\n    address public constant LTC_USD_ORACLE = 0x74E72F37A8c415c8f1a98Ed42E78Ff997435791D; \n    address public constant LINK_USD_ORACLE = 0xca236E327F629f9Fc2c30A4E95775EbF0B89fac8;\n\n    mapping (address => address) public oracle_addresses;\n\n    constructor () public {\n        oracle_addresses[BTCB_ADDRESS] = BTC_USD_ORACLE;\n        oracle_addresses[WETH_ADDRESS] = ETH_USD_ORACLE;\n        oracle_addresses[BNB_ADDRESS] = BNB_USD_ORACLE;\n        oracle_addresses[ADA_ADDRESS] = ADA_USD_ORACLE;\n        oracle_addresses[XRP_ADDRESS] = XRP_USD_ORACLE;\n        oracle_addresses[SOL_ADDRESS] = SOL_USD_ORACLE;\n        oracle_addresses[DOT_ADDRESS] = DOT_USD_ORACLE;\n        oracle_addresses[DOGE_ADDRESS] = DOGE_USD_ORACLE;\n        oracle_addresses[UNI_ADDRESS] = UNI_USD_ORACLE;\n        oracle_addresses[LTC_ADDRESS] = LTC_USD_ORACLE;\n        oracle_addresses[LINK_ADDRESS] = LINK_USD_ORACLE;\n\n    }\n    address public constant SUSHISWAP_ROUTER = 0x1b02dA8Cb0d097eB8D57A175b88c7D8b47997506;\n    address public constant APESWAP_ROUTER = 0xcF0feBd3f17CEf5b47b0cD257aCf6025c5BFf3b7;\n\n    uint256 public totalNumberOfShares;\n    mapping(address => uint256) public userNumberOfShares; \n\n    IUniswapV2Router02 public router = IUniswapV2Router02(APESWAP_ROUTER);\n    //more variables here\n    // constructor() autoBalancer public {\n    // } \n    \n    /**\n     * Returns the latest price\n     */\n    function getLatestPrice(address _oracle_address) public view returns (int) {\n        (\n            uint80 roundID, \n            int price,\n            uint startedAt,\n            uint timeStamp,\n            uint80 answeredInRound\n        ) = AggregatorV3Interface(_oracle_address).latestRoundData();\n        return price;\n    }\n\n    function updateSharesOnWithdrawal(address user) private { //make this ownable - only contract itself can update this?\n        require (userNumberOfShares[user] > 0, \"Error - This user has no shares\");\n        totalNumberOfShares -= userNumberOfShares[user];\n        userNumberOfShares[user] = 0;\n    }\n\n    function getUserShares(address user) public view returns (uint256 userShares) {\n        return userNumberOfShares[user];\n    }\n\n    function approve_spending (address token_address, address spender_address, uint256 amount_to_approve) public {\n            IERC20(token_address).approve(spender_address, amount_to_approve);\n    }\n    \n     receive() external payable {\n    }\n\n    function deposit (uint256 _amount, address token_address, address address_from) public whenNotPaused {\n        IERC20 token_ = IERC20(token_address);\n\n        token_.transferFrom(\n            address_from, \n            address(this), \n            _amount\n        );\n    }\n\n    function depositFirstTime (uint256 _amount, address deposit_token_address, address address_from, address[] memory token_addresses) public whenNotPaused {\n        deposit(_amount, deposit_token_address, address_from);\n\n        approve_spending(USDC_ADDRESS, APESWAP_ROUTER, _amount);\n\n        swapIntoNEqualParts(_amount, token_addresses);\n\n        setSharesFirstTime(address_from);\n    }\n\n    function depositUserFunds (uint256 amount_, address token_address, address address_from, address[] memory token_addresses) public whenNotPaused {\n        // TO DO - replace with deposit(amount_, token_address, address_from);\n        IERC20 token_ = IERC20(token_address);\n\n        token_.transferFrom(\n            address_from, \n            address(this), \n            amount_\n        );\n\n        approve_spending(USDC_ADDRESS, APESWAP_ROUTER, amount_);\n\n        //here we need to figure out what we're dealing with... take token_addresses and get USDbalances\n        uint256 Total_in_USD;\n        uint256[] memory token_USD_balances = new uint256[](token_addresses.length);\n\n        for (uint i; i<token_addresses.length; i++) {\n            token_USD_balances[i] = getUSDBalanceOf(token_addresses[i]);\n            console.log(token_USD_balances[i]);\n            Total_in_USD = Total_in_USD.add(token_USD_balances[i]);\n        }\n        console.log(Total_in_USD);\n\n        if (Total_in_USD > 0) {\n            swapProportionately(token_addresses, token_USD_balances, Total_in_USD, amount_);\n            updateSharesOnDeposit(address_from, Total_in_USD*10**10, amount_); //from 8 decimals to 18 decimals\n        } else {\n            swapIntoNEqualParts(amount_, token_addresses);\n            setSharesFirstTime(address_from);\n        }\n    }\n\n    function getUSDBalanceOf(address token_address) public view returns (uint256) {\n        uint256 token_decimals = ERC20(token_address).decimals();\n        return balanceOf(token_address, address(this))\n        .mul(uint256(getLatestPrice(oracle_addresses[token_address])))\n        .div(10**(token_decimals+2));\n    }\n\n    function swapProportionately(\n        address[] memory token_addresses, \n        uint256[] memory token_USD_balances, \n        uint256 totalUSDAmount, \n        uint256 depositAmount\n        ) public whenNotPaused\n        {\n            for (uint i; i<token_addresses.length; i++) {\n                if (token_addresses[i] == BNB_ADDRESS) {\n                    address[] memory _path = new address[](2);\n                    _path[0] = USDC_ADDRESS;\n                    _path[1] = BNB_ADDRESS;\n\n                    uint256 token_share = token_USD_balances[i].mul(depositAmount).div(totalUSDAmount);\n                    swap(token_share, uint256(0), _path, address(this), uint256(-1));\n                } else {\n                    address[] memory _path = new address[](3);\n                    _path[0] = USDC_ADDRESS;\n                    _path[1] = BNB_ADDRESS;\n                    _path[2] = token_addresses[i];\n\n                    uint256 token_share = token_USD_balances[i].mul(depositAmount).div(totalUSDAmount);\n                    swap(token_share, uint256(0), _path, address(this), uint256(-1));\n                }\n            }\n    }\n\n    function swapIntoNEqualParts(uint256 amount, address[] memory token_addresses) public whenNotPaused {\n        for (uint i; i<token_addresses.length; i++) {\n            if (token_addresses[i] == BNB_ADDRESS) {\n                address[] memory _path = new address[](2);\n                _path[0] = USDC_ADDRESS;\n                _path[1] = BNB_ADDRESS;\n                swap(amount.div(token_addresses.length), uint256(0), _path, address(this), uint256(-1));\n            } else {\n                address[] memory _path = new address[](3);\n                _path[0] = USDC_ADDRESS;\n                _path[1] = BNB_ADDRESS;\n                _path[2] = token_addresses[i];\n                swap(amount.div(token_addresses.length), uint256(0), _path, address(this), uint256(-1));\n            }\n        }\n    }\n\n    function setSharesFirstTime(address user) private {\n        userNumberOfShares[user] = 100000000;\n        totalNumberOfShares = 100000000;\n    }\n\n    function updateSharesOnDeposit(address user, uint256 total_in_USD, uint256 deposit_amount) private { //make this ownable - only contract itself can update this?\n        uint256 newSharesForUser = deposit_amount.mul(totalNumberOfShares).div(total_in_USD);\n        console.log(newSharesForUser);\n        console.log(deposit_amount);\n        console.log(totalNumberOfShares);\n        console.log(total_in_USD);\n        totalNumberOfShares = totalNumberOfShares.add(newSharesForUser);\n        if (userNumberOfShares[user] > 0) {\n            userNumberOfShares[user] = userNumberOfShares[user].add(newSharesForUser);\n        } else {\n            userNumberOfShares[user] = newSharesForUser;\n            console.log(\"got here\");\n        }\n    }\n\n\n    function withdrawUserFunds(address user, address[] memory token_addresses) public whenNotPaused {\n\n        for (uint i; i<token_addresses.length; i++) {\n            uint256 token_amount = getUserShares(user).mul(balanceOf(token_addresses[i], address(this))).div(totalNumberOfShares);\n            approveSpendingWholeBalance(token_addresses[i], APESWAP_ROUTER);\n            if (token_addresses[i] == BNB_ADDRESS) {\n                address[] memory _path = new address[](2);\n                _path[0] = token_addresses[i];\n                _path[1] = USDC_ADDRESS;\n                swap(token_amount, uint256(0), _path, address(this), uint256(-1));\n            } else {\n                address[] memory _path = new address[](3);\n                _path[0] = token_addresses[i];\n                _path[1] = BNB_ADDRESS;\n                _path[2] = USDC_ADDRESS;\n                swap(token_amount, uint256(0), _path, address(this), uint256(-1));\n            }\n        }\n\n        approveSpendingWholeBalance(USDC_ADDRESS, user);\n        \n        uint256 USDC_amount = balanceOf(USDC_ADDRESS, address(this));\n        IERC20(USDC_ADDRESS).transfer(user, USDC_amount);\n\n        updateSharesOnWithdrawal(user);\n    }\n\nfunction emergencyWithdrawAll(address user, address[] memory token_addresses) public whenPaused onlyOwner {\n\n        for (uint i; i<token_addresses.length; i++) {\n            approveSpendingWholeBalance(token_addresses[i], APESWAP_ROUTER);\n            uint256 token_amount = balanceOf(token_addresses[i], address(this));\n            if (token_addresses[i] == BNB_ADDRESS) {\n                address[] memory _path = new address[](2);\n                _path[0] = token_addresses[i];\n                _path[1] = USDC_ADDRESS;\n                swap(token_amount, uint256(0), _path, address(this), uint256(-1));\n            } else {\n                address[] memory _path = new address[](3);\n                _path[0] = token_addresses[i];\n                _path[1] = BNB_ADDRESS;\n                _path[2] = USDC_ADDRESS;\n                swap(token_amount, uint256(0), _path, address(this), uint256(-1));\n            }\n        }\n\n        approveSpendingWholeBalance(USDC_ADDRESS, user);\n        \n        uint256 USDC_amount = balanceOf(USDC_ADDRESS, address(this));\n        IERC20(USDC_ADDRESS).transfer(user, USDC_amount);\n\n        //resetShares(); perhaps implement in future?\n    }\n\n    function executeNSwaps(\n        address[] memory _from, address[] memory _to, uint256[] memory _amount\n        ) private {\n            for (uint i=0; i<_from.length; i++) {\n            executeRebalancingSwap(_from[i], _to[i], _amount[i]);\n            }\n    }\n\n    function executeRebalancingSwap(address _tokenToSwap, address _tokenSwappingTo, uint256 _amountToBeSwapped) private {\n        approve_spending(_tokenToSwap, APESWAP_ROUTER, _amountToBeSwapped);\n        if (_tokenToSwap == BNB_ADDRESS || _tokenSwappingTo == BNB_ADDRESS) {\n            address[] memory _path = new address[](2);\n            _path[0] = _tokenToSwap;\n            _path[1] = _tokenSwappingTo;\n            swap(_amountToBeSwapped, uint256(0), _path, address(this), uint256(-1));\n        } else {\n            address[] memory _path = new address[](3);\n            _path[0] = _tokenToSwap;\n            _path[1] = BNB_ADDRESS;\n            _path[2] = _tokenSwappingTo;\n            swap(_amountToBeSwapped, uint256(0), _path, address(this), uint256(-1));\n        }\n        \n    }\n\n    function approveSpendingWholeBalance(address _token, address _spender) private {\n        uint256 tokenBalance = IERC20(_token).balanceOf(address(this));\n        approve_spending(_token, _spender, tokenBalance);\n    }\n    \n    function withdraw_matic(uint256 amount_) public onlyOwner {\n        msg.sender.transfer(amount_); //TODO - change?\n    }\n\n    function withdrawAllUSDC(address _user) public onlyOwner {\n        approveSpendingWholeBalance(USDC_ADDRESS, _user);\n        uint256 USDC_amount = balanceOf(USDC_ADDRESS, address(this));\n        IERC20(USDC_ADDRESS).transfer(_user, USDC_amount);\n    }\n\n    function withdrawAll(address _user, address _token_address) public onlyOwner {\n        approveSpendingWholeBalance(_token_address, _user);\n        uint256 amount = balanceOf(_token_address, address(this));\n        IERC20(_token_address).transfer(_user, amount);\n    }\n\n    function balanceOf(address token_address, address user_address) public view returns (uint256 token_balance) {\n        IERC20 _token = IERC20(token_address);\n        token_balance = _token.balanceOf(user_address);\n        return token_balance;\n    }\n    \n    function swap(uint256 _amountIn, uint256 _amountOutMin, address[] memory _path, address _acct, uint256 _deadline) private {\n        \n       try router.swapExactTokensForTokens(\n            _amountIn,\n            _amountOutMin,\n            _path,\n            _acct,\n            _deadline) {\n                console.log(\"swap passed\");\n            } catch {\n                console.log(\"swap failed\");\n                //could repeat the swap call here? with an if errorCount conditional...\n            }\n        }      \n    }\n    \n\n    ",
  "sourcePath": "/Users/richardjamieson/Documents/GitHub/CryptoIndex/contracts/CryptoIndexBinance.sol",
  "compiler": {
    "name": "solc",
    "version": "0.6.12+commit.27d51765.Emscripten.clang"
  },
  "schemaVersion": "3.4.3",
  "updatedAt": "2021-11-03T07:52:11.628Z",
  "devdoc": {
    "kind": "dev",
    "methods": {
      "owner()": {
        "details": "Returns the address of the current owner."
      },
      "paused()": {
        "details": "Returns true if the contract is paused, and false otherwise."
      },
      "renounceOwnership()": {
        "details": "Leaves the contract without owner. It will not be possible to call `onlyOwner` functions anymore. Can only be called by the current owner. NOTE: Renouncing ownership will leave the contract without an owner, thereby removing any functionality that is only available to the owner."
      },
      "transferOwnership(address)": {
        "details": "Transfers ownership of the contract to a new account (`newOwner`). Can only be called by the current owner."
      }
    },
    "version": 1
  },
  "userdoc": {
    "kind": "user",
    "methods": {
      "getLatestPrice(address)": {
        "notice": "Returns the latest price"
      }
    },
    "version": 1
  }
}