{
  "contractName": "SushiIndex",
  "abi": [
    {
      "inputs": [],
      "name": "SUSHISWAP_ROUTER",
      "outputs": [
        {
          "internalType": "address",
          "name": "",
          "type": "address"
        }
      ],
      "stateMutability": "view",
      "type": "function",
      "constant": true
    },
    {
      "inputs": [
        {
          "internalType": "uint256",
          "name": "",
          "type": "uint256"
        }
      ],
      "name": "SUSHIToUSDCPath",
      "outputs": [
        {
          "internalType": "address",
          "name": "",
          "type": "address"
        }
      ],
      "stateMutability": "view",
      "type": "function",
      "constant": true
    },
    {
      "inputs": [],
      "name": "SUSHI_ADDRESS",
      "outputs": [
        {
          "internalType": "address",
          "name": "",
          "type": "address"
        }
      ],
      "stateMutability": "view",
      "type": "function",
      "constant": true
    },
    {
      "inputs": [
        {
          "internalType": "uint256",
          "name": "",
          "type": "uint256"
        }
      ],
      "name": "USDCToSUSHIPath",
      "outputs": [
        {
          "internalType": "address",
          "name": "",
          "type": "address"
        }
      ],
      "stateMutability": "view",
      "type": "function",
      "constant": true
    },
    {
      "inputs": [
        {
          "internalType": "uint256",
          "name": "",
          "type": "uint256"
        }
      ],
      "name": "USDCToWBTCPath",
      "outputs": [
        {
          "internalType": "address",
          "name": "",
          "type": "address"
        }
      ],
      "stateMutability": "view",
      "type": "function",
      "constant": true
    },
    {
      "inputs": [
        {
          "internalType": "uint256",
          "name": "",
          "type": "uint256"
        }
      ],
      "name": "USDCToWETHPath",
      "outputs": [
        {
          "internalType": "address",
          "name": "",
          "type": "address"
        }
      ],
      "stateMutability": "view",
      "type": "function",
      "constant": true
    },
    {
      "inputs": [
        {
          "internalType": "uint256",
          "name": "",
          "type": "uint256"
        }
      ],
      "name": "USDCToWONEPath",
      "outputs": [
        {
          "internalType": "address",
          "name": "",
          "type": "address"
        }
      ],
      "stateMutability": "view",
      "type": "function",
      "constant": true
    },
    {
      "inputs": [],
      "name": "USDC_ADDRESS",
      "outputs": [
        {
          "internalType": "address",
          "name": "",
          "type": "address"
        }
      ],
      "stateMutability": "view",
      "type": "function",
      "constant": true
    },
    {
      "inputs": [
        {
          "internalType": "uint256",
          "name": "",
          "type": "uint256"
        }
      ],
      "name": "WBTCToUSDCPath",
      "outputs": [
        {
          "internalType": "address",
          "name": "",
          "type": "address"
        }
      ],
      "stateMutability": "view",
      "type": "function",
      "constant": true
    },
    {
      "inputs": [],
      "name": "WBTC_ADDRESS",
      "outputs": [
        {
          "internalType": "address",
          "name": "",
          "type": "address"
        }
      ],
      "stateMutability": "view",
      "type": "function",
      "constant": true
    },
    {
      "inputs": [
        {
          "internalType": "uint256",
          "name": "",
          "type": "uint256"
        }
      ],
      "name": "WETHToUSDCPath",
      "outputs": [
        {
          "internalType": "address",
          "name": "",
          "type": "address"
        }
      ],
      "stateMutability": "view",
      "type": "function",
      "constant": true
    },
    {
      "inputs": [],
      "name": "WETH_ADDRESS",
      "outputs": [
        {
          "internalType": "address",
          "name": "",
          "type": "address"
        }
      ],
      "stateMutability": "view",
      "type": "function",
      "constant": true
    },
    {
      "inputs": [
        {
          "internalType": "uint256",
          "name": "",
          "type": "uint256"
        }
      ],
      "name": "WONEToUSDCPath",
      "outputs": [
        {
          "internalType": "address",
          "name": "",
          "type": "address"
        }
      ],
      "stateMutability": "view",
      "type": "function",
      "constant": true
    },
    {
      "inputs": [],
      "name": "WONE_ADDRESS",
      "outputs": [
        {
          "internalType": "address",
          "name": "",
          "type": "address"
        }
      ],
      "stateMutability": "view",
      "type": "function",
      "constant": true
    },
    {
      "inputs": [],
      "name": "sushiSwapRouter",
      "outputs": [
        {
          "internalType": "contract IUniswapV2Router02",
          "name": "",
          "type": "address"
        }
      ],
      "stateMutability": "view",
      "type": "function",
      "constant": true
    },
    {
      "inputs": [],
      "name": "totalNumberOfShares",
      "outputs": [
        {
          "internalType": "uint256",
          "name": "",
          "type": "uint256"
        }
      ],
      "stateMutability": "view",
      "type": "function",
      "constant": true
    },
    {
      "inputs": [
        {
          "internalType": "address",
          "name": "",
          "type": "address"
        }
      ],
      "name": "userNumberOfShares",
      "outputs": [
        {
          "internalType": "uint256",
          "name": "",
          "type": "uint256"
        }
      ],
      "stateMutability": "view",
      "type": "function",
      "constant": true
    },
    {
      "stateMutability": "payable",
      "type": "receive",
      "payable": true
    },
    {
      "inputs": [
        {
          "internalType": "address",
          "name": "_oracle_address",
          "type": "address"
        }
      ],
      "name": "getLatestPrice",
      "outputs": [
        {
          "internalType": "int256",
          "name": "",
          "type": "int256"
        }
      ],
      "stateMutability": "view",
      "type": "function",
      "constant": true
    },
    {
      "inputs": [
        {
          "internalType": "address",
          "name": "user",
          "type": "address"
        }
      ],
      "name": "updateSharesOnWithdrawal",
      "outputs": [],
      "stateMutability": "nonpayable",
      "type": "function"
    },
    {
      "inputs": [
        {
          "internalType": "address",
          "name": "user",
          "type": "address"
        }
      ],
      "name": "getUserShares",
      "outputs": [
        {
          "internalType": "uint256",
          "name": "userShares",
          "type": "uint256"
        }
      ],
      "stateMutability": "view",
      "type": "function",
      "constant": true
    },
    {
      "inputs": [
        {
          "internalType": "address",
          "name": "token_address",
          "type": "address"
        },
        {
          "internalType": "address",
          "name": "spender_address",
          "type": "address"
        },
        {
          "internalType": "uint256",
          "name": "amount_to_approve",
          "type": "uint256"
        }
      ],
      "name": "approve_spending",
      "outputs": [],
      "stateMutability": "nonpayable",
      "type": "function"
    },
    {
      "inputs": [
        {
          "internalType": "uint256",
          "name": "_amount",
          "type": "uint256"
        },
        {
          "internalType": "address",
          "name": "token_address",
          "type": "address"
        },
        {
          "internalType": "address",
          "name": "address_from",
          "type": "address"
        }
      ],
      "name": "deposit",
      "outputs": [],
      "stateMutability": "nonpayable",
      "type": "function"
    },
    {
      "inputs": [
        {
          "internalType": "uint256",
          "name": "_amount",
          "type": "uint256"
        },
        {
          "internalType": "address",
          "name": "token_address",
          "type": "address"
        },
        {
          "internalType": "address",
          "name": "address_from",
          "type": "address"
        }
      ],
      "name": "depositFirstTime",
      "outputs": [],
      "stateMutability": "nonpayable",
      "type": "function"
    },
    {
      "inputs": [
        {
          "internalType": "uint256",
          "name": "amount_",
          "type": "uint256"
        },
        {
          "internalType": "address",
          "name": "token_address",
          "type": "address"
        },
        {
          "internalType": "address",
          "name": "address_from",
          "type": "address"
        },
        {
          "internalType": "uint256",
          "name": "WONE_balanceInUSD",
          "type": "uint256"
        },
        {
          "internalType": "uint256",
          "name": "SUSHI_balanceInUSD",
          "type": "uint256"
        },
        {
          "internalType": "uint256",
          "name": "WETH_balanceInUSD",
          "type": "uint256"
        },
        {
          "internalType": "uint256",
          "name": "WBTC_balanceInUSD",
          "type": "uint256"
        }
      ],
      "name": "depositUserFunds",
      "outputs": [],
      "stateMutability": "nonpayable",
      "type": "function"
    },
    {
      "inputs": [
        {
          "internalType": "address",
          "name": "token_address",
          "type": "address"
        },
        {
          "internalType": "address",
          "name": "oracle_address",
          "type": "address"
        },
        {
          "internalType": "uint256",
          "name": "token_decimals",
          "type": "uint256"
        }
      ],
      "name": "getUSDBalanceOf",
      "outputs": [
        {
          "internalType": "uint256",
          "name": "",
          "type": "uint256"
        }
      ],
      "stateMutability": "view",
      "type": "function",
      "constant": true
    },
    {
      "inputs": [
        {
          "internalType": "uint256",
          "name": "WONE_amount",
          "type": "uint256"
        },
        {
          "internalType": "uint256",
          "name": "SUSHI_amount",
          "type": "uint256"
        },
        {
          "internalType": "uint256",
          "name": "WETH_amount",
          "type": "uint256"
        },
        {
          "internalType": "uint256",
          "name": "WBTC_amount",
          "type": "uint256"
        },
        {
          "internalType": "uint256",
          "name": "totalUSDAmount",
          "type": "uint256"
        },
        {
          "internalType": "uint256",
          "name": "depositAmount",
          "type": "uint256"
        }
      ],
      "name": "swapProportionately",
      "outputs": [],
      "stateMutability": "nonpayable",
      "type": "function"
    },
    {
      "inputs": [
        {
          "internalType": "uint256",
          "name": "amount",
          "type": "uint256"
        }
      ],
      "name": "swapIntoFourEqualParts",
      "outputs": [],
      "stateMutability": "nonpayable",
      "type": "function"
    },
    {
      "inputs": [
        {
          "internalType": "address",
          "name": "user",
          "type": "address"
        }
      ],
      "name": "setSharesFirstTime",
      "outputs": [],
      "stateMutability": "nonpayable",
      "type": "function"
    },
    {
      "inputs": [
        {
          "internalType": "address",
          "name": "user",
          "type": "address"
        },
        {
          "internalType": "uint256",
          "name": "total_in_USD",
          "type": "uint256"
        },
        {
          "internalType": "uint256",
          "name": "deposit_amount",
          "type": "uint256"
        }
      ],
      "name": "updateSharesOnDeposit",
      "outputs": [],
      "stateMutability": "nonpayable",
      "type": "function"
    },
    {
      "inputs": [
        {
          "internalType": "address",
          "name": "user",
          "type": "address"
        }
      ],
      "name": "withdrawUserFunds",
      "outputs": [],
      "stateMutability": "nonpayable",
      "type": "function"
    },
    {
      "inputs": [
        {
          "internalType": "address",
          "name": "_from1",
          "type": "address"
        },
        {
          "internalType": "address",
          "name": "_to1",
          "type": "address"
        },
        {
          "internalType": "uint256",
          "name": "_amount1",
          "type": "uint256"
        },
        {
          "internalType": "address",
          "name": "_from2",
          "type": "address"
        },
        {
          "internalType": "address",
          "name": "_to2",
          "type": "address"
        },
        {
          "internalType": "uint256",
          "name": "_amount2",
          "type": "uint256"
        },
        {
          "internalType": "address",
          "name": "_from3",
          "type": "address"
        },
        {
          "internalType": "address",
          "name": "_to3",
          "type": "address"
        },
        {
          "internalType": "uint256",
          "name": "_amount3",
          "type": "uint256"
        }
      ],
      "name": "executeThreeSwaps",
      "outputs": [],
      "stateMutability": "nonpayable",
      "type": "function"
    },
    {
      "inputs": [
        {
          "internalType": "address",
          "name": "_tokenToSwap",
          "type": "address"
        },
        {
          "internalType": "address",
          "name": "_tokenSwappingTo",
          "type": "address"
        },
        {
          "internalType": "uint256",
          "name": "_amountToBeSwapped",
          "type": "uint256"
        }
      ],
      "name": "executeRebalancingSwap",
      "outputs": [],
      "stateMutability": "nonpayable",
      "type": "function"
    },
    {
      "inputs": [
        {
          "internalType": "address",
          "name": "_token",
          "type": "address"
        },
        {
          "internalType": "address",
          "name": "_spender",
          "type": "address"
        }
      ],
      "name": "approveSpendingWholeBalance",
      "outputs": [],
      "stateMutability": "nonpayable",
      "type": "function"
    },
    {
      "inputs": [
        {
          "internalType": "uint256",
          "name": "WONE_amount",
          "type": "uint256"
        },
        {
          "internalType": "uint256",
          "name": "SUSHI_amount",
          "type": "uint256"
        },
        {
          "internalType": "uint256",
          "name": "WETH_amount",
          "type": "uint256"
        },
        {
          "internalType": "uint256",
          "name": "WBTC_amount",
          "type": "uint256"
        }
      ],
      "name": "swapFourTokensBackToUSDC",
      "outputs": [],
      "stateMutability": "nonpayable",
      "type": "function"
    },
    {
      "inputs": [
        {
          "internalType": "uint256",
          "name": "amount_",
          "type": "uint256"
        }
      ],
      "name": "withdraw_matic",
      "outputs": [],
      "stateMutability": "nonpayable",
      "type": "function"
    },
    {
      "inputs": [
        {
          "internalType": "address",
          "name": "_user",
          "type": "address"
        }
      ],
      "name": "withdrawAllUSDC",
      "outputs": [],
      "stateMutability": "nonpayable",
      "type": "function"
    },
    {
      "inputs": [
        {
          "internalType": "address",
          "name": "_user",
          "type": "address"
        },
        {
          "internalType": "address",
          "name": "_token_address",
          "type": "address"
        }
      ],
      "name": "withdrawAll",
      "outputs": [],
      "stateMutability": "nonpayable",
      "type": "function"
    },
    {
      "inputs": [
        {
          "internalType": "address",
          "name": "token_address",
          "type": "address"
        },
        {
          "internalType": "address",
          "name": "user_address",
          "type": "address"
        }
      ],
      "name": "balanceOf",
      "outputs": [
        {
          "internalType": "uint256",
          "name": "token_balance",
          "type": "uint256"
        }
      ],
      "stateMutability": "view",
      "type": "function",
      "constant": true
    },
    {
      "inputs": [
        {
          "internalType": "uint256",
          "name": "_amountIn",
          "type": "uint256"
        },
        {
          "internalType": "uint256",
          "name": "_amountOutMin",
          "type": "uint256"
        },
        {
          "internalType": "address[]",
          "name": "_path",
          "type": "address[]"
        },
        {
          "internalType": "address",
          "name": "_acct",
          "type": "address"
        },
        {
          "internalType": "uint256",
          "name": "_deadline",
          "type": "uint256"
        }
      ],
      "name": "swap",
      "outputs": [],
      "stateMutability": "nonpayable",
      "type": "function"
    }
  ],
  "bytecode": "0x6080604052604051806040016040528073985458e523db3d53125813ed68c274899e9dfab473ffffffffffffffffffffffffffffffffffffffff1673ffffffffffffffffffffffffffffffffffffffff16815260200173cf664087a5bb0237a0bad6742852ec6c8d69a27a73ffffffffffffffffffffffffffffffffffffffff1673ffffffffffffffffffffffffffffffffffffffff168152506000906002620000ab92919062000751565b50604051806060016040528073985458e523db3d53125813ed68c274899e9dfab473ffffffffffffffffffffffffffffffffffffffff1673ffffffffffffffffffffffffffffffffffffffff16815260200173cf664087a5bb0237a0bad6742852ec6c8d69a27a73ffffffffffffffffffffffffffffffffffffffff1673ffffffffffffffffffffffffffffffffffffffff16815260200173bec775cb42abfa4288de81f387a9b1a3c4bc552a73ffffffffffffffffffffffffffffffffffffffff1673ffffffffffffffffffffffffffffffffffffffff16815250600190600362000199929190620007e0565b50604051806060016040528073985458e523db3d53125813ed68c274899e9dfab473ffffffffffffffffffffffffffffffffffffffff1673ffffffffffffffffffffffffffffffffffffffff16815260200173cf664087a5bb0237a0bad6742852ec6c8d69a27a73ffffffffffffffffffffffffffffffffffffffff1673ffffffffffffffffffffffffffffffffffffffff168152602001736983d1e6def3690c4d616b13597a09e6193ea01373ffffffffffffffffffffffffffffffffffffffff1673ffffffffffffffffffffffffffffffffffffffff16815250600290600362000287929190620007e0565b50604051806060016040528073985458e523db3d53125813ed68c274899e9dfab473ffffffffffffffffffffffffffffffffffffffff1673ffffffffffffffffffffffffffffffffffffffff16815260200173cf664087a5bb0237a0bad6742852ec6c8d69a27a73ffffffffffffffffffffffffffffffffffffffff1673ffffffffffffffffffffffffffffffffffffffff168152602001733095c7557bcb296ccc6e363de01b760ba031f2d973ffffffffffffffffffffffffffffffffffffffff1673ffffffffffffffffffffffffffffffffffffffff16815250600390600362000375929190620007e0565b50604051806040016040528073cf664087a5bb0237a0bad6742852ec6c8d69a27a73ffffffffffffffffffffffffffffffffffffffff1673ffffffffffffffffffffffffffffffffffffffff16815260200173985458e523db3d53125813ed68c274899e9dfab473ffffffffffffffffffffffffffffffffffffffff1673ffffffffffffffffffffffffffffffffffffffff1681525060049060026200041d92919062000751565b50604051806060016040528073bec775cb42abfa4288de81f387a9b1a3c4bc552a73ffffffffffffffffffffffffffffffffffffffff1673ffffffffffffffffffffffffffffffffffffffff16815260200173cf664087a5bb0237a0bad6742852ec6c8d69a27a73ffffffffffffffffffffffffffffffffffffffff1673ffffffffffffffffffffffffffffffffffffffff16815260200173985458e523db3d53125813ed68c274899e9dfab473ffffffffffffffffffffffffffffffffffffffff1673ffffffffffffffffffffffffffffffffffffffff1681525060059060036200050b929190620007e0565b506040518060600160405280736983d1e6def3690c4d616b13597a09e6193ea01373ffffffffffffffffffffffffffffffffffffffff1673ffffffffffffffffffffffffffffffffffffffff16815260200173cf664087a5bb0237a0bad6742852ec6c8d69a27a73ffffffffffffffffffffffffffffffffffffffff1673ffffffffffffffffffffffffffffffffffffffff16815260200173985458e523db3d53125813ed68c274899e9dfab473ffffffffffffffffffffffffffffffffffffffff1673ffffffffffffffffffffffffffffffffffffffff168152506006906003620005f9929190620007e0565b506040518060600160405280733095c7557bcb296ccc6e363de01b760ba031f2d973ffffffffffffffffffffffffffffffffffffffff1673ffffffffffffffffffffffffffffffffffffffff16815260200173cf664087a5bb0237a0bad6742852ec6c8d69a27a73ffffffffffffffffffffffffffffffffffffffff1673ffffffffffffffffffffffffffffffffffffffff16815260200173985458e523db3d53125813ed68c274899e9dfab473ffffffffffffffffffffffffffffffffffffffff1673ffffffffffffffffffffffffffffffffffffffff168152506007906003620006e7929190620007e0565b50731b02da8cb0d097eb8d57a175b88c7d8b47997506600a60006101000a81548173ffffffffffffffffffffffffffffffffffffffff021916908373ffffffffffffffffffffffffffffffffffffffff1602179055503480156200074a57600080fd5b50620008ac565b828054828255906000526020600020908101928215620007cd579160200282015b82811115620007cc5782518260006101000a81548173ffffffffffffffffffffffffffffffffffffffff021916908373ffffffffffffffffffffffffffffffffffffffff1602179055509160200191906001019062000772565b5b509050620007dc91906200086f565b5090565b8280548282559060005260206000209081019282156200085c579160200282015b828111156200085b5782518260006101000a81548173ffffffffffffffffffffffffffffffffffffffff021916908373ffffffffffffffffffffffffffffffffffffffff1602179055509160200191906001019062000801565b5b5090506200086b91906200086f565b5090565b5b80821115620008a857600081816101000a81549073ffffffffffffffffffffffffffffffffffffffff02191690555060010162000870565b5090565b6133b280620008bc6000396000f3fe6080604052600436106102345760003560e01c8063764f96f91161012e578063bdd5915f116100ab578063de1bc7371161006f578063de1bc7371461101d578063e93ef21a14611076578063ef455bad146110db578063f7888aec14611140578063fd829a23146111c55761023b565b8063bdd5915f14610eac578063c3f5a30514610eed578063ca97090514610f18578063cb3601b114610f7d578063d9155b1114610fe25761023b565b806394191182116100f25780639419118214610ca1578063a15c7d1014610d30578063aa5a7aa314610d95578063ba0cb22b14610e06578063bb09d9b714610e6b5761023b565b8063764f96f9146109ee5780638672d0af14610a5b57806388e42b0814610afe57806390f11e8414610b3957806393248fca14610c3c5761023b565b80632e2d2984116101bc5780634690738c116101805780634690738c146107aa57806352ad2504146107fb5780636583530f1461090b5780636a255ac61461095c578063747b5bf91461099d5761023b565b80632e2d2984146105855780633c64bb52146106005780633f5b948b1461067b57806344250955146106e057806344345f23146107455761023b565b806316873e551161020357806316873e551461039857806324e2e7bb146103fd57806325b12d9b1461044e578063277754ed146104c957806329a97ec21461050a5761023b565b8063040141e51461024057806309cae2c8146102815780630a51faba146102f257806316345f18146103335761023b565b3661023b57005b600080fd5b34801561024c57600080fd5b50610255611206565b604051808273ffffffffffffffffffffffffffffffffffffffff16815260200191505060405180910390f35b34801561028d57600080fd5b506102f0600480360360408110156102a457600080fd5b81019080803573ffffffffffffffffffffffffffffffffffffffff169060200190929190803573ffffffffffffffffffffffffffffffffffffffff16906020019092919050505061121e565b005b3480156102fe57600080fd5b506103076112e8565b604051808273ffffffffffffffffffffffffffffffffffffffff16815260200191505060405180910390f35b34801561033f57600080fd5b506103826004803603602081101561035657600080fd5b81019080803573ffffffffffffffffffffffffffffffffffffffff169060200190929190505050611300565b6040518082815260200191505060405180910390f35b3480156103a457600080fd5b506103d1600480360360208110156103bb57600080fd5b81019080803590602001909291905050506113c9565b604051808273ffffffffffffffffffffffffffffffffffffffff16815260200191505060405180910390f35b34801561040957600080fd5b5061044c6004803603602081101561042057600080fd5b81019080803573ffffffffffffffffffffffffffffffffffffffff169060200190929190505050611405565b005b34801561045a57600080fd5b506104c76004803603606081101561047157600080fd5b8101908080359060200190929190803573ffffffffffffffffffffffffffffffffffffffff169060200190929190803573ffffffffffffffffffffffffffffffffffffffff16906020019092919050505061172b565b005b3480156104d557600080fd5b506104de611780565b604051808273ffffffffffffffffffffffffffffffffffffffff16815260200191505060405180910390f35b34801561051657600080fd5b506105836004803603606081101561052d57600080fd5b81019080803573ffffffffffffffffffffffffffffffffffffffff169060200190929190803573ffffffffffffffffffffffffffffffffffffffff16906020019092919080359060200190929190505050611798565b005b34801561059157600080fd5b506105fe600480360360608110156105a857600080fd5b8101908080359060200190929190803573ffffffffffffffffffffffffffffffffffffffff169060200190929190803573ffffffffffffffffffffffffffffffffffffffff16906020019092919050505061184a565b005b34801561060c57600080fd5b506106796004803603606081101561062357600080fd5b81019080803573ffffffffffffffffffffffffffffffffffffffff169060200190929190803573ffffffffffffffffffffffffffffffffffffffff16906020019092919080359060200190929190505050611920565b005b34801561068757600080fd5b506106b46004803603602081101561069e57600080fd5b8101908080359060200190929190505050611c4e565b604051808273ffffffffffffffffffffffffffffffffffffffff16815260200191505060405180910390f35b3480156106ec57600080fd5b506107436004803603606081101561070357600080fd5b81019080803573ffffffffffffffffffffffffffffffffffffffff1690602001909291908035906020019092919080359060200190929190505050611c8a565b005b34801561075157600080fd5b5061077e6004803603602081101561076857600080fd5b8101908080359060200190929190505050611dfd565b604051808273ffffffffffffffffffffffffffffffffffffffff16815260200191505060405180910390f35b3480156107b657600080fd5b506107f9600480360360208110156107cd57600080fd5b81019080803573ffffffffffffffffffffffffffffffffffffffff169060200190929190505050611e39565b005b34801561080757600080fd5b50610909600480360361012081101561081f57600080fd5b81019080803573ffffffffffffffffffffffffffffffffffffffff169060200190929190803573ffffffffffffffffffffffffffffffffffffffff16906020019092919080359060200190929190803573ffffffffffffffffffffffffffffffffffffffff169060200190929190803573ffffffffffffffffffffffffffffffffffffffff16906020019092919080359060200190929190803573ffffffffffffffffffffffffffffffffffffffff169060200190929190803573ffffffffffffffffffffffffffffffffffffffff16906020019092919080359060200190929190505050611f85565b005b34801561091757600080fd5b5061095a6004803603602081101561092e57600080fd5b81019080803573ffffffffffffffffffffffffffffffffffffffff169060200190929190505050611fb1565b005b34801561096857600080fd5b50610971612007565b604051808273ffffffffffffffffffffffffffffffffffffffff16815260200191505060405180910390f35b3480156109a957600080fd5b506109ec600480360360208110156109c057600080fd5b81019080803573ffffffffffffffffffffffffffffffffffffffff16906020019092919050505061201f565b005b3480156109fa57600080fd5b50610a59600480360360c0811015610a1157600080fd5b81019080803590602001909291908035906020019092919080359060200190929190803590602001909291908035906020019092919080359060200190929190505050612124565b005b348015610a6757600080fd5b50610afc600480360360e0811015610a7e57600080fd5b8101908080359060200190929190803573ffffffffffffffffffffffffffffffffffffffff169060200190929190803573ffffffffffffffffffffffffffffffffffffffff169060200190929190803590602001909291908035906020019092919080359060200190929190803590602001909291905050506124a3565b005b348015610b0a57600080fd5b50610b3760048036036020811015610b2157600080fd5b8101908080359060200190929190505050612626565b005b348015610b4557600080fd5b50610c3a600480360360a0811015610b5c57600080fd5b81019080803590602001909291908035906020019092919080359060200190640100000000811115610b8d57600080fd5b820183602082011115610b9f57600080fd5b80359060200191846020830284011164010000000083111715610bc157600080fd5b919080806020026020016040519081016040528093929190818152602001838360200280828437600081840152601f19601f820116905080830192505050505050509192919290803573ffffffffffffffffffffffffffffffffffffffff16906020019092919080359060200190929190505050612944565b005b348015610c4857600080fd5b50610c7560048036036020811015610c5f57600080fd5b8101908080359060200190929190505050612b0d565b604051808273ffffffffffffffffffffffffffffffffffffffff16815260200191505060405180910390f35b348015610cad57600080fd5b50610d1a60048036036060811015610cc457600080fd5b81019080803573ffffffffffffffffffffffffffffffffffffffff169060200190929190803573ffffffffffffffffffffffffffffffffffffffff16906020019092919080359060200190929190505050612b49565b6040518082815260200191505060405180910390f35b348015610d3c57600080fd5b50610d6960048036036020811015610d5357600080fd5b8101908080359060200190929190505050612b90565b604051808273ffffffffffffffffffffffffffffffffffffffff16815260200191505060405180910390f35b348015610da157600080fd5b50610e0460048036036040811015610db857600080fd5b81019080803573ffffffffffffffffffffffffffffffffffffffff169060200190929190803573ffffffffffffffffffffffffffffffffffffffff169060200190929190505050612bcc565b005b348015610e1257600080fd5b50610e5560048036036020811015610e2957600080fd5b81019080803573ffffffffffffffffffffffffffffffffffffffff169060200190929190505050612c82565b6040518082815260200191505060405180910390f35b348015610e7757600080fd5b50610e80612ccb565b604051808273ffffffffffffffffffffffffffffffffffffffff16815260200191505060405180910390f35b348015610eb857600080fd5b50610ec1612ce3565b604051808273ffffffffffffffffffffffffffffffffffffffff16815260200191505060405180910390f35b348015610ef957600080fd5b50610f02612cfb565b6040518082815260200191505060405180910390f35b348015610f2457600080fd5b50610f5160048036036020811015610f3b57600080fd5b8101908080359060200190929190505050612d01565b604051808273ffffffffffffffffffffffffffffffffffffffff16815260200191505060405180910390f35b348015610f8957600080fd5b50610fb660048036036020811015610fa057600080fd5b8101908080359060200190929190505050612d3d565b604051808273ffffffffffffffffffffffffffffffffffffffff16815260200191505060405180910390f35b348015610fee57600080fd5b5061101b6004803603602081101561100557600080fd5b8101908080359060200190929190505050612d79565b005b34801561102957600080fd5b506110746004803603608081101561104057600080fd5b8101908080359060200190929190803590602001909291908035906020019092919080359060200190929190505050612dc3565b005b34801561108257600080fd5b506110af6004803603602081101561109957600080fd5b8101908080359060200190929190505050613099565b604051808273ffffffffffffffffffffffffffffffffffffffff16815260200191505060405180910390f35b3480156110e757600080fd5b5061112a600480360360208110156110fe57600080fd5b81019080803573ffffffffffffffffffffffffffffffffffffffff1690602001909291905050506130d5565b6040518082815260200191505060405180910390f35b34801561114c57600080fd5b506111af6004803603604081101561116357600080fd5b81019080803573ffffffffffffffffffffffffffffffffffffffff169060200190929190803573ffffffffffffffffffffffffffffffffffffffff1690602001909291905050506130ed565b6040518082815260200191505060405180910390f35b3480156111d157600080fd5b506111da61319e565b604051808273ffffffffffffffffffffffffffffffffffffffff16815260200191505060405180910390f35b736983d1e6def3690c4d616b13597a09e6193ea01381565b6112288183612bcc565b600061123482306130ed565b90508173ffffffffffffffffffffffffffffffffffffffff1663a9059cbb84836040518363ffffffff1660e01b8152600401808373ffffffffffffffffffffffffffffffffffffffff16815260200182815260200192505050602060405180830381600087803b1580156112a757600080fd5b505af11580156112bb573d6000803e3d6000fd5b505050506040513d60208110156112d157600080fd5b810190808051906020019092919050505050505050565b73bec775cb42abfa4288de81f387a9b1a3c4bc552a81565b6000806000806000808673ffffffffffffffffffffffffffffffffffffffff1663feaf968c6040518163ffffffff1660e01b815260040160a06040518083038186803b15801561134f57600080fd5b505afa158015611363573d6000803e3d6000fd5b505050506040513d60a081101561137957600080fd5b810190808051906020019092919080519060200190929190805190602001909291908051906020019092919080519060200190929190505050945094509450945094508395505050505050919050565b600081815481106113d657fe5b906000526020600020016000915054906101000a900473ffffffffffffffffffffffffffffffffffffffff1681565b600061145360085461144561142e73cf664087a5bb0237a0bad6742852ec6c8d69a27a306130ed565b61143786612c82565b6131c490919063ffffffff16565b61324a90919063ffffffff16565b905060006114a360085461149561147e73bec775cb42abfa4288de81f387a9b1a3c4bc552a306130ed565b61148787612c82565b6131c490919063ffffffff16565b61324a90919063ffffffff16565b905060006114f36008546114e56114ce736983d1e6def3690c4d616b13597a09e6193ea013306130ed565b6114d788612c82565b6131c490919063ffffffff16565b61324a90919063ffffffff16565b9050600061154360085461153561151e733095c7557bcb296ccc6e363de01b760ba031f2d9306130ed565b61152789612c82565b6131c490919063ffffffff16565b61324a90919063ffffffff16565b905061157773cf664087a5bb0237a0bad6742852ec6c8d69a27a731b02da8cb0d097eb8d57a175b88c7d8b47997506612bcc565b6115a973bec775cb42abfa4288de81f387a9b1a3c4bc552a731b02da8cb0d097eb8d57a175b88c7d8b47997506612bcc565b6115db736983d1e6def3690c4d616b13597a09e6193ea013731b02da8cb0d097eb8d57a175b88c7d8b47997506612bcc565b61160d733095c7557bcb296ccc6e363de01b760ba031f2d9731b02da8cb0d097eb8d57a175b88c7d8b47997506612bcc565b61161984848484612dc3565b61163773985458e523db3d53125813ed68c274899e9dfab486612bcc565b600061165773985458e523db3d53125813ed68c274899e9dfab4306130ed565b905073985458e523db3d53125813ed68c274899e9dfab473ffffffffffffffffffffffffffffffffffffffff1663a9059cbb87836040518363ffffffff1660e01b8152600401808373ffffffffffffffffffffffffffffffffffffffff16815260200182815260200192505050602060405180830381600087803b1580156116de57600080fd5b505af11580156116f2573d6000803e3d6000fd5b505050506040513d602081101561170857600080fd5b81019080805190602001909291905050505061172386611e39565b505050505050565b61173683838361184a565b61176973985458e523db3d53125813ed68c274899e9dfab4731b02da8cb0d097eb8d57a175b88c7d8b4799750685611798565b61177283612626565b61177b81611fb1565b505050565b731b02da8cb0d097eb8d57a175b88c7d8b4799750681565b8273ffffffffffffffffffffffffffffffffffffffff1663095ea7b383836040518363ffffffff1660e01b8152600401808373ffffffffffffffffffffffffffffffffffffffff16815260200182815260200192505050602060405180830381600087803b15801561180957600080fd5b505af115801561181d573d6000803e3d6000fd5b505050506040513d602081101561183357600080fd5b810190808051906020019092919050505050505050565b60008290508073ffffffffffffffffffffffffffffffffffffffff166323b872dd8330876040518463ffffffff1660e01b8152600401808473ffffffffffffffffffffffffffffffffffffffff1681526020018373ffffffffffffffffffffffffffffffffffffffff1681526020018281526020019350505050602060405180830381600087803b1580156118de57600080fd5b505af11580156118f2573d6000803e3d6000fd5b505050506040513d602081101561190857600080fd5b81019080805190602001909291905050505050505050565b61193f83731b02da8cb0d097eb8d57a175b88c7d8b4799750683611798565b73cf664087a5bb0237a0bad6742852ec6c8d69a27a73ffffffffffffffffffffffffffffffffffffffff168373ffffffffffffffffffffffffffffffffffffffff1614806119cc575073cf664087a5bb0237a0bad6742852ec6c8d69a27a73ffffffffffffffffffffffffffffffffffffffff168273ffffffffffffffffffffffffffffffffffffffff16145b15611ae1576060600267ffffffffffffffff811180156119eb57600080fd5b50604051908082528060200260200182016040528015611a1a5781602001602082028036833780820191505090505b5090508381600081518110611a2b57fe5b602002602001019073ffffffffffffffffffffffffffffffffffffffff16908173ffffffffffffffffffffffffffffffffffffffff16815250508281600181518110611a7357fe5b602002602001019073ffffffffffffffffffffffffffffffffffffffff16908173ffffffffffffffffffffffffffffffffffffffff1681525050611adb82600083307fffffffffffffffffffffffffffffffffffffffffffffffffffffffffffffffff612944565b50611c49565b6060600367ffffffffffffffff81118015611afb57600080fd5b50604051908082528060200260200182016040528015611b2a5781602001602082028036833780820191505090505b5090508381600081518110611b3b57fe5b602002602001019073ffffffffffffffffffffffffffffffffffffffff16908173ffffffffffffffffffffffffffffffffffffffff168152505073cf664087a5bb0237a0bad6742852ec6c8d69a27a81600181518110611b9757fe5b602002602001019073ffffffffffffffffffffffffffffffffffffffff16908173ffffffffffffffffffffffffffffffffffffffff16815250508281600281518110611bdf57fe5b602002602001019073ffffffffffffffffffffffffffffffffffffffff16908173ffffffffffffffffffffffffffffffffffffffff1681525050611c4782600083307fffffffffffffffffffffffffffffffffffffffffffffffffffffffffffffffff612944565b505b505050565b60058181548110611c5b57fe5b906000526020600020016000915054906101000a900473ffffffffffffffffffffffffffffffffffffffff1681565b6000611cb383611ca5600854856131c490919063ffffffff16565b61324a90919063ffffffff16565b9050611cca816008546132d390919063ffffffff16565b6008819055506000600960008673ffffffffffffffffffffffffffffffffffffffff1673ffffffffffffffffffffffffffffffffffffffff168152602001908152602001600020541115611db257611d6a81600960008773ffffffffffffffffffffffffffffffffffffffff1673ffffffffffffffffffffffffffffffffffffffff168152602001908152602001600020546132d390919063ffffffff16565b600960008673ffffffffffffffffffffffffffffffffffffffff1673ffffffffffffffffffffffffffffffffffffffff16815260200190815260200160002081905550611df7565b80600960008673ffffffffffffffffffffffffffffffffffffffff1673ffffffffffffffffffffffffffffffffffffffff168152602001908152602001600020819055505b50505050565b60068181548110611e0a57fe5b906000526020600020016000915054906101000a900473ffffffffffffffffffffffffffffffffffffffff1681565b6000600960008373ffffffffffffffffffffffffffffffffffffffff1673ffffffffffffffffffffffffffffffffffffffff1681526020019081526020016000205411611eee576040517f08c379a000000000000000000000000000000000000000000000000000000000815260040180806020018281038252601f8152602001807f4572726f72202d2054686973207573657220686173206e6f207368617265730081525060200191505060405180910390fd5b600960008273ffffffffffffffffffffffffffffffffffffffff1673ffffffffffffffffffffffffffffffffffffffff168152602001908152602001600020546008600082825403925050819055506000600960008373ffffffffffffffffffffffffffffffffffffffff1673ffffffffffffffffffffffffffffffffffffffff1681526020019081526020016000208190555050565b611f90898989611920565b611f9b868686611920565b611fa6838383611920565b505050505050505050565b6305f5e100600960008373ffffffffffffffffffffffffffffffffffffffff1673ffffffffffffffffffffffffffffffffffffffff168152602001908152602001600020819055506305f5e10060088190555050565b73cf664087a5bb0237a0bad6742852ec6c8d69a27a81565b61203d73985458e523db3d53125813ed68c274899e9dfab482612bcc565b600061205d73985458e523db3d53125813ed68c274899e9dfab4306130ed565b905073985458e523db3d53125813ed68c274899e9dfab473ffffffffffffffffffffffffffffffffffffffff1663a9059cbb83836040518363ffffffff1660e01b8152600401808373ffffffffffffffffffffffffffffffffffffffff16815260200182815260200192505050602060405180830381600087803b1580156120e457600080fd5b505af11580156120f8573d6000803e3d6000fd5b505050506040513d602081101561210e57600080fd5b8101908080519060200190929190505050505050565b600061214b8361213d848a6131c490919063ffffffff16565b61324a90919063ffffffff16565b9050600061217484612166858a6131c490919063ffffffff16565b61324a90919063ffffffff16565b9050600061219d8561218f868a6131c490919063ffffffff16565b61324a90919063ffffffff16565b905060006121c6866121b8878a6131c490919063ffffffff16565b61324a90919063ffffffff16565b905061227b8460008080548060200260200160405190810160405280929190818152602001828054801561224f57602002820191906000526020600020905b8160009054906101000a900473ffffffffffffffffffffffffffffffffffffffff1673ffffffffffffffffffffffffffffffffffffffff1681526020019060010190808311612205575b5050505050307fffffffffffffffffffffffffffffffffffffffffffffffffffffffffffffffff612944565b61232f836000600180548060200260200160405190810160405280929190818152602001828054801561230357602002820191906000526020600020905b8160009054906101000a900473ffffffffffffffffffffffffffffffffffffffff1673ffffffffffffffffffffffffffffffffffffffff16815260200190600101908083116122b9575b5050505050307fffffffffffffffffffffffffffffffffffffffffffffffffffffffffffffffff612944565b6123e382600060028054806020026020016040519081016040528092919081815260200182805480156123b757602002820191906000526020600020905b8160009054906101000a900473ffffffffffffffffffffffffffffffffffffffff1673ffffffffffffffffffffffffffffffffffffffff168152602001906001019080831161236d575b5050505050307fffffffffffffffffffffffffffffffffffffffffffffffffffffffffffffffff612944565b612497816000600380548060200260200160405190810160405280929190818152602001828054801561246b57602002820191906000526020600020905b8160009054906101000a900473ffffffffffffffffffffffffffffffffffffffff1673ffffffffffffffffffffffffffffffffffffffff1681526020019060010190808311612421575b5050505050307fffffffffffffffffffffffffffffffffffffffffffffffffffffffffffffffff612944565b50505050505050505050565b60008690508073ffffffffffffffffffffffffffffffffffffffff166323b872dd87308b6040518463ffffffff1660e01b8152600401808473ffffffffffffffffffffffffffffffffffffffff1681526020018373ffffffffffffffffffffffffffffffffffffffff1681526020018281526020019350505050602060405180830381600087803b15801561253757600080fd5b505af115801561254b573d6000803e3d6000fd5b505050506040513d602081101561256157600080fd5b8101908080519060200190929190505050506125a673985458e523db3d53125813ed68c274899e9dfab4731b02da8cb0d097eb8d57a175b88c7d8b479975068a611798565b60006125df836125d1866125c3898b6132d390919063ffffffff16565b6132d390919063ffffffff16565b6132d390919063ffffffff16565b90506000811115612608576125f886868686858e612124565b61260387828b611c8a565b61261b565b61261189612626565b61261a87611fb1565b5b505050505050505050565b6126ec61263d60048361324a90919063ffffffff16565b6000808054806020026020016040519081016040528092919081815260200182805480156126c057602002820191906000526020600020905b8160009054906101000a900473ffffffffffffffffffffffffffffffffffffffff1673ffffffffffffffffffffffffffffffffffffffff1681526020019060010190808311612676575b5050505050307fffffffffffffffffffffffffffffffffffffffffffffffffffffffffffffffff612944565b6127b361270360048361324a90919063ffffffff16565b6000600180548060200260200160405190810160405280929190818152602001828054801561278757602002820191906000526020600020905b8160009054906101000a900473ffffffffffffffffffffffffffffffffffffffff1673ffffffffffffffffffffffffffffffffffffffff168152602001906001019080831161273d575b5050505050307fffffffffffffffffffffffffffffffffffffffffffffffffffffffffffffffff612944565b61287a6127ca60048361324a90919063ffffffff16565b6000600280548060200260200160405190810160405280929190818152602001828054801561284e57602002820191906000526020600020905b8160009054906101000a900473ffffffffffffffffffffffffffffffffffffffff1673ffffffffffffffffffffffffffffffffffffffff1681526020019060010190808311612804575b5050505050307fffffffffffffffffffffffffffffffffffffffffffffffffffffffffffffffff612944565b61294161289160048361324a90919063ffffffff16565b6000600380548060200260200160405190810160405280929190818152602001828054801561291557602002820191906000526020600020905b8160009054906101000a900473ffffffffffffffffffffffffffffffffffffffff1673ffffffffffffffffffffffffffffffffffffffff16815260200190600101908083116128cb575b5050505050307fffffffffffffffffffffffffffffffffffffffffffffffffffffffffffffffff612944565b50565b600a60009054906101000a900473ffffffffffffffffffffffffffffffffffffffff1673ffffffffffffffffffffffffffffffffffffffff166338ed173986868686866040518663ffffffff1660e01b815260040180868152602001858152602001806020018473ffffffffffffffffffffffffffffffffffffffff168152602001838152602001828103825285818151815260200191508051906020019060200280838360005b83811015612a075780820151818401526020810190506129ec565b505050509050019650505050505050600060405180830381600087803b158015612a3057600080fd5b505af1158015612a44573d6000803e3d6000fd5b505050506040513d6000823e3d601f19601f820116820180604052506020811015612a6e57600080fd5b8101908080516040519392919084640100000000821115612a8e57600080fd5b83820191506020820185811115612aa457600080fd5b8251866020820283011164010000000082111715612ac157600080fd5b8083526020830192505050908051906020019060200280838360005b83811015612af8578082015181840152602081019050612add565b50505050905001604052505050505050505050565b60048181548110612b1a57fe5b906000526020600020016000915054906101000a900473ffffffffffffffffffffffffffffffffffffffff1681565b6000612b8760028301600a0a612b79612b6186611300565b612b6b88306130ed565b6131c490919063ffffffff16565b61324a90919063ffffffff16565b90509392505050565b60038181548110612b9d57fe5b906000526020600020016000915054906101000a900473ffffffffffffffffffffffffffffffffffffffff1681565b60008273ffffffffffffffffffffffffffffffffffffffff166370a08231306040518263ffffffff1660e01b8152600401808273ffffffffffffffffffffffffffffffffffffffff16815260200191505060206040518083038186803b158015612c3557600080fd5b505afa158015612c49573d6000803e3d6000fd5b505050506040513d6020811015612c5f57600080fd5b81019080805190602001909291905050509050612c7d838383611798565b505050565b6000600960008373ffffffffffffffffffffffffffffffffffffffff1673ffffffffffffffffffffffffffffffffffffffff168152602001908152602001600020549050919050565b73985458e523db3d53125813ed68c274899e9dfab481565b733095c7557bcb296ccc6e363de01b760ba031f2d981565b60085481565b60078181548110612d0e57fe5b906000526020600020016000915054906101000a900473ffffffffffffffffffffffffffffffffffffffff1681565b60028181548110612d4a57fe5b906000526020600020016000915054906101000a900473ffffffffffffffffffffffffffffffffffffffff1681565b3373ffffffffffffffffffffffffffffffffffffffff166108fc829081150290604051600060405180830381858888f19350505050158015612dbf573d6000803e3d6000fd5b5050565b612e778460006004805480602002602001604051908101604052809291908181526020018280548015612e4b57602002820191906000526020600020905b8160009054906101000a900473ffffffffffffffffffffffffffffffffffffffff1673ffffffffffffffffffffffffffffffffffffffff1681526020019060010190808311612e01575b5050505050307fffffffffffffffffffffffffffffffffffffffffffffffffffffffffffffffff612944565b612f2b8360006005805480602002602001604051908101604052809291908181526020018280548015612eff57602002820191906000526020600020905b8160009054906101000a900473ffffffffffffffffffffffffffffffffffffffff1673ffffffffffffffffffffffffffffffffffffffff1681526020019060010190808311612eb5575b5050505050307fffffffffffffffffffffffffffffffffffffffffffffffffffffffffffffffff612944565b612fdf8260006006805480602002602001604051908101604052809291908181526020018280548015612fb357602002820191906000526020600020905b8160009054906101000a900473ffffffffffffffffffffffffffffffffffffffff1673ffffffffffffffffffffffffffffffffffffffff1681526020019060010190808311612f69575b5050505050307fffffffffffffffffffffffffffffffffffffffffffffffffffffffffffffffff612944565b613093816000600780548060200260200160405190810160405280929190818152602001828054801561306757602002820191906000526020600020905b8160009054906101000a900473ffffffffffffffffffffffffffffffffffffffff1673ffffffffffffffffffffffffffffffffffffffff168152602001906001019080831161301d575b5050505050307fffffffffffffffffffffffffffffffffffffffffffffffffffffffffffffffff612944565b50505050565b600181815481106130a657fe5b906000526020600020016000915054906101000a900473ffffffffffffffffffffffffffffffffffffffff1681565b60096020528060005260406000206000915090505481565b6000808390508073ffffffffffffffffffffffffffffffffffffffff166370a08231846040518263ffffffff1660e01b8152600401808273ffffffffffffffffffffffffffffffffffffffff16815260200191505060206040518083038186803b15801561315a57600080fd5b505afa15801561316e573d6000803e3d6000fd5b505050506040513d602081101561318457600080fd5b810190808051906020019092919050505091505092915050565b600a60009054906101000a900473ffffffffffffffffffffffffffffffffffffffff1681565b6000808314156131d75760009050613244565b60008284029050828482816131e857fe5b041461323f576040517f08c379a000000000000000000000000000000000000000000000000000000000815260040180806020018281038252602181526020018061335c6021913960400191505060405180910390fd5b809150505b92915050565b60008082116132c1576040517f08c379a000000000000000000000000000000000000000000000000000000000815260040180806020018281038252601a8152602001807f536166654d6174683a206469766973696f6e206279207a65726f00000000000081525060200191505060405180910390fd5b8183816132ca57fe5b04905092915050565b600080828401905083811015613351576040517f08c379a000000000000000000000000000000000000000000000000000000000815260040180806020018281038252601b8152602001807f536166654d6174683a206164646974696f6e206f766572666c6f77000000000081525060200191505060405180910390fd5b809150509291505056fe536166654d6174683a206d756c7469706c69636174696f6e206f766572666c6f77a2646970667358221220a3c43a8c4570ddd087daff664376baf7f0786cf3c42e632e77eb135cdd6ba85e64736f6c634300060c0033",
  "immutableReferences": {},
  "source": "pragma solidity ^0.6.12;\n\n//import statements go here\nimport \"./interfaces/IUniswapV2Router02.sol\";\nimport \"./interfaces/IUniswapV2Router01.sol\";\nimport \"@openzeppelin/contracts/token/ERC20/IERC20.sol\";\nimport \"@openzeppelin/contracts/math/SafeMath.sol\";\nimport \"@chainlink/contracts/src/v0.6/interfaces/AggregatorV3Interface.sol\";\n\ncontract SushiIndex {\n    using SafeMath for uint256;\n\n    address public constant USDC_ADDRESS = 0x985458E523dB3d53125813eD68c274899e9DfAb4;\n    \n    address public constant WONE_ADDRESS = 0xcF664087a5bB0237a0BAd6742852ec6c8d69A27a;\n    address public constant SUSHI_ADDRESS = 0xBEC775Cb42AbFa4288dE81F387a9b1A3c4Bc552A;\n    address public constant WETH_ADDRESS = 0x6983D1E6DEf3690C4d616b13597A09e6193EA013;\n    address public constant WBTC_ADDRESS = 0x3095c7557bCb296ccc6e363DE01b760bA031F2d9;\n\n    // address public constant ONE_USD_ORACLE = 0xcEe686F89bc0dABAd95AEAAC980aE1d97A075FAD;\n    // address public constant WBTC_USD_ORACLE = 0xEF637736B220a58C661bfF4b71e03ca898DCC0Bd;\n    // address public constant ETH_USD_ORACLE = 0x4f11696cE92D78165E1F8A9a4192444087a45b64;\n    // address public constant SUSHI_USD_ORACLE = 0x90142a6930ecF80F1d14943224C56CFe0CD0d347;\n\n    address[] public USDCToWONEPath = [USDC_ADDRESS, WONE_ADDRESS];\n    address[] public USDCToSUSHIPath = [USDC_ADDRESS, WONE_ADDRESS, SUSHI_ADDRESS];\n    address[] public USDCToWETHPath = [USDC_ADDRESS, WONE_ADDRESS, WETH_ADDRESS];\n    address[] public USDCToWBTCPath = [USDC_ADDRESS, WONE_ADDRESS, WBTC_ADDRESS];\n\n    address[] public WONEToUSDCPath = [WONE_ADDRESS, USDC_ADDRESS];\n    address[] public SUSHIToUSDCPath = [SUSHI_ADDRESS, WONE_ADDRESS, USDC_ADDRESS];\n    address[] public WETHToUSDCPath = [WETH_ADDRESS, WONE_ADDRESS, USDC_ADDRESS];\n    address[] public WBTCToUSDCPath = [WBTC_ADDRESS, WONE_ADDRESS,USDC_ADDRESS];\n\n    address public constant SUSHISWAP_ROUTER = 0x1b02dA8Cb0d097eB8D57A175b88c7D8b47997506;\n    \n    uint256 public totalNumberOfShares;\n    mapping(address => uint256) public userNumberOfShares; \n\n    IUniswapV2Router02 public sushiSwapRouter = IUniswapV2Router02(SUSHISWAP_ROUTER);\n    //more variables here\n    // constructor() autoBalancer public {\n    // } \n    \n    /**\n     * Returns the latest price\n     */\n    function getLatestPrice(address _oracle_address) public view returns (int) {\n        (\n            uint80 roundID, \n            int price,\n            uint startedAt,\n            uint timeStamp,\n            uint80 answeredInRound\n        ) = AggregatorV3Interface(_oracle_address).latestRoundData();\n        return price;\n    }\n\n    function updateSharesOnWithdrawal(address user) public { //make this ownable - only contract itself can update this?\n        require (userNumberOfShares[user] > 0, \"Error - This user has no shares\");\n        totalNumberOfShares -= userNumberOfShares[user];\n        userNumberOfShares[user] = 0;\n    }\n\n    function getUserShares(address user) public view returns (uint256 userShares) {\n        return userNumberOfShares[user];\n    }\n\n    function approve_spending (address token_address, address spender_address, uint256 amount_to_approve) public {\n            IERC20(token_address).approve(spender_address, amount_to_approve);\n    }\n    \n     receive() external payable {\n    }\n\n    function deposit (uint256 _amount, address token_address, address address_from) public {\n        IERC20 token_ = IERC20(token_address);\n\n        token_.transferFrom(\n            address_from, \n            address(this), \n            _amount\n        );\n    }\n\n    function depositFirstTime (uint256 _amount, address token_address, address address_from) public {\n        deposit(_amount, token_address, address_from);\n\n        approve_spending(USDC_ADDRESS, SUSHISWAP_ROUTER, _amount);\n\n        swapIntoFourEqualParts(_amount);\n\n        setSharesFirstTime(address_from);\n    }\n\n    function depositUserFunds (uint256 amount_, address token_address, address address_from, uint256 WONE_balanceInUSD, uint256 SUSHI_balanceInUSD, uint256 WETH_balanceInUSD, uint256 WBTC_balanceInUSD) public  {\n        // TO DO - replace with deposit(amount_, token_address, address_from);\n        IERC20 token_ = IERC20(token_address);\n\n        token_.transferFrom(\n            address_from, \n            address(this), \n            amount_\n        );\n\n        approve_spending(USDC_ADDRESS, SUSHISWAP_ROUTER, amount_);\n\n        uint256 Total_in_USD = WONE_balanceInUSD.add(SUSHI_balanceInUSD).add(WETH_balanceInUSD).add(WBTC_balanceInUSD);\n        \n        if (Total_in_USD > 0) {\n            swapProportionately(WONE_balanceInUSD, SUSHI_balanceInUSD, WETH_balanceInUSD, WBTC_balanceInUSD, Total_in_USD, amount_);\n            updateSharesOnDeposit(address_from, Total_in_USD, amount_);\n        } else {\n            swapIntoFourEqualParts(amount_);\n            setSharesFirstTime(address_from);\n        }\n    }\n\n    function getUSDBalanceOf(address token_address, address oracle_address, uint256 token_decimals) public view returns (uint256) {\n        // uint256 token_decimals = IERC20(token_address).decimals();\n        return balanceOf(token_address, address(this))\n        .mul(uint256(getLatestPrice(oracle_address)))\n        .div(10**(token_decimals+2));\n    }\n\n    function swapProportionately(uint256 WONE_amount, uint256 SUSHI_amount, uint256 WETH_amount, uint256 WBTC_amount, uint256 totalUSDAmount, uint256 depositAmount) public {\n        uint256 WONE_share = WONE_amount.mul(depositAmount).div(totalUSDAmount); \n        uint256 SUSHI_share = SUSHI_amount.mul(depositAmount).div(totalUSDAmount);\n        uint256 WETH_share = WETH_amount.mul(depositAmount).div(totalUSDAmount);\n        uint256 WBTC_share = WBTC_amount.mul(depositAmount).div(totalUSDAmount);\n\n        swap(WONE_share, uint256(0), USDCToWONEPath, address(this), uint256(-1));\n        swap(SUSHI_share, uint256(0), USDCToSUSHIPath, address(this), uint256(-1));\n        swap(WETH_share, uint256(0), USDCToWETHPath, address(this), uint256(-1));\n        swap(WBTC_share, uint256(0), USDCToWBTCPath, address(this), uint256(-1));\n    }\n\n    function swapIntoFourEqualParts(uint256 amount) public {\n        swap(amount.div(4), uint256(0), USDCToWONEPath, address(this), uint256(-1));\n        swap(amount.div(4), uint256(0), USDCToSUSHIPath, address(this), uint256(-1));\n        swap(amount.div(4), uint256(0), USDCToWETHPath, address(this), uint256(-1));\n        swap(amount.div(4), uint256(0), USDCToWBTCPath, address(this), uint256(-1));\n    }\n\n    function setSharesFirstTime(address user) public {\n        userNumberOfShares[user] = 100000000;\n        totalNumberOfShares = 100000000;\n    }\n\n    function updateSharesOnDeposit(address user, uint256 total_in_USD, uint256 deposit_amount) public { //make this ownable - only contract itself can update this?\n        uint256 newSharesForUser = deposit_amount.mul(totalNumberOfShares).div(total_in_USD);\n        totalNumberOfShares = totalNumberOfShares.add(newSharesForUser);\n        if (userNumberOfShares[user] > 0) {\n            userNumberOfShares[user] = userNumberOfShares[user].add(newSharesForUser);\n        } else {\n            userNumberOfShares[user] = newSharesForUser;\n        }\n    }\n\n    function withdrawUserFunds(address user) public {\n\n        uint256 WONE_amount = getUserShares(user).mul(balanceOf(WONE_ADDRESS, address(this))).div(totalNumberOfShares);\n        uint256 SUSHI_amount = getUserShares(user).mul(balanceOf(SUSHI_ADDRESS, address(this))).div(totalNumberOfShares);\n        uint256 WETH_amount = getUserShares(user).mul(balanceOf(WETH_ADDRESS, address(this))).div(totalNumberOfShares);\n        uint256 WBTC_amount = getUserShares(user).mul(balanceOf(WBTC_ADDRESS, address(this))).div(totalNumberOfShares);\n\n        approveSpendingWholeBalance(WONE_ADDRESS, SUSHISWAP_ROUTER);\n        approveSpendingWholeBalance(SUSHI_ADDRESS, SUSHISWAP_ROUTER);\n        approveSpendingWholeBalance(WETH_ADDRESS, SUSHISWAP_ROUTER);\n        approveSpendingWholeBalance(WBTC_ADDRESS, SUSHISWAP_ROUTER);\n\n        swapFourTokensBackToUSDC(WONE_amount, SUSHI_amount, WETH_amount, WBTC_amount);\n\n        approveSpendingWholeBalance(USDC_ADDRESS, user);\n        \n        uint256 USDC_amount = balanceOf(USDC_ADDRESS, address(this));\n        IERC20(USDC_ADDRESS).transfer(user, USDC_amount);\n\n        updateSharesOnWithdrawal(user);\n    }\n\n    function executeThreeSwaps(\n        address _from1, address _to1, uint256 _amount1,\n        address _from2, address _to2, uint256 _amount2,\n        address _from3, address _to3, uint256 _amount3\n        ) public {\n            executeRebalancingSwap(_from1, _to1, _amount1);\n            executeRebalancingSwap(_from2, _to2, _amount2);\n            executeRebalancingSwap(_from3, _to3, _amount3);\n    }\n\n    function executeRebalancingSwap(address _tokenToSwap, address _tokenSwappingTo, uint256 _amountToBeSwapped) public {\n        approve_spending(_tokenToSwap, SUSHISWAP_ROUTER, _amountToBeSwapped);\n        if (_tokenToSwap == WONE_ADDRESS || _tokenSwappingTo == WONE_ADDRESS) {\n            address[] memory _path = new address[](2);\n            _path[0] = _tokenToSwap;\n            _path[1] = _tokenSwappingTo;\n            swap(_amountToBeSwapped, uint256(0), _path, address(this), uint256(-1));\n        } else {\n            address[] memory _path = new address[](3);\n            _path[0] = _tokenToSwap;\n            _path[1] = WONE_ADDRESS;\n            _path[2] = _tokenSwappingTo;\n            swap(_amountToBeSwapped, uint256(0), _path, address(this), uint256(-1));\n        }\n        \n    }\n\n    function approveSpendingWholeBalance(address _token, address _spender) public {\n        uint256 tokenBalance = IERC20(_token).balanceOf(address(this));\n        approve_spending(_token, _spender, tokenBalance);\n    }\n\n    function swapFourTokensBackToUSDC(uint256 WONE_amount, uint256 SUSHI_amount, uint256 WETH_amount, uint256 WBTC_amount) public {\n        swap(WONE_amount, uint256(0), WONEToUSDCPath, address(this), uint256(-1));\n        swap(SUSHI_amount, uint256(0), SUSHIToUSDCPath, address(this), uint256(-1));\n        swap(WETH_amount, uint256(0), WETHToUSDCPath, address(this), uint256(-1));\n        swap(WBTC_amount, uint256(0), WBTCToUSDCPath, address(this), uint256(-1));\n    }\n    \n    function withdraw_matic(uint256 amount_) public {\n        msg.sender.transfer(amount_); //TODO - change?\n    }\n\n    function withdrawAllUSDC(address _user) public {\n        approveSpendingWholeBalance(USDC_ADDRESS, _user);\n        uint256 USDC_amount = balanceOf(USDC_ADDRESS, address(this));\n        IERC20(USDC_ADDRESS).transfer(_user, USDC_amount);\n    }\n\n    function withdrawAll(address _user, address _token_address) public {\n        approveSpendingWholeBalance(_token_address, _user);\n        uint256 USDC_amount = balanceOf(_token_address, address(this));\n        IERC20(_token_address).transfer(_user, USDC_amount);\n    }\n\n    function balanceOf(address token_address, address user_address) public view returns (uint256 token_balance) {\n        IERC20 _token = IERC20(token_address);\n        token_balance = _token.balanceOf(user_address);\n        return token_balance;\n    }\n    \n    function swap(uint256 _amountIn, uint256 _amountOutMin, address[] memory _path, address _acct, uint256 _deadline) public {\n        \n       sushiSwapRouter.swapExactTokensForTokens(\n            _amountIn,\n            _amountOutMin,\n            _path,\n            _acct,\n            _deadline);\n        }      \n    }\n    \n\n    ",
  "sourcePath": "/Users/richardjamieson/Documents/GitHub/SushiIndexHarmony/contracts/sushiIndex.sol",
  "compiler": {
    "name": "solc",
    "version": "0.6.12+commit.27d51765.Emscripten.clang"
  },
  "schemaVersion": "3.3.4",
  "updatedAt": "2021-09-16T10:14:23.776Z",
  "networkType": "ethereum",
  "devdoc": {
    "kind": "dev",
    "methods": {},
    "version": 1
  },
  "userdoc": {
    "kind": "user",
    "methods": {
      "getLatestPrice(address)": {
        "notice": "Returns the latest price"
      }
    },
    "version": 1
  }
}