{
  "contractName": "SushiIndex",
  "abi": [
    {
      "inputs": [],
      "name": "SUSHISWAP_ROUTER",
      "outputs": [
        {
          "internalType": "address",
          "name": "",
          "type": "address"
        }
      ],
      "stateMutability": "view",
      "type": "function",
      "constant": true
    },
    {
      "inputs": [
        {
          "internalType": "uint256",
          "name": "",
          "type": "uint256"
        }
      ],
      "name": "SUSHIToUSDCPath",
      "outputs": [
        {
          "internalType": "address",
          "name": "",
          "type": "address"
        }
      ],
      "stateMutability": "view",
      "type": "function",
      "constant": true
    },
    {
      "inputs": [],
      "name": "SUSHI_ADDRESS",
      "outputs": [
        {
          "internalType": "address",
          "name": "",
          "type": "address"
        }
      ],
      "stateMutability": "view",
      "type": "function",
      "constant": true
    },
    {
      "inputs": [
        {
          "internalType": "uint256",
          "name": "",
          "type": "uint256"
        }
      ],
      "name": "USDCToSUSHIPath",
      "outputs": [
        {
          "internalType": "address",
          "name": "",
          "type": "address"
        }
      ],
      "stateMutability": "view",
      "type": "function",
      "constant": true
    },
    {
      "inputs": [
        {
          "internalType": "uint256",
          "name": "",
          "type": "uint256"
        }
      ],
      "name": "USDCToWBTCPath",
      "outputs": [
        {
          "internalType": "address",
          "name": "",
          "type": "address"
        }
      ],
      "stateMutability": "view",
      "type": "function",
      "constant": true
    },
    {
      "inputs": [
        {
          "internalType": "uint256",
          "name": "",
          "type": "uint256"
        }
      ],
      "name": "USDCToWETHPath",
      "outputs": [
        {
          "internalType": "address",
          "name": "",
          "type": "address"
        }
      ],
      "stateMutability": "view",
      "type": "function",
      "constant": true
    },
    {
      "inputs": [
        {
          "internalType": "uint256",
          "name": "",
          "type": "uint256"
        }
      ],
      "name": "USDCToWONEPath",
      "outputs": [
        {
          "internalType": "address",
          "name": "",
          "type": "address"
        }
      ],
      "stateMutability": "view",
      "type": "function",
      "constant": true
    },
    {
      "inputs": [],
      "name": "USDC_ADDRESS",
      "outputs": [
        {
          "internalType": "address",
          "name": "",
          "type": "address"
        }
      ],
      "stateMutability": "view",
      "type": "function",
      "constant": true
    },
    {
      "inputs": [
        {
          "internalType": "uint256",
          "name": "",
          "type": "uint256"
        }
      ],
      "name": "WBTCToUSDCPath",
      "outputs": [
        {
          "internalType": "address",
          "name": "",
          "type": "address"
        }
      ],
      "stateMutability": "view",
      "type": "function",
      "constant": true
    },
    {
      "inputs": [],
      "name": "WBTC_ADDRESS",
      "outputs": [
        {
          "internalType": "address",
          "name": "",
          "type": "address"
        }
      ],
      "stateMutability": "view",
      "type": "function",
      "constant": true
    },
    {
      "inputs": [
        {
          "internalType": "uint256",
          "name": "",
          "type": "uint256"
        }
      ],
      "name": "WETHToUSDCPath",
      "outputs": [
        {
          "internalType": "address",
          "name": "",
          "type": "address"
        }
      ],
      "stateMutability": "view",
      "type": "function",
      "constant": true
    },
    {
      "inputs": [],
      "name": "WETH_ADDRESS",
      "outputs": [
        {
          "internalType": "address",
          "name": "",
          "type": "address"
        }
      ],
      "stateMutability": "view",
      "type": "function",
      "constant": true
    },
    {
      "inputs": [
        {
          "internalType": "uint256",
          "name": "",
          "type": "uint256"
        }
      ],
      "name": "WONEToUSDCPath",
      "outputs": [
        {
          "internalType": "address",
          "name": "",
          "type": "address"
        }
      ],
      "stateMutability": "view",
      "type": "function",
      "constant": true
    },
    {
      "inputs": [],
      "name": "WONE_ADDRESS",
      "outputs": [
        {
          "internalType": "address",
          "name": "",
          "type": "address"
        }
      ],
      "stateMutability": "view",
      "type": "function",
      "constant": true
    },
    {
      "inputs": [],
      "name": "sushiSwapRouter",
      "outputs": [
        {
          "internalType": "contract IUniswapV2Router02",
          "name": "",
          "type": "address"
        }
      ],
      "stateMutability": "view",
      "type": "function",
      "constant": true
    },
    {
      "inputs": [],
      "name": "totalNumberOfShares",
      "outputs": [
        {
          "internalType": "uint256",
          "name": "",
          "type": "uint256"
        }
      ],
      "stateMutability": "view",
      "type": "function",
      "constant": true
    },
    {
      "inputs": [
        {
          "internalType": "address",
          "name": "",
          "type": "address"
        }
      ],
      "name": "userNumberOfShares",
      "outputs": [
        {
          "internalType": "uint256",
          "name": "",
          "type": "uint256"
        }
      ],
      "stateMutability": "view",
      "type": "function",
      "constant": true
    },
    {
      "stateMutability": "payable",
      "type": "receive",
      "payable": true
    },
    {
      "inputs": [
        {
          "internalType": "address",
          "name": "_oracle_address",
          "type": "address"
        }
      ],
      "name": "getLatestPrice",
      "outputs": [
        {
          "internalType": "int256",
          "name": "",
          "type": "int256"
        }
      ],
      "stateMutability": "view",
      "type": "function",
      "constant": true
    },
    {
      "inputs": [
        {
          "internalType": "address",
          "name": "user",
          "type": "address"
        }
      ],
      "name": "updateSharesOnWithdrawal",
      "outputs": [],
      "stateMutability": "nonpayable",
      "type": "function"
    },
    {
      "inputs": [
        {
          "internalType": "address",
          "name": "user",
          "type": "address"
        }
      ],
      "name": "getUserShares",
      "outputs": [
        {
          "internalType": "uint256",
          "name": "userShares",
          "type": "uint256"
        }
      ],
      "stateMutability": "view",
      "type": "function",
      "constant": true
    },
    {
      "inputs": [
        {
          "internalType": "address",
          "name": "token_address",
          "type": "address"
        },
        {
          "internalType": "address",
          "name": "spender_address",
          "type": "address"
        },
        {
          "internalType": "uint256",
          "name": "amount_to_approve",
          "type": "uint256"
        }
      ],
      "name": "approve_spending",
      "outputs": [],
      "stateMutability": "nonpayable",
      "type": "function"
    },
    {
      "inputs": [
        {
          "internalType": "uint256",
          "name": "_amount",
          "type": "uint256"
        },
        {
          "internalType": "address",
          "name": "token_address",
          "type": "address"
        },
        {
          "internalType": "address",
          "name": "address_from",
          "type": "address"
        }
      ],
      "name": "deposit",
      "outputs": [],
      "stateMutability": "nonpayable",
      "type": "function"
    },
    {
      "inputs": [
        {
          "internalType": "uint256",
          "name": "_amount",
          "type": "uint256"
        },
        {
          "internalType": "address",
          "name": "token_address",
          "type": "address"
        },
        {
          "internalType": "address",
          "name": "address_from",
          "type": "address"
        }
      ],
      "name": "depositFirstTime",
      "outputs": [],
      "stateMutability": "nonpayable",
      "type": "function"
    },
    {
      "inputs": [
        {
          "internalType": "uint256",
          "name": "amount_",
          "type": "uint256"
        },
        {
          "internalType": "address",
          "name": "token_address",
          "type": "address"
        },
        {
          "internalType": "address",
          "name": "address_from",
          "type": "address"
        },
        {
          "internalType": "uint256",
          "name": "WONE_balanceInUSD",
          "type": "uint256"
        },
        {
          "internalType": "uint256",
          "name": "SUSHI_balanceInUSD",
          "type": "uint256"
        },
        {
          "internalType": "uint256",
          "name": "WETH_balanceInUSD",
          "type": "uint256"
        },
        {
          "internalType": "uint256",
          "name": "WBTC_balanceInUSD",
          "type": "uint256"
        }
      ],
      "name": "depositUserFunds",
      "outputs": [],
      "stateMutability": "nonpayable",
      "type": "function"
    },
    {
      "inputs": [
        {
          "internalType": "address",
          "name": "token_address",
          "type": "address"
        },
        {
          "internalType": "address",
          "name": "oracle_address",
          "type": "address"
        },
        {
          "internalType": "uint256",
          "name": "token_decimals",
          "type": "uint256"
        }
      ],
      "name": "getUSDBalanceOf",
      "outputs": [
        {
          "internalType": "uint256",
          "name": "",
          "type": "uint256"
        }
      ],
      "stateMutability": "view",
      "type": "function",
      "constant": true
    },
    {
      "inputs": [
        {
          "internalType": "uint256",
          "name": "WONE_amount",
          "type": "uint256"
        },
        {
          "internalType": "uint256",
          "name": "SUSHI_amount",
          "type": "uint256"
        },
        {
          "internalType": "uint256",
          "name": "WETH_amount",
          "type": "uint256"
        },
        {
          "internalType": "uint256",
          "name": "WBTC_amount",
          "type": "uint256"
        },
        {
          "internalType": "uint256",
          "name": "totalUSDAmount",
          "type": "uint256"
        },
        {
          "internalType": "uint256",
          "name": "depositAmount",
          "type": "uint256"
        }
      ],
      "name": "swapProportionately",
      "outputs": [],
      "stateMutability": "nonpayable",
      "type": "function"
    },
    {
      "inputs": [
        {
          "internalType": "uint256",
          "name": "amount",
          "type": "uint256"
        }
      ],
      "name": "swapIntoFourEqualParts",
      "outputs": [],
      "stateMutability": "nonpayable",
      "type": "function"
    },
    {
      "inputs": [
        {
          "internalType": "address",
          "name": "user",
          "type": "address"
        }
      ],
      "name": "setSharesFirstTime",
      "outputs": [],
      "stateMutability": "nonpayable",
      "type": "function"
    },
    {
      "inputs": [
        {
          "internalType": "address",
          "name": "user",
          "type": "address"
        },
        {
          "internalType": "uint256",
          "name": "total_in_USD",
          "type": "uint256"
        },
        {
          "internalType": "uint256",
          "name": "deposit_amount",
          "type": "uint256"
        }
      ],
      "name": "updateSharesOnDeposit",
      "outputs": [],
      "stateMutability": "nonpayable",
      "type": "function"
    },
    {
      "inputs": [
        {
          "internalType": "address",
          "name": "user",
          "type": "address"
        }
      ],
      "name": "withdrawUserFunds",
      "outputs": [],
      "stateMutability": "nonpayable",
      "type": "function"
    },
    {
      "inputs": [
        {
          "internalType": "address",
          "name": "_tokenToSwap",
          "type": "address"
        },
        {
          "internalType": "address",
          "name": "_tokenSwappingTo",
          "type": "address"
        },
        {
          "internalType": "uint256",
          "name": "_amountToBeSwapped",
          "type": "uint256"
        }
      ],
      "name": "executeRebalancingSwap",
      "outputs": [],
      "stateMutability": "nonpayable",
      "type": "function"
    },
    {
      "inputs": [
        {
          "internalType": "address",
          "name": "_token",
          "type": "address"
        },
        {
          "internalType": "address",
          "name": "_spender",
          "type": "address"
        }
      ],
      "name": "approveSpendingWholeBalance",
      "outputs": [],
      "stateMutability": "nonpayable",
      "type": "function"
    },
    {
      "inputs": [
        {
          "internalType": "uint256",
          "name": "WONE_amount",
          "type": "uint256"
        },
        {
          "internalType": "uint256",
          "name": "SUSHI_amount",
          "type": "uint256"
        },
        {
          "internalType": "uint256",
          "name": "WETH_amount",
          "type": "uint256"
        },
        {
          "internalType": "uint256",
          "name": "WBTC_amount",
          "type": "uint256"
        }
      ],
      "name": "swapFourTokensBackToUSDC",
      "outputs": [],
      "stateMutability": "nonpayable",
      "type": "function"
    },
    {
      "inputs": [
        {
          "internalType": "uint256",
          "name": "amount_",
          "type": "uint256"
        }
      ],
      "name": "withdraw_matic",
      "outputs": [],
      "stateMutability": "nonpayable",
      "type": "function"
    },
    {
      "inputs": [
        {
          "internalType": "address",
          "name": "_user",
          "type": "address"
        }
      ],
      "name": "withdrawAllUSDC",
      "outputs": [],
      "stateMutability": "nonpayable",
      "type": "function"
    },
    {
      "inputs": [
        {
          "internalType": "address",
          "name": "_user",
          "type": "address"
        },
        {
          "internalType": "address",
          "name": "_token_address",
          "type": "address"
        }
      ],
      "name": "withdrawAll",
      "outputs": [],
      "stateMutability": "nonpayable",
      "type": "function"
    },
    {
      "inputs": [
        {
          "internalType": "address",
          "name": "token_address",
          "type": "address"
        },
        {
          "internalType": "address",
          "name": "user_address",
          "type": "address"
        }
      ],
      "name": "balanceOf",
      "outputs": [
        {
          "internalType": "uint256",
          "name": "token_balance",
          "type": "uint256"
        }
      ],
      "stateMutability": "view",
      "type": "function",
      "constant": true
    },
    {
      "inputs": [
        {
          "internalType": "uint256",
          "name": "_amountIn",
          "type": "uint256"
        },
        {
          "internalType": "uint256",
          "name": "_amountOutMin",
          "type": "uint256"
        },
        {
          "internalType": "address[]",
          "name": "_path",
          "type": "address[]"
        },
        {
          "internalType": "address",
          "name": "_acct",
          "type": "address"
        },
        {
          "internalType": "uint256",
          "name": "_deadline",
          "type": "uint256"
        }
      ],
      "name": "swap",
      "outputs": [],
      "stateMutability": "nonpayable",
      "type": "function"
    }
  ],
  "bytecode": "0x6080604052604051806040016040528073985458e523db3d53125813ed68c274899e9dfab473ffffffffffffffffffffffffffffffffffffffff1673ffffffffffffffffffffffffffffffffffffffff16815260200173cf664087a5bb0237a0bad6742852ec6c8d69a27a73ffffffffffffffffffffffffffffffffffffffff1673ffffffffffffffffffffffffffffffffffffffff168152506000906002620000ab92919062000751565b50604051806060016040528073985458e523db3d53125813ed68c274899e9dfab473ffffffffffffffffffffffffffffffffffffffff1673ffffffffffffffffffffffffffffffffffffffff16815260200173cf664087a5bb0237a0bad6742852ec6c8d69a27a73ffffffffffffffffffffffffffffffffffffffff1673ffffffffffffffffffffffffffffffffffffffff16815260200173bec775cb42abfa4288de81f387a9b1a3c4bc552a73ffffffffffffffffffffffffffffffffffffffff1673ffffffffffffffffffffffffffffffffffffffff16815250600190600362000199929190620007e0565b50604051806060016040528073985458e523db3d53125813ed68c274899e9dfab473ffffffffffffffffffffffffffffffffffffffff1673ffffffffffffffffffffffffffffffffffffffff16815260200173cf664087a5bb0237a0bad6742852ec6c8d69a27a73ffffffffffffffffffffffffffffffffffffffff1673ffffffffffffffffffffffffffffffffffffffff168152602001736983d1e6def3690c4d616b13597a09e6193ea01373ffffffffffffffffffffffffffffffffffffffff1673ffffffffffffffffffffffffffffffffffffffff16815250600290600362000287929190620007e0565b50604051806060016040528073985458e523db3d53125813ed68c274899e9dfab473ffffffffffffffffffffffffffffffffffffffff1673ffffffffffffffffffffffffffffffffffffffff16815260200173cf664087a5bb0237a0bad6742852ec6c8d69a27a73ffffffffffffffffffffffffffffffffffffffff1673ffffffffffffffffffffffffffffffffffffffff168152602001733095c7557bcb296ccc6e363de01b760ba031f2d973ffffffffffffffffffffffffffffffffffffffff1673ffffffffffffffffffffffffffffffffffffffff16815250600390600362000375929190620007e0565b50604051806040016040528073cf664087a5bb0237a0bad6742852ec6c8d69a27a73ffffffffffffffffffffffffffffffffffffffff1673ffffffffffffffffffffffffffffffffffffffff16815260200173985458e523db3d53125813ed68c274899e9dfab473ffffffffffffffffffffffffffffffffffffffff1673ffffffffffffffffffffffffffffffffffffffff1681525060049060026200041d92919062000751565b50604051806060016040528073bec775cb42abfa4288de81f387a9b1a3c4bc552a73ffffffffffffffffffffffffffffffffffffffff1673ffffffffffffffffffffffffffffffffffffffff16815260200173cf664087a5bb0237a0bad6742852ec6c8d69a27a73ffffffffffffffffffffffffffffffffffffffff1673ffffffffffffffffffffffffffffffffffffffff16815260200173985458e523db3d53125813ed68c274899e9dfab473ffffffffffffffffffffffffffffffffffffffff1673ffffffffffffffffffffffffffffffffffffffff1681525060059060036200050b929190620007e0565b506040518060600160405280736983d1e6def3690c4d616b13597a09e6193ea01373ffffffffffffffffffffffffffffffffffffffff1673ffffffffffffffffffffffffffffffffffffffff16815260200173cf664087a5bb0237a0bad6742852ec6c8d69a27a73ffffffffffffffffffffffffffffffffffffffff1673ffffffffffffffffffffffffffffffffffffffff16815260200173985458e523db3d53125813ed68c274899e9dfab473ffffffffffffffffffffffffffffffffffffffff1673ffffffffffffffffffffffffffffffffffffffff168152506006906003620005f9929190620007e0565b506040518060600160405280733095c7557bcb296ccc6e363de01b760ba031f2d973ffffffffffffffffffffffffffffffffffffffff1673ffffffffffffffffffffffffffffffffffffffff16815260200173cf664087a5bb0237a0bad6742852ec6c8d69a27a73ffffffffffffffffffffffffffffffffffffffff1673ffffffffffffffffffffffffffffffffffffffff16815260200173985458e523db3d53125813ed68c274899e9dfab473ffffffffffffffffffffffffffffffffffffffff1673ffffffffffffffffffffffffffffffffffffffff168152506007906003620006e7929190620007e0565b50731b02da8cb0d097eb8d57a175b88c7d8b47997506600a60006101000a81548173ffffffffffffffffffffffffffffffffffffffff021916908373ffffffffffffffffffffffffffffffffffffffff1602179055503480156200074a57600080fd5b50620008ac565b828054828255906000526020600020908101928215620007cd579160200282015b82811115620007cc5782518260006101000a81548173ffffffffffffffffffffffffffffffffffffffff021916908373ffffffffffffffffffffffffffffffffffffffff1602179055509160200191906001019062000772565b5b509050620007dc91906200086f565b5090565b8280548282559060005260206000209081019282156200085c579160200282015b828111156200085b5782518260006101000a81548173ffffffffffffffffffffffffffffffffffffffff021916908373ffffffffffffffffffffffffffffffffffffffff1602179055509160200191906001019062000801565b5b5090506200086b91906200086f565b5090565b5b80821115620008a857600081816101000a81549073ffffffffffffffffffffffffffffffffffffffff02191690555060010162000870565b5090565b61326b80620008bc6000396000f3fe6080604052600436106102295760003560e01c80638672d0af11610123578063bdd5915f116100ab578063de1bc7371161006f578063de1bc73714610f02578063e93ef21a14610f5b578063ef455bad14610fc0578063f7888aec14611025578063fd829a23146110aa57610230565b8063bdd5915f14610d91578063c3f5a30514610dd2578063ca97090514610dfd578063cb3601b114610e62578063d9155b1114610ec757610230565b806394191182116100f25780639419118214610b86578063a15c7d1014610c15578063aa5a7aa314610c7a578063ba0cb22b14610ceb578063bb09d9b714610d5057610230565b80638672d0af1461094057806388e42b08146109e357806390f11e8414610a1e57806393248fca14610b2157610230565b80632e2d2984116101b15780634690738c116101755780634690738c1461079f5780636583530f146107f05780636a255ac614610841578063747b5bf914610882578063764f96f9146108d357610230565b80632e2d29841461057a5780633c64bb52146105f55780633f5b948b1461067057806344250955146106d557806344345f231461073a57610230565b806316873e55116101f857806316873e551461038d57806324e2e7bb146103f257806325b12d9b14610443578063277754ed146104be57806329a97ec2146104ff57610230565b8063040141e51461023557806309cae2c8146102765780630a51faba146102e757806316345f181461032857610230565b3661023057005b600080fd5b34801561024157600080fd5b5061024a6110eb565b604051808273ffffffffffffffffffffffffffffffffffffffff16815260200191505060405180910390f35b34801561028257600080fd5b506102e56004803603604081101561029957600080fd5b81019080803573ffffffffffffffffffffffffffffffffffffffff169060200190929190803573ffffffffffffffffffffffffffffffffffffffff169060200190929190505050611103565b005b3480156102f357600080fd5b506102fc6111cd565b604051808273ffffffffffffffffffffffffffffffffffffffff16815260200191505060405180910390f35b34801561033457600080fd5b506103776004803603602081101561034b57600080fd5b81019080803573ffffffffffffffffffffffffffffffffffffffff1690602001909291905050506111e5565b6040518082815260200191505060405180910390f35b34801561039957600080fd5b506103c6600480360360208110156103b057600080fd5b81019080803590602001909291905050506112ae565b604051808273ffffffffffffffffffffffffffffffffffffffff16815260200191505060405180910390f35b3480156103fe57600080fd5b506104416004803603602081101561041557600080fd5b81019080803573ffffffffffffffffffffffffffffffffffffffff1690602001909291905050506112ea565b005b34801561044f57600080fd5b506104bc6004803603606081101561046657600080fd5b8101908080359060200190929190803573ffffffffffffffffffffffffffffffffffffffff169060200190929190803573ffffffffffffffffffffffffffffffffffffffff169060200190929190505050611610565b005b3480156104ca57600080fd5b506104d3611665565b604051808273ffffffffffffffffffffffffffffffffffffffff16815260200191505060405180910390f35b34801561050b57600080fd5b506105786004803603606081101561052257600080fd5b81019080803573ffffffffffffffffffffffffffffffffffffffff169060200190929190803573ffffffffffffffffffffffffffffffffffffffff1690602001909291908035906020019092919050505061167d565b005b34801561058657600080fd5b506105f36004803603606081101561059d57600080fd5b8101908080359060200190929190803573ffffffffffffffffffffffffffffffffffffffff169060200190929190803573ffffffffffffffffffffffffffffffffffffffff16906020019092919050505061172f565b005b34801561060157600080fd5b5061066e6004803603606081101561061857600080fd5b81019080803573ffffffffffffffffffffffffffffffffffffffff169060200190929190803573ffffffffffffffffffffffffffffffffffffffff16906020019092919080359060200190929190505050611805565b005b34801561067c57600080fd5b506106a96004803603602081101561069357600080fd5b8101908080359060200190929190505050611b33565b604051808273ffffffffffffffffffffffffffffffffffffffff16815260200191505060405180910390f35b3480156106e157600080fd5b50610738600480360360608110156106f857600080fd5b81019080803573ffffffffffffffffffffffffffffffffffffffff1690602001909291908035906020019092919080359060200190929190505050611b6f565b005b34801561074657600080fd5b506107736004803603602081101561075d57600080fd5b8101908080359060200190929190505050611ce2565b604051808273ffffffffffffffffffffffffffffffffffffffff16815260200191505060405180910390f35b3480156107ab57600080fd5b506107ee600480360360208110156107c257600080fd5b81019080803573ffffffffffffffffffffffffffffffffffffffff169060200190929190505050611d1e565b005b3480156107fc57600080fd5b5061083f6004803603602081101561081357600080fd5b81019080803573ffffffffffffffffffffffffffffffffffffffff169060200190929190505050611e6a565b005b34801561084d57600080fd5b50610856611ec0565b604051808273ffffffffffffffffffffffffffffffffffffffff16815260200191505060405180910390f35b34801561088e57600080fd5b506108d1600480360360208110156108a557600080fd5b81019080803573ffffffffffffffffffffffffffffffffffffffff169060200190929190505050611ed8565b005b3480156108df57600080fd5b5061093e600480360360c08110156108f657600080fd5b81019080803590602001909291908035906020019092919080359060200190929190803590602001909291908035906020019092919080359060200190929190505050611fdd565b005b34801561094c57600080fd5b506109e1600480360360e081101561096357600080fd5b8101908080359060200190929190803573ffffffffffffffffffffffffffffffffffffffff169060200190929190803573ffffffffffffffffffffffffffffffffffffffff1690602001909291908035906020019092919080359060200190929190803590602001909291908035906020019092919050505061235c565b005b3480156109ef57600080fd5b50610a1c60048036036020811015610a0657600080fd5b81019080803590602001909291905050506124df565b005b348015610a2a57600080fd5b50610b1f600480360360a0811015610a4157600080fd5b81019080803590602001909291908035906020019092919080359060200190640100000000811115610a7257600080fd5b820183602082011115610a8457600080fd5b80359060200191846020830284011164010000000083111715610aa657600080fd5b919080806020026020016040519081016040528093929190818152602001838360200280828437600081840152601f19601f820116905080830192505050505050509192919290803573ffffffffffffffffffffffffffffffffffffffff169060200190929190803590602001909291905050506127fd565b005b348015610b2d57600080fd5b50610b5a60048036036020811015610b4457600080fd5b81019080803590602001909291905050506129c6565b604051808273ffffffffffffffffffffffffffffffffffffffff16815260200191505060405180910390f35b348015610b9257600080fd5b50610bff60048036036060811015610ba957600080fd5b81019080803573ffffffffffffffffffffffffffffffffffffffff169060200190929190803573ffffffffffffffffffffffffffffffffffffffff16906020019092919080359060200190929190505050612a02565b6040518082815260200191505060405180910390f35b348015610c2157600080fd5b50610c4e60048036036020811015610c3857600080fd5b8101908080359060200190929190505050612a49565b604051808273ffffffffffffffffffffffffffffffffffffffff16815260200191505060405180910390f35b348015610c8657600080fd5b50610ce960048036036040811015610c9d57600080fd5b81019080803573ffffffffffffffffffffffffffffffffffffffff169060200190929190803573ffffffffffffffffffffffffffffffffffffffff169060200190929190505050612a85565b005b348015610cf757600080fd5b50610d3a60048036036020811015610d0e57600080fd5b81019080803573ffffffffffffffffffffffffffffffffffffffff169060200190929190505050612b3b565b6040518082815260200191505060405180910390f35b348015610d5c57600080fd5b50610d65612b84565b604051808273ffffffffffffffffffffffffffffffffffffffff16815260200191505060405180910390f35b348015610d9d57600080fd5b50610da6612b9c565b604051808273ffffffffffffffffffffffffffffffffffffffff16815260200191505060405180910390f35b348015610dde57600080fd5b50610de7612bb4565b6040518082815260200191505060405180910390f35b348015610e0957600080fd5b50610e3660048036036020811015610e2057600080fd5b8101908080359060200190929190505050612bba565b604051808273ffffffffffffffffffffffffffffffffffffffff16815260200191505060405180910390f35b348015610e6e57600080fd5b50610e9b60048036036020811015610e8557600080fd5b8101908080359060200190929190505050612bf6565b604051808273ffffffffffffffffffffffffffffffffffffffff16815260200191505060405180910390f35b348015610ed357600080fd5b50610f0060048036036020811015610eea57600080fd5b8101908080359060200190929190505050612c32565b005b348015610f0e57600080fd5b50610f5960048036036080811015610f2557600080fd5b8101908080359060200190929190803590602001909291908035906020019092919080359060200190929190505050612c7c565b005b348015610f6757600080fd5b50610f9460048036036020811015610f7e57600080fd5b8101908080359060200190929190505050612f52565b604051808273ffffffffffffffffffffffffffffffffffffffff16815260200191505060405180910390f35b348015610fcc57600080fd5b5061100f60048036036020811015610fe357600080fd5b81019080803573ffffffffffffffffffffffffffffffffffffffff169060200190929190505050612f8e565b6040518082815260200191505060405180910390f35b34801561103157600080fd5b506110946004803603604081101561104857600080fd5b81019080803573ffffffffffffffffffffffffffffffffffffffff169060200190929190803573ffffffffffffffffffffffffffffffffffffffff169060200190929190505050612fa6565b6040518082815260200191505060405180910390f35b3480156110b657600080fd5b506110bf613057565b604051808273ffffffffffffffffffffffffffffffffffffffff16815260200191505060405180910390f35b736983d1e6def3690c4d616b13597a09e6193ea01381565b61110d8183612a85565b60006111198230612fa6565b90508173ffffffffffffffffffffffffffffffffffffffff1663a9059cbb84836040518363ffffffff1660e01b8152600401808373ffffffffffffffffffffffffffffffffffffffff16815260200182815260200192505050602060405180830381600087803b15801561118c57600080fd5b505af11580156111a0573d6000803e3d6000fd5b505050506040513d60208110156111b657600080fd5b810190808051906020019092919050505050505050565b73bec775cb42abfa4288de81f387a9b1a3c4bc552a81565b6000806000806000808673ffffffffffffffffffffffffffffffffffffffff1663feaf968c6040518163ffffffff1660e01b815260040160a06040518083038186803b15801561123457600080fd5b505afa158015611248573d6000803e3d6000fd5b505050506040513d60a081101561125e57600080fd5b810190808051906020019092919080519060200190929190805190602001909291908051906020019092919080519060200190929190505050945094509450945094508395505050505050919050565b600081815481106112bb57fe5b906000526020600020016000915054906101000a900473ffffffffffffffffffffffffffffffffffffffff1681565b600061133860085461132a61131373cf664087a5bb0237a0bad6742852ec6c8d69a27a30612fa6565b61131c86612b3b565b61307d90919063ffffffff16565b61310390919063ffffffff16565b9050600061138860085461137a61136373bec775cb42abfa4288de81f387a9b1a3c4bc552a30612fa6565b61136c87612b3b565b61307d90919063ffffffff16565b61310390919063ffffffff16565b905060006113d86008546113ca6113b3736983d1e6def3690c4d616b13597a09e6193ea01330612fa6565b6113bc88612b3b565b61307d90919063ffffffff16565b61310390919063ffffffff16565b9050600061142860085461141a611403733095c7557bcb296ccc6e363de01b760ba031f2d930612fa6565b61140c89612b3b565b61307d90919063ffffffff16565b61310390919063ffffffff16565b905061145c73cf664087a5bb0237a0bad6742852ec6c8d69a27a731b02da8cb0d097eb8d57a175b88c7d8b47997506612a85565b61148e73bec775cb42abfa4288de81f387a9b1a3c4bc552a731b02da8cb0d097eb8d57a175b88c7d8b47997506612a85565b6114c0736983d1e6def3690c4d616b13597a09e6193ea013731b02da8cb0d097eb8d57a175b88c7d8b47997506612a85565b6114f2733095c7557bcb296ccc6e363de01b760ba031f2d9731b02da8cb0d097eb8d57a175b88c7d8b47997506612a85565b6114fe84848484612c7c565b61151c73985458e523db3d53125813ed68c274899e9dfab486612a85565b600061153c73985458e523db3d53125813ed68c274899e9dfab430612fa6565b905073985458e523db3d53125813ed68c274899e9dfab473ffffffffffffffffffffffffffffffffffffffff1663a9059cbb87836040518363ffffffff1660e01b8152600401808373ffffffffffffffffffffffffffffffffffffffff16815260200182815260200192505050602060405180830381600087803b1580156115c357600080fd5b505af11580156115d7573d6000803e3d6000fd5b505050506040513d60208110156115ed57600080fd5b81019080805190602001909291905050505061160886611d1e565b505050505050565b61161b83838361172f565b61164e73985458e523db3d53125813ed68c274899e9dfab4731b02da8cb0d097eb8d57a175b88c7d8b479975068561167d565b611657836124df565b61166081611e6a565b505050565b731b02da8cb0d097eb8d57a175b88c7d8b4799750681565b8273ffffffffffffffffffffffffffffffffffffffff1663095ea7b383836040518363ffffffff1660e01b8152600401808373ffffffffffffffffffffffffffffffffffffffff16815260200182815260200192505050602060405180830381600087803b1580156116ee57600080fd5b505af1158015611702573d6000803e3d6000fd5b505050506040513d602081101561171857600080fd5b810190808051906020019092919050505050505050565b60008290508073ffffffffffffffffffffffffffffffffffffffff166323b872dd8330876040518463ffffffff1660e01b8152600401808473ffffffffffffffffffffffffffffffffffffffff1681526020018373ffffffffffffffffffffffffffffffffffffffff1681526020018281526020019350505050602060405180830381600087803b1580156117c357600080fd5b505af11580156117d7573d6000803e3d6000fd5b505050506040513d60208110156117ed57600080fd5b81019080805190602001909291905050505050505050565b61182483731b02da8cb0d097eb8d57a175b88c7d8b479975068361167d565b73cf664087a5bb0237a0bad6742852ec6c8d69a27a73ffffffffffffffffffffffffffffffffffffffff168373ffffffffffffffffffffffffffffffffffffffff1614806118b1575073cf664087a5bb0237a0bad6742852ec6c8d69a27a73ffffffffffffffffffffffffffffffffffffffff168273ffffffffffffffffffffffffffffffffffffffff16145b156119c6576060600267ffffffffffffffff811180156118d057600080fd5b506040519080825280602002602001820160405280156118ff5781602001602082028036833780820191505090505b509050838160008151811061191057fe5b602002602001019073ffffffffffffffffffffffffffffffffffffffff16908173ffffffffffffffffffffffffffffffffffffffff1681525050828160018151811061195857fe5b602002602001019073ffffffffffffffffffffffffffffffffffffffff16908173ffffffffffffffffffffffffffffffffffffffff16815250506119c082600083307fffffffffffffffffffffffffffffffffffffffffffffffffffffffffffffffff6127fd565b50611b2e565b6060600367ffffffffffffffff811180156119e057600080fd5b50604051908082528060200260200182016040528015611a0f5781602001602082028036833780820191505090505b5090508381600081518110611a2057fe5b602002602001019073ffffffffffffffffffffffffffffffffffffffff16908173ffffffffffffffffffffffffffffffffffffffff168152505073cf664087a5bb0237a0bad6742852ec6c8d69a27a81600181518110611a7c57fe5b602002602001019073ffffffffffffffffffffffffffffffffffffffff16908173ffffffffffffffffffffffffffffffffffffffff16815250508281600281518110611ac457fe5b602002602001019073ffffffffffffffffffffffffffffffffffffffff16908173ffffffffffffffffffffffffffffffffffffffff1681525050611b2c82600083307fffffffffffffffffffffffffffffffffffffffffffffffffffffffffffffffff6127fd565b505b505050565b60058181548110611b4057fe5b906000526020600020016000915054906101000a900473ffffffffffffffffffffffffffffffffffffffff1681565b6000611b9883611b8a6008548561307d90919063ffffffff16565b61310390919063ffffffff16565b9050611baf8160085461318c90919063ffffffff16565b6008819055506000600960008673ffffffffffffffffffffffffffffffffffffffff1673ffffffffffffffffffffffffffffffffffffffff168152602001908152602001600020541115611c9757611c4f81600960008773ffffffffffffffffffffffffffffffffffffffff1673ffffffffffffffffffffffffffffffffffffffff1681526020019081526020016000205461318c90919063ffffffff16565b600960008673ffffffffffffffffffffffffffffffffffffffff1673ffffffffffffffffffffffffffffffffffffffff16815260200190815260200160002081905550611cdc565b80600960008673ffffffffffffffffffffffffffffffffffffffff1673ffffffffffffffffffffffffffffffffffffffff168152602001908152602001600020819055505b50505050565b60068181548110611cef57fe5b906000526020600020016000915054906101000a900473ffffffffffffffffffffffffffffffffffffffff1681565b6000600960008373ffffffffffffffffffffffffffffffffffffffff1673ffffffffffffffffffffffffffffffffffffffff1681526020019081526020016000205411611dd3576040517f08c379a000000000000000000000000000000000000000000000000000000000815260040180806020018281038252601f8152602001807f4572726f72202d2054686973207573657220686173206e6f207368617265730081525060200191505060405180910390fd5b600960008273ffffffffffffffffffffffffffffffffffffffff1673ffffffffffffffffffffffffffffffffffffffff168152602001908152602001600020546008600082825403925050819055506000600960008373ffffffffffffffffffffffffffffffffffffffff1673ffffffffffffffffffffffffffffffffffffffff1681526020019081526020016000208190555050565b6305f5e100600960008373ffffffffffffffffffffffffffffffffffffffff1673ffffffffffffffffffffffffffffffffffffffff168152602001908152602001600020819055506305f5e10060088190555050565b73cf664087a5bb0237a0bad6742852ec6c8d69a27a81565b611ef673985458e523db3d53125813ed68c274899e9dfab482612a85565b6000611f1673985458e523db3d53125813ed68c274899e9dfab430612fa6565b905073985458e523db3d53125813ed68c274899e9dfab473ffffffffffffffffffffffffffffffffffffffff1663a9059cbb83836040518363ffffffff1660e01b8152600401808373ffffffffffffffffffffffffffffffffffffffff16815260200182815260200192505050602060405180830381600087803b158015611f9d57600080fd5b505af1158015611fb1573d6000803e3d6000fd5b505050506040513d6020811015611fc757600080fd5b8101908080519060200190929190505050505050565b600061200483611ff6848a61307d90919063ffffffff16565b61310390919063ffffffff16565b9050600061202d8461201f858a61307d90919063ffffffff16565b61310390919063ffffffff16565b9050600061205685612048868a61307d90919063ffffffff16565b61310390919063ffffffff16565b9050600061207f86612071878a61307d90919063ffffffff16565b61310390919063ffffffff16565b90506121348460008080548060200260200160405190810160405280929190818152602001828054801561210857602002820191906000526020600020905b8160009054906101000a900473ffffffffffffffffffffffffffffffffffffffff1673ffffffffffffffffffffffffffffffffffffffff16815260200190600101908083116120be575b5050505050307fffffffffffffffffffffffffffffffffffffffffffffffffffffffffffffffff6127fd565b6121e883600060018054806020026020016040519081016040528092919081815260200182805480156121bc57602002820191906000526020600020905b8160009054906101000a900473ffffffffffffffffffffffffffffffffffffffff1673ffffffffffffffffffffffffffffffffffffffff1681526020019060010190808311612172575b5050505050307fffffffffffffffffffffffffffffffffffffffffffffffffffffffffffffffff6127fd565b61229c826000600280548060200260200160405190810160405280929190818152602001828054801561227057602002820191906000526020600020905b8160009054906101000a900473ffffffffffffffffffffffffffffffffffffffff1673ffffffffffffffffffffffffffffffffffffffff1681526020019060010190808311612226575b5050505050307fffffffffffffffffffffffffffffffffffffffffffffffffffffffffffffffff6127fd565b612350816000600380548060200260200160405190810160405280929190818152602001828054801561232457602002820191906000526020600020905b8160009054906101000a900473ffffffffffffffffffffffffffffffffffffffff1673ffffffffffffffffffffffffffffffffffffffff16815260200190600101908083116122da575b5050505050307fffffffffffffffffffffffffffffffffffffffffffffffffffffffffffffffff6127fd565b50505050505050505050565b60008690508073ffffffffffffffffffffffffffffffffffffffff166323b872dd87308b6040518463ffffffff1660e01b8152600401808473ffffffffffffffffffffffffffffffffffffffff1681526020018373ffffffffffffffffffffffffffffffffffffffff1681526020018281526020019350505050602060405180830381600087803b1580156123f057600080fd5b505af1158015612404573d6000803e3d6000fd5b505050506040513d602081101561241a57600080fd5b81019080805190602001909291905050505061245f73985458e523db3d53125813ed68c274899e9dfab4731b02da8cb0d097eb8d57a175b88c7d8b479975068a61167d565b60006124988361248a8661247c898b61318c90919063ffffffff16565b61318c90919063ffffffff16565b61318c90919063ffffffff16565b905060008111156124c1576124b186868686858e611fdd565b6124bc87828b611b6f565b6124d4565b6124ca896124df565b6124d387611e6a565b5b505050505050505050565b6125a56124f660048361310390919063ffffffff16565b60008080548060200260200160405190810160405280929190818152602001828054801561257957602002820191906000526020600020905b8160009054906101000a900473ffffffffffffffffffffffffffffffffffffffff1673ffffffffffffffffffffffffffffffffffffffff168152602001906001019080831161252f575b5050505050307fffffffffffffffffffffffffffffffffffffffffffffffffffffffffffffffff6127fd565b61266c6125bc60048361310390919063ffffffff16565b6000600180548060200260200160405190810160405280929190818152602001828054801561264057602002820191906000526020600020905b8160009054906101000a900473ffffffffffffffffffffffffffffffffffffffff1673ffffffffffffffffffffffffffffffffffffffff16815260200190600101908083116125f6575b5050505050307fffffffffffffffffffffffffffffffffffffffffffffffffffffffffffffffff6127fd565b61273361268360048361310390919063ffffffff16565b6000600280548060200260200160405190810160405280929190818152602001828054801561270757602002820191906000526020600020905b8160009054906101000a900473ffffffffffffffffffffffffffffffffffffffff1673ffffffffffffffffffffffffffffffffffffffff16815260200190600101908083116126bd575b5050505050307fffffffffffffffffffffffffffffffffffffffffffffffffffffffffffffffff6127fd565b6127fa61274a60048361310390919063ffffffff16565b600060038054806020026020016040519081016040528092919081815260200182805480156127ce57602002820191906000526020600020905b8160009054906101000a900473ffffffffffffffffffffffffffffffffffffffff1673ffffffffffffffffffffffffffffffffffffffff1681526020019060010190808311612784575b5050505050307fffffffffffffffffffffffffffffffffffffffffffffffffffffffffffffffff6127fd565b50565b600a60009054906101000a900473ffffffffffffffffffffffffffffffffffffffff1673ffffffffffffffffffffffffffffffffffffffff166338ed173986868686866040518663ffffffff1660e01b815260040180868152602001858152602001806020018473ffffffffffffffffffffffffffffffffffffffff168152602001838152602001828103825285818151815260200191508051906020019060200280838360005b838110156128c05780820151818401526020810190506128a5565b505050509050019650505050505050600060405180830381600087803b1580156128e957600080fd5b505af11580156128fd573d6000803e3d6000fd5b505050506040513d6000823e3d601f19601f82011682018060405250602081101561292757600080fd5b810190808051604051939291908464010000000082111561294757600080fd5b8382019150602082018581111561295d57600080fd5b825186602082028301116401000000008211171561297a57600080fd5b8083526020830192505050908051906020019060200280838360005b838110156129b1578082015181840152602081019050612996565b50505050905001604052505050505050505050565b600481815481106129d357fe5b906000526020600020016000915054906101000a900473ffffffffffffffffffffffffffffffffffffffff1681565b6000612a4060028301600a0a612a32612a1a866111e5565b612a248830612fa6565b61307d90919063ffffffff16565b61310390919063ffffffff16565b90509392505050565b60038181548110612a5657fe5b906000526020600020016000915054906101000a900473ffffffffffffffffffffffffffffffffffffffff1681565b60008273ffffffffffffffffffffffffffffffffffffffff166370a08231306040518263ffffffff1660e01b8152600401808273ffffffffffffffffffffffffffffffffffffffff16815260200191505060206040518083038186803b158015612aee57600080fd5b505afa158015612b02573d6000803e3d6000fd5b505050506040513d6020811015612b1857600080fd5b81019080805190602001909291905050509050612b3683838361167d565b505050565b6000600960008373ffffffffffffffffffffffffffffffffffffffff1673ffffffffffffffffffffffffffffffffffffffff168152602001908152602001600020549050919050565b73985458e523db3d53125813ed68c274899e9dfab481565b733095c7557bcb296ccc6e363de01b760ba031f2d981565b60085481565b60078181548110612bc757fe5b906000526020600020016000915054906101000a900473ffffffffffffffffffffffffffffffffffffffff1681565b60028181548110612c0357fe5b906000526020600020016000915054906101000a900473ffffffffffffffffffffffffffffffffffffffff1681565b3373ffffffffffffffffffffffffffffffffffffffff166108fc829081150290604051600060405180830381858888f19350505050158015612c78573d6000803e3d6000fd5b5050565b612d308460006004805480602002602001604051908101604052809291908181526020018280548015612d0457602002820191906000526020600020905b8160009054906101000a900473ffffffffffffffffffffffffffffffffffffffff1673ffffffffffffffffffffffffffffffffffffffff1681526020019060010190808311612cba575b5050505050307fffffffffffffffffffffffffffffffffffffffffffffffffffffffffffffffff6127fd565b612de48360006005805480602002602001604051908101604052809291908181526020018280548015612db857602002820191906000526020600020905b8160009054906101000a900473ffffffffffffffffffffffffffffffffffffffff1673ffffffffffffffffffffffffffffffffffffffff1681526020019060010190808311612d6e575b5050505050307fffffffffffffffffffffffffffffffffffffffffffffffffffffffffffffffff6127fd565b612e988260006006805480602002602001604051908101604052809291908181526020018280548015612e6c57602002820191906000526020600020905b8160009054906101000a900473ffffffffffffffffffffffffffffffffffffffff1673ffffffffffffffffffffffffffffffffffffffff1681526020019060010190808311612e22575b5050505050307fffffffffffffffffffffffffffffffffffffffffffffffffffffffffffffffff6127fd565b612f4c8160006007805480602002602001604051908101604052809291908181526020018280548015612f2057602002820191906000526020600020905b8160009054906101000a900473ffffffffffffffffffffffffffffffffffffffff1673ffffffffffffffffffffffffffffffffffffffff1681526020019060010190808311612ed6575b5050505050307fffffffffffffffffffffffffffffffffffffffffffffffffffffffffffffffff6127fd565b50505050565b60018181548110612f5f57fe5b906000526020600020016000915054906101000a900473ffffffffffffffffffffffffffffffffffffffff1681565b60096020528060005260406000206000915090505481565b6000808390508073ffffffffffffffffffffffffffffffffffffffff166370a08231846040518263ffffffff1660e01b8152600401808273ffffffffffffffffffffffffffffffffffffffff16815260200191505060206040518083038186803b15801561301357600080fd5b505afa158015613027573d6000803e3d6000fd5b505050506040513d602081101561303d57600080fd5b810190808051906020019092919050505091505092915050565b600a60009054906101000a900473ffffffffffffffffffffffffffffffffffffffff1681565b60008083141561309057600090506130fd565b60008284029050828482816130a157fe5b04146130f8576040517f08c379a00000000000000000000000000000000000000000000000000000000081526004018080602001828103825260218152602001806132156021913960400191505060405180910390fd5b809150505b92915050565b600080821161317a576040517f08c379a000000000000000000000000000000000000000000000000000000000815260040180806020018281038252601a8152602001807f536166654d6174683a206469766973696f6e206279207a65726f00000000000081525060200191505060405180910390fd5b81838161318357fe5b04905092915050565b60008082840190508381101561320a576040517f08c379a000000000000000000000000000000000000000000000000000000000815260040180806020018281038252601b8152602001807f536166654d6174683a206164646974696f6e206f766572666c6f77000000000081525060200191505060405180910390fd5b809150509291505056fe536166654d6174683a206d756c7469706c69636174696f6e206f766572666c6f77a264697066735822122087152499c16fd1edad246243625586e1213125c3b6748edcba9e8cd3c257f88c64736f6c634300060c0033",
  "immutableReferences": {},
  "source": "pragma solidity ^0.6.12;\n\n//import statements go here\nimport \"./interfaces/IUniswapV2Router02.sol\";\nimport \"./interfaces/IUniswapV2Router01.sol\";\nimport \"@openzeppelin/contracts/token/ERC20/IERC20.sol\";\nimport \"@openzeppelin/contracts/math/SafeMath.sol\";\nimport \"@chainlink/contracts/src/v0.6/interfaces/AggregatorV3Interface.sol\";\n\ncontract SushiIndex {\n    using SafeMath for uint256;\n\n    address public constant USDC_ADDRESS = 0x985458E523dB3d53125813eD68c274899e9DfAb4;\n    \n    address public constant WONE_ADDRESS = 0xcF664087a5bB0237a0BAd6742852ec6c8d69A27a;\n    address public constant SUSHI_ADDRESS = 0xBEC775Cb42AbFa4288dE81F387a9b1A3c4Bc552A;\n    address public constant WETH_ADDRESS = 0x6983D1E6DEf3690C4d616b13597A09e6193EA013;\n    address public constant WBTC_ADDRESS = 0x3095c7557bCb296ccc6e363DE01b760bA031F2d9;\n\n    // address public constant ONE_USD_ORACLE = 0xcEe686F89bc0dABAd95AEAAC980aE1d97A075FAD;\n    // address public constant WBTC_USD_ORACLE = 0xEF637736B220a58C661bfF4b71e03ca898DCC0Bd;\n    // address public constant ETH_USD_ORACLE = 0x4f11696cE92D78165E1F8A9a4192444087a45b64;\n    // address public constant SUSHI_USD_ORACLE = 0x90142a6930ecF80F1d14943224C56CFe0CD0d347;\n\n    address[] public USDCToWONEPath = [USDC_ADDRESS, WONE_ADDRESS];\n    address[] public USDCToSUSHIPath = [USDC_ADDRESS, WONE_ADDRESS, SUSHI_ADDRESS];\n    address[] public USDCToWETHPath = [USDC_ADDRESS, WONE_ADDRESS, WETH_ADDRESS];\n    address[] public USDCToWBTCPath = [USDC_ADDRESS, WONE_ADDRESS, WBTC_ADDRESS];\n\n    address[] public WONEToUSDCPath = [WONE_ADDRESS, USDC_ADDRESS];\n    address[] public SUSHIToUSDCPath = [SUSHI_ADDRESS, WONE_ADDRESS, USDC_ADDRESS];\n    address[] public WETHToUSDCPath = [WETH_ADDRESS, WONE_ADDRESS, USDC_ADDRESS];\n    address[] public WBTCToUSDCPath = [WBTC_ADDRESS, WONE_ADDRESS,USDC_ADDRESS];\n\n    address public constant SUSHISWAP_ROUTER = 0x1b02dA8Cb0d097eB8D57A175b88c7D8b47997506;\n    \n    uint256 public totalNumberOfShares;\n    mapping(address => uint256) public userNumberOfShares; \n\n    IUniswapV2Router02 public sushiSwapRouter = IUniswapV2Router02(SUSHISWAP_ROUTER);\n    //more variables here\n    // constructor() autoBalancer public {\n    // } \n    \n    /**\n     * Returns the latest price\n     */\n    function getLatestPrice(address _oracle_address) public view returns (int) {\n        (\n            uint80 roundID, \n            int price,\n            uint startedAt,\n            uint timeStamp,\n            uint80 answeredInRound\n        ) = AggregatorV3Interface(_oracle_address).latestRoundData();\n        return price;\n    }\n\n    function updateSharesOnWithdrawal(address user) public { //make this ownable - only contract itself can update this?\n        require (userNumberOfShares[user] > 0, \"Error - This user has no shares\");\n        totalNumberOfShares -= userNumberOfShares[user];\n        userNumberOfShares[user] = 0;\n    }\n\n    function getUserShares(address user) public view returns (uint256 userShares) {\n        return userNumberOfShares[user];\n    }\n\n    function approve_spending (address token_address, address spender_address, uint256 amount_to_approve) public {\n            IERC20(token_address).approve(spender_address, amount_to_approve);\n    }\n    \n     receive() external payable {\n    }\n\n    function deposit (uint256 _amount, address token_address, address address_from) public {\n        IERC20 token_ = IERC20(token_address);\n\n        token_.transferFrom(\n            address_from, \n            address(this), \n            _amount\n        );\n    }\n\n    function depositFirstTime (uint256 _amount, address token_address, address address_from) public {\n        deposit(_amount, token_address, address_from);\n\n        approve_spending(USDC_ADDRESS, SUSHISWAP_ROUTER, _amount);\n\n        swapIntoFourEqualParts(_amount);\n\n        setSharesFirstTime(address_from);\n    }\n\n    function depositUserFunds (uint256 amount_, address token_address, address address_from, uint256 WONE_balanceInUSD, uint256 SUSHI_balanceInUSD, uint256 WETH_balanceInUSD, uint256 WBTC_balanceInUSD) public  {\n        // TO DO - replace with deposit(amount_, token_address, address_from);\n        IERC20 token_ = IERC20(token_address);\n\n        token_.transferFrom(\n            address_from, \n            address(this), \n            amount_\n        );\n\n        approve_spending(USDC_ADDRESS, SUSHISWAP_ROUTER, amount_);\n\n        uint256 Total_in_USD = WONE_balanceInUSD.add(SUSHI_balanceInUSD).add(WETH_balanceInUSD).add(WBTC_balanceInUSD);\n        \n        if (Total_in_USD > 0) {\n            swapProportionately(WONE_balanceInUSD, SUSHI_balanceInUSD, WETH_balanceInUSD, WBTC_balanceInUSD, Total_in_USD, amount_);\n            updateSharesOnDeposit(address_from, Total_in_USD, amount_);\n        } else {\n            swapIntoFourEqualParts(amount_);\n            setSharesFirstTime(address_from);\n        }\n    }\n\n    function getUSDBalanceOf(address token_address, address oracle_address, uint256 token_decimals) public view returns (uint256) {\n        // uint256 token_decimals = IERC20(token_address).decimals();\n        return balanceOf(token_address, address(this))\n        .mul(uint256(getLatestPrice(oracle_address)))\n        .div(10**(token_decimals+2));\n    }\n\n    function swapProportionately(uint256 WONE_amount, uint256 SUSHI_amount, uint256 WETH_amount, uint256 WBTC_amount, uint256 totalUSDAmount, uint256 depositAmount) public {\n        uint256 WONE_share = WONE_amount.mul(depositAmount).div(totalUSDAmount); \n        uint256 SUSHI_share = SUSHI_amount.mul(depositAmount).div(totalUSDAmount);\n        uint256 WETH_share = WETH_amount.mul(depositAmount).div(totalUSDAmount);\n        uint256 WBTC_share = WBTC_amount.mul(depositAmount).div(totalUSDAmount);\n\n        swap(WONE_share, uint256(0), USDCToWONEPath, address(this), uint256(-1));\n        swap(SUSHI_share, uint256(0), USDCToSUSHIPath, address(this), uint256(-1));\n        swap(WETH_share, uint256(0), USDCToWETHPath, address(this), uint256(-1));\n        swap(WBTC_share, uint256(0), USDCToWBTCPath, address(this), uint256(-1));\n    }\n\n    function swapIntoFourEqualParts(uint256 amount) public {\n        swap(amount.div(4), uint256(0), USDCToWONEPath, address(this), uint256(-1));\n        swap(amount.div(4), uint256(0), USDCToSUSHIPath, address(this), uint256(-1));\n        swap(amount.div(4), uint256(0), USDCToWETHPath, address(this), uint256(-1));\n        swap(amount.div(4), uint256(0), USDCToWBTCPath, address(this), uint256(-1));\n    }\n\n    function setSharesFirstTime(address user) public {\n        userNumberOfShares[user] = 100000000;\n        totalNumberOfShares = 100000000;\n    }\n\n    function updateSharesOnDeposit(address user, uint256 total_in_USD, uint256 deposit_amount) public { //make this ownable - only contract itself can update this?\n        uint256 newSharesForUser = deposit_amount.mul(totalNumberOfShares).div(total_in_USD);\n        totalNumberOfShares = totalNumberOfShares.add(newSharesForUser);\n        if (userNumberOfShares[user] > 0) {\n            userNumberOfShares[user] = userNumberOfShares[user].add(newSharesForUser);\n        } else {\n            userNumberOfShares[user] = newSharesForUser;\n        }\n    }\n\n    function withdrawUserFunds(address user) public {\n\n        uint256 WONE_amount = getUserShares(user).mul(balanceOf(WONE_ADDRESS, address(this))).div(totalNumberOfShares);\n        uint256 SUSHI_amount = getUserShares(user).mul(balanceOf(SUSHI_ADDRESS, address(this))).div(totalNumberOfShares);\n        uint256 WETH_amount = getUserShares(user).mul(balanceOf(WETH_ADDRESS, address(this))).div(totalNumberOfShares);\n        uint256 WBTC_amount = getUserShares(user).mul(balanceOf(WBTC_ADDRESS, address(this))).div(totalNumberOfShares);\n\n        approveSpendingWholeBalance(WONE_ADDRESS, SUSHISWAP_ROUTER);\n        approveSpendingWholeBalance(SUSHI_ADDRESS, SUSHISWAP_ROUTER);\n        approveSpendingWholeBalance(WETH_ADDRESS, SUSHISWAP_ROUTER);\n        approveSpendingWholeBalance(WBTC_ADDRESS, SUSHISWAP_ROUTER);\n\n        swapFourTokensBackToUSDC(WONE_amount, SUSHI_amount, WETH_amount, WBTC_amount);\n\n        approveSpendingWholeBalance(USDC_ADDRESS, user);\n        \n        uint256 USDC_amount = balanceOf(USDC_ADDRESS, address(this));\n        IERC20(USDC_ADDRESS).transfer(user, USDC_amount);\n\n        updateSharesOnWithdrawal(user);\n    }\n\n    function executeRebalancingSwap(address _tokenToSwap, address _tokenSwappingTo, uint256 _amountToBeSwapped) public {\n        approve_spending(_tokenToSwap, SUSHISWAP_ROUTER, _amountToBeSwapped);\n        if (_tokenToSwap == WONE_ADDRESS || _tokenSwappingTo == WONE_ADDRESS) {\n            address[] memory _path = new address[](2);\n            _path[0] = _tokenToSwap;\n            _path[1] = _tokenSwappingTo;\n            swap(_amountToBeSwapped, uint256(0), _path, address(this), uint256(-1));\n        } else {\n            address[] memory _path = new address[](3);\n            _path[0] = _tokenToSwap;\n            _path[1] = WONE_ADDRESS;\n            _path[2] = _tokenSwappingTo;\n            swap(_amountToBeSwapped, uint256(0), _path, address(this), uint256(-1));\n        }\n        \n    }\n\n    function approveSpendingWholeBalance(address _token, address _spender) public {\n        uint256 tokenBalance = IERC20(_token).balanceOf(address(this));\n        approve_spending(_token, _spender, tokenBalance);\n    }\n\n    function swapFourTokensBackToUSDC(uint256 WONE_amount, uint256 SUSHI_amount, uint256 WETH_amount, uint256 WBTC_amount) public {\n        swap(WONE_amount, uint256(0), WONEToUSDCPath, address(this), uint256(-1));\n        swap(SUSHI_amount, uint256(0), SUSHIToUSDCPath, address(this), uint256(-1));\n        swap(WETH_amount, uint256(0), WETHToUSDCPath, address(this), uint256(-1));\n        swap(WBTC_amount, uint256(0), WBTCToUSDCPath, address(this), uint256(-1));\n    }\n    \n    function withdraw_matic(uint256 amount_) public {\n        msg.sender.transfer(amount_); //TODO - change?\n    }\n\n    function withdrawAllUSDC(address _user) public {\n        approveSpendingWholeBalance(USDC_ADDRESS, _user);\n        uint256 USDC_amount = balanceOf(USDC_ADDRESS, address(this));\n        IERC20(USDC_ADDRESS).transfer(_user, USDC_amount);\n    }\n\n    function withdrawAll(address _user, address _token_address) public {\n        approveSpendingWholeBalance(_token_address, _user);\n        uint256 USDC_amount = balanceOf(_token_address, address(this));\n        IERC20(_token_address).transfer(_user, USDC_amount);\n    }\n\n    function balanceOf(address token_address, address user_address) public view returns (uint256 token_balance) {\n        IERC20 _token = IERC20(token_address);\n        token_balance = _token.balanceOf(user_address);\n        return token_balance;\n    }\n    \n    function swap(uint256 _amountIn, uint256 _amountOutMin, address[] memory _path, address _acct, uint256 _deadline) public {\n        \n       sushiSwapRouter.swapExactTokensForTokens(\n            _amountIn,\n            _amountOutMin,\n            _path,\n            _acct,\n            _deadline);\n        }      \n    }\n    \n\n    ",
  "sourcePath": "/Users/richardjamieson/Documents/GitHub/SushiIndexHarmony/contracts/sushiIndex.sol",
  "compiler": {
    "name": "solc",
    "version": "0.6.12+commit.27d51765.Emscripten.clang"
  },
  "schemaVersion": "3.3.4",
  "updatedAt": "2021-09-16T09:02:37.454Z",
  "networkType": "ethereum",
  "devdoc": {
    "kind": "dev",
    "methods": {},
    "version": 1
  },
  "userdoc": {
    "kind": "user",
    "methods": {
      "getLatestPrice(address)": {
        "notice": "Returns the latest price"
      }
    },
    "version": 1
  }
}